{
  "address": "0x12718e7e9f79A2043f962AC51CEab5E9234eC49E",
  "abi": [
    {
      "inputs": [
        {
          "internalType": "address",
          "name": "admin",
          "type": "address"
        },
        {
          "internalType": "address",
          "name": "sweetToken_",
          "type": "address"
        }
      ],
      "stateMutability": "nonpayable",
      "type": "constructor"
    },
    {
      "anonymous": false,
      "inputs": [
        {
          "indexed": false,
          "internalType": "address",
          "name": "user",
          "type": "address"
        },
        {
          "indexed": false,
          "internalType": "uint256",
          "name": "amount",
          "type": "uint256"
        }
      ],
      "name": "Claimed",
      "type": "event"
    },
    {
      "anonymous": false,
      "inputs": [
        {
          "indexed": true,
          "internalType": "bytes32",
          "name": "role",
          "type": "bytes32"
        },
        {
          "indexed": true,
          "internalType": "bytes32",
          "name": "previousAdminRole",
          "type": "bytes32"
        },
        {
          "indexed": true,
          "internalType": "bytes32",
          "name": "newAdminRole",
          "type": "bytes32"
        }
      ],
      "name": "RoleAdminChanged",
      "type": "event"
    },
    {
      "anonymous": false,
      "inputs": [
        {
          "indexed": true,
          "internalType": "bytes32",
          "name": "role",
          "type": "bytes32"
        },
        {
          "indexed": true,
          "internalType": "address",
          "name": "account",
          "type": "address"
        },
        {
          "indexed": true,
          "internalType": "address",
          "name": "sender",
          "type": "address"
        }
      ],
      "name": "RoleGranted",
      "type": "event"
    },
    {
      "anonymous": false,
      "inputs": [
        {
          "indexed": true,
          "internalType": "bytes32",
          "name": "role",
          "type": "bytes32"
        },
        {
          "indexed": true,
          "internalType": "address",
          "name": "account",
          "type": "address"
        },
        {
          "indexed": true,
          "internalType": "address",
          "name": "sender",
          "type": "address"
        }
      ],
      "name": "RoleRevoked",
      "type": "event"
    },
    {
      "anonymous": false,
      "inputs": [
        {
          "indexed": false,
          "internalType": "address",
          "name": "to",
          "type": "address"
        },
        {
          "indexed": false,
          "internalType": "uint256",
          "name": "amount",
          "type": "uint256"
        },
        {
          "indexed": false,
          "internalType": "uint256",
          "name": "period",
          "type": "uint256"
        }
      ],
      "name": "ScheduleCreated",
      "type": "event"
    },
    {
      "inputs": [],
      "name": "DEFAULT_ADMIN_ROLE",
      "outputs": [
        {
          "internalType": "bytes32",
          "name": "",
          "type": "bytes32"
        }
      ],
      "stateMutability": "view",
      "type": "function"
    },
    {
      "inputs": [],
      "name": "DISTRIBUTOR",
      "outputs": [
        {
          "internalType": "bytes32",
          "name": "",
          "type": "bytes32"
        }
      ],
      "stateMutability": "view",
      "type": "function"
    },
    {
      "inputs": [],
      "name": "availableTokens",
      "outputs": [
        {
          "internalType": "uint256",
          "name": "",
          "type": "uint256"
        }
      ],
      "stateMutability": "view",
      "type": "function"
    },
    {
      "inputs": [],
      "name": "claim",
      "outputs": [],
      "stateMutability": "nonpayable",
      "type": "function"
    },
    {
      "inputs": [
        {
          "internalType": "address",
          "name": "to",
          "type": "address"
        },
        {
          "internalType": "uint256",
          "name": "amount",
          "type": "uint256"
        },
        {
          "internalType": "uint256",
          "name": "period",
          "type": "uint256"
        }
      ],
      "name": "createSchedule",
      "outputs": [],
      "stateMutability": "nonpayable",
      "type": "function"
    },
    {
      "inputs": [
        {
          "internalType": "bytes32",
          "name": "role",
          "type": "bytes32"
        }
      ],
      "name": "getRoleAdmin",
      "outputs": [
        {
          "internalType": "bytes32",
          "name": "",
          "type": "bytes32"
        }
      ],
      "stateMutability": "view",
      "type": "function"
    },
    {
      "inputs": [
        {
          "internalType": "bytes32",
          "name": "role",
          "type": "bytes32"
        },
        {
          "internalType": "address",
          "name": "account",
          "type": "address"
        }
      ],
      "name": "grantRole",
      "outputs": [],
      "stateMutability": "nonpayable",
      "type": "function"
    },
    {
      "inputs": [
        {
          "internalType": "bytes32",
          "name": "role",
          "type": "bytes32"
        },
        {
          "internalType": "address",
          "name": "account",
          "type": "address"
        }
      ],
      "name": "hasRole",
      "outputs": [
        {
          "internalType": "bool",
          "name": "",
          "type": "bool"
        }
      ],
      "stateMutability": "view",
      "type": "function"
    },
    {
      "inputs": [
        {
          "internalType": "bytes32",
          "name": "role",
          "type": "bytes32"
        },
        {
          "internalType": "address",
          "name": "account",
          "type": "address"
        }
      ],
      "name": "renounceRole",
      "outputs": [],
      "stateMutability": "nonpayable",
      "type": "function"
    },
    {
      "inputs": [
        {
          "internalType": "bytes32",
          "name": "role",
          "type": "bytes32"
        },
        {
          "internalType": "address",
          "name": "account",
          "type": "address"
        }
      ],
      "name": "revokeRole",
      "outputs": [],
      "stateMutability": "nonpayable",
      "type": "function"
    },
    {
      "inputs": [
        {
          "internalType": "bytes4",
          "name": "interfaceId",
          "type": "bytes4"
        }
      ],
      "name": "supportsInterface",
      "outputs": [
        {
          "internalType": "bool",
          "name": "",
          "type": "bool"
        }
      ],
      "stateMutability": "view",
      "type": "function"
    },
    {
      "inputs": [],
      "name": "sweetToken",
      "outputs": [
        {
          "internalType": "contract IERC20",
          "name": "",
          "type": "address"
        }
      ],
      "stateMutability": "view",
      "type": "function"
    },
    {
      "inputs": [
        {
          "internalType": "address",
          "name": "",
          "type": "address"
        }
      ],
      "name": "userInfo",
      "outputs": [
        {
          "internalType": "uint256",
          "name": "lockedUntil",
          "type": "uint256"
        },
        {
          "internalType": "uint256",
          "name": "amount",
          "type": "uint256"
        }
      ],
      "stateMutability": "view",
      "type": "function"
    }
  ],
  "transactionHash": "0xe8fdcd203c222d1059f58d1c42ff4a509b5f0da8680bf88a2747162a85cb477c",
  "args": [
    "0xda0f4027e61C09F74ac67a763e196Ae22a163e1A",
    "0xE8EbCf4Fd1faa9B77c0ec0B26e7Cc32a251Cd799"
  ],
  "numDeployments": 1,
  "solcInputHash": "04f125c02b0c8acb95f6d95b11c2215a",
  "bytecode": "0x608060405269d3c21bcecceda100000060035534801561001e57600080fd5b5060405161109938038061109983398101604081905261003d91610198565b6001600160a01b0381166100ac5760405162461bcd60e51b815260206004820152602c60248201527f5377656574706164436861726974793a20546f6b656e2061646472657373206360448201526b616e2774206265207a65726f60a01b606482015260840160405180910390fd5b6100b76000836100dd565b600280546001600160a01b0319166001600160a01b0392909216919091179055506101cb565b6000828152602081815260408083206001600160a01b038516845290915290205460ff16610178576000828152602081815260408083206001600160a01b03851684529091529020805460ff191660011790556101373390565b6001600160a01b0316816001600160a01b0316837f2f8788117e7eff1d82e926ec794901d17c78024a50270940304540a733656f0d60405160405180910390a45b5050565b80516001600160a01b038116811461019357600080fd5b919050565b600080604083850312156101ab57600080fd5b6101b48361017c565b91506101c26020840161017c565b90509250929050565b610ebf806101da6000396000f3fe608060405234801561001057600080fd5b50600436106100cf5760003560e01c80635a9a5d491161008c57806394fa0aaf1161006657806394fa0aaf146101c85780639c26149f146101f3578063a217fddf1461021a578063d547741f1461022257600080fd5b80635a9a5d491461019957806369bb4dc2146101ac57806391d14854146101b557600080fd5b806301ffc9a7146100d45780631959a002146100fc578063248a9ca3146101385780632f2ff15d1461016957806336568abe1461017e5780634e71d92d14610191575b600080fd5b6100e76100e2366004610cc4565b610235565b60405190151581526020015b60405180910390f35b61012361010a366004610c0f565b6001602081905260009182526040909120805491015482565b604080519283526020830191909152016100f3565b61015b610146366004610c7f565b60009081526020819052604090206001015490565b6040519081526020016100f3565b61017c610177366004610c98565b61026c565b005b61017c61018c366004610c98565b610296565b61017c610319565b61017c6101a7366004610c2a565b61047c565b61015b60035481565b6100e76101c3366004610c98565b610603565b6002546101db906001600160a01b031681565b6040516001600160a01b0390911681526020016100f3565b61015b7f85faced7bde13e1a7dad704b895f006e704f207617d68166b31ba2d79624862d81565b61015b600081565b61017c610230366004610c98565b61062c565b60006001600160e01b03198216637965db0b60e01b148061026657506301ffc9a760e01b6001600160e01b03198316145b92915050565b60008281526020819052604090206001015461028781610651565b610291838361065e565b505050565b6001600160a01b038116331461030b5760405162461bcd60e51b815260206004820152602f60248201527f416363657373436f6e74726f6c3a2063616e206f6e6c792072656e6f756e636560448201526e103937b632b9903337b91039b2b63360891b60648201526084015b60405180910390fd5b61031582826106e2565b5050565b33600090815260016020819052604090912001546103835760405162461bcd60e51b815260206004820152602160248201527f5377656574706164436861726974793a204e6f7468696e6720746f20636c61696044820152606d60f81b6064820152608401610302565b336000908152600160205260409020544310156103ed5760405162461bcd60e51b815260206004820152602260248201527f5377656574706164436861726974793a20546f6f20736f6f6e20746f20636c61604482015261696d60f01b6064820152608401610302565b3360008181526001602081905260409091200154600254610419926001600160a01b0390911691610747565b33600081815260016020818152604092839020909101548251938452908301527fd8138f8a3f377c5259ca548e70e4c2de94f129f5a11036a15b69513cba2b426a910160405180910390a133600090815260016020819052604082208281550155565b7f85faced7bde13e1a7dad704b895f006e704f207617d68166b31ba2d79624862d6104a681610651565b6001600160a01b0384166105105760405162461bcd60e51b815260206004820152602b60248201527f5377656574706164436861726974793a2055736572206164647265737320636160448201526a6e2774206265207a65726f60a81b6064820152608401610302565b6000831161056e5760405162461bcd60e51b815260206004820152602560248201527f5377656574706164436861726974793a20416d6f756e742063616e2774206265604482015264207a65726f60d81b6064820152608401610302565b6105788243610db2565b6001600160a01b0385166000908152600160208190526040822092835591909101849055600380548592906105ae908490610de9565b9091555050604080516001600160a01b0386168152602081018590529081018390527fb871057cd3f316a478a827f65b30581628abf740760eb31d9c6df28c98ffc4389060600160405180910390a150505050565b6000918252602082815260408084206001600160a01b0393909316845291905290205460ff1690565b60008281526020819052604090206001015461064781610651565b61029183836106e2565b61065b8133610799565b50565b6106688282610603565b610315576000828152602081815260408083206001600160a01b03851684529091529020805460ff1916600117905561069e3390565b6001600160a01b0316816001600160a01b0316837f2f8788117e7eff1d82e926ec794901d17c78024a50270940304540a733656f0d60405160405180910390a45050565b6106ec8282610603565b15610315576000828152602081815260408083206001600160a01b0385168085529252808320805460ff1916905551339285917ff6391f5c32d9c69d2a47ea670b442974b53935d1edc7fd64eb21e047a839171b9190a45050565b604080516001600160a01b038416602482015260448082018490528251808303909101815260649091019091526020810180516001600160e01b031663a9059cbb60e01b1790526102919084906107fd565b6107a38282610603565b610315576107bb816001600160a01b031660146108cf565b6107c68360206108cf565b6040516020016107d7929190610d0a565b60408051601f198184030181529082905262461bcd60e51b825261030291600401610d7f565b6000610852826040518060400160405280602081526020017f5361666545524332303a206c6f772d6c6576656c2063616c6c206661696c6564815250856001600160a01b0316610a729092919063ffffffff16565b80519091501561029157808060200190518101906108709190610c5d565b6102915760405162461bcd60e51b815260206004820152602a60248201527f5361666545524332303a204552433230206f7065726174696f6e20646964206e6044820152691bdd081cdd58d8d9595960b21b6064820152608401610302565b606060006108de836002610dca565b6108e9906002610db2565b67ffffffffffffffff81111561090157610901610e73565b6040519080825280601f01601f19166020018201604052801561092b576020820181803683370190505b509050600360fc1b8160008151811061094657610946610e5d565b60200101906001600160f81b031916908160001a905350600f60fb1b8160018151811061097557610975610e5d565b60200101906001600160f81b031916908160001a9053506000610999846002610dca565b6109a4906001610db2565b90505b6001811115610a1c576f181899199a1a9b1b9c1cb0b131b232b360811b85600f16601081106109d8576109d8610e5d565b1a60f81b8282815181106109ee576109ee610e5d565b60200101906001600160f81b031916908160001a90535060049490941c93610a1581610e30565b90506109a7565b508315610a6b5760405162461bcd60e51b815260206004820181905260248201527f537472696e67733a20686578206c656e67746820696e73756666696369656e746044820152606401610302565b9392505050565b6060610a818484600085610a89565b949350505050565b606082471015610aea5760405162461bcd60e51b815260206004820152602660248201527f416464726573733a20696e73756666696369656e742062616c616e636520666f6044820152651c8818d85b1b60d21b6064820152608401610302565b6001600160a01b0385163b610b415760405162461bcd60e51b815260206004820152601d60248201527f416464726573733a2063616c6c20746f206e6f6e2d636f6e74726163740000006044820152606401610302565b600080866001600160a01b03168587604051610b5d9190610cee565b60006040518083038185875af1925050503d8060008114610b9a576040519150601f19603f3d011682016040523d82523d6000602084013e610b9f565b606091505b5091509150610baf828286610bba565b979650505050505050565b60608315610bc9575081610a6b565b825115610bd95782518084602001fd5b8160405162461bcd60e51b81526004016103029190610d7f565b80356001600160a01b0381168114610c0a57600080fd5b919050565b600060208284031215610c2157600080fd5b610a6b82610bf3565b600080600060608486031215610c3f57600080fd5b610c4884610bf3565b95602085013595506040909401359392505050565b600060208284031215610c6f57600080fd5b81518015158114610a6b57600080fd5b600060208284031215610c9157600080fd5b5035919050565b60008060408385031215610cab57600080fd5b82359150610cbb60208401610bf3565b90509250929050565b600060208284031215610cd657600080fd5b81356001600160e01b031981168114610a6b57600080fd5b60008251610d00818460208701610e00565b9190910192915050565b7f416363657373436f6e74726f6c3a206163636f756e7420000000000000000000815260008351610d42816017850160208801610e00565b7001034b99036b4b9b9b4b733903937b6329607d1b6017918401918201528351610d73816028840160208801610e00565b01602801949350505050565b6020815260008251806020840152610d9e816040850160208701610e00565b601f01601f19169190910160400192915050565b60008219821115610dc557610dc5610e47565b500190565b6000816000190483118215151615610de457610de4610e47565b500290565b600082821015610dfb57610dfb610e47565b500390565b60005b83811015610e1b578181015183820152602001610e03565b83811115610e2a576000848401525b50505050565b600081610e3f57610e3f610e47565b506000190190565b634e487b7160e01b600052601160045260246000fd5b634e487b7160e01b600052603260045260246000fd5b634e487b7160e01b600052604160045260246000fdfea2646970667358221220f993d578006a211f2684e9fa855d46493242a19fcfe990ff3d10a847213058b164736f6c63430008070033",
  "devdoc": {
    "kind": "dev",
    "methods": {
      "getRoleAdmin(bytes32)": {
        "details": "Returns the admin role that controls `role`. See {grantRole} and {revokeRole}. To change a role's admin, use {_setRoleAdmin}."
      },
      "grantRole(bytes32,address)": {
        "details": "Grants `role` to `account`. If `account` had not been already granted `role`, emits a {RoleGranted} event. Requirements: - the caller must have ``role``'s admin role."
      },
      "hasRole(bytes32,address)": {
        "details": "Returns `true` if `account` has been granted `role`."
      },
      "renounceRole(bytes32,address)": {
        "details": "Revokes `role` from the calling account. Roles are often managed via {grantRole} and {revokeRole}: this function's purpose is to provide a mechanism for accounts to lose their privileges if they are compromised (such as when a trusted device is misplaced). If the calling account had been revoked `role`, emits a {RoleRevoked} event. Requirements: - the caller must be `account`."
      },
      "revokeRole(bytes32,address)": {
        "details": "Revokes `role` from `account`. If `account` had been granted `role`, emits a {RoleRevoked} event. Requirements: - the caller must have ``role``'s admin role."
      },
      "supportsInterface(bytes4)": {
        "details": "See {IERC165-supportsInterface}."
      }
    },
    "version": 1
  },
  "userdoc": {
    "kind": "user",
    "methods": {},
    "version": 1
  },
  "storageLayout": {
    "storage": [
      {
        "astId": 24,
        "contract": "contracts/SweetpadCharity.sol:SweetpadCharity",
        "label": "_roles",
        "offset": 0,
        "slot": "0",
        "type": "t_mapping(t_bytes32,t_struct(RoleData)19_storage)"
      },
      {
        "astId": 2121,
        "contract": "contracts/SweetpadCharity.sol:SweetpadCharity",
        "label": "userInfo",
        "offset": 0,
        "slot": "1",
        "type": "t_mapping(t_address,t_struct(UserInfo)2116_storage)"
      },
      {
        "astId": 2124,
        "contract": "contracts/SweetpadCharity.sol:SweetpadCharity",
        "label": "sweetToken",
        "offset": 0,
        "slot": "2",
        "type": "t_contract(IERC20)592"
      },
      {
        "astId": 2133,
        "contract": "contracts/SweetpadCharity.sol:SweetpadCharity",
        "label": "availableTokens",
        "offset": 0,
        "slot": "3",
        "type": "t_uint256"
      }
    ],
    "types": {
      "t_address": {
        "encoding": "inplace",
        "label": "address",
        "numberOfBytes": "20"
      },
      "t_bool": {
        "encoding": "inplace",
        "label": "bool",
        "numberOfBytes": "1"
      },
      "t_bytes32": {
        "encoding": "inplace",
        "label": "bytes32",
        "numberOfBytes": "32"
      },
      "t_contract(IERC20)592": {
        "encoding": "inplace",
        "label": "contract IERC20",
        "numberOfBytes": "20"
      },
      "t_mapping(t_address,t_bool)": {
        "encoding": "mapping",
        "key": "t_address",
        "label": "mapping(address => bool)",
        "numberOfBytes": "32",
        "value": "t_bool"
      },
      "t_mapping(t_address,t_struct(UserInfo)2116_storage)": {
        "encoding": "mapping",
        "key": "t_address",
        "label": "mapping(address => struct SweetpadCharity.UserInfo)",
        "numberOfBytes": "32",
        "value": "t_struct(UserInfo)2116_storage"
      },
      "t_mapping(t_bytes32,t_struct(RoleData)19_storage)": {
        "encoding": "mapping",
        "key": "t_bytes32",
        "label": "mapping(bytes32 => struct AccessControl.RoleData)",
        "numberOfBytes": "32",
        "value": "t_struct(RoleData)19_storage"
      },
      "t_struct(RoleData)19_storage": {
        "encoding": "inplace",
        "label": "struct AccessControl.RoleData",
        "members": [
          {
            "astId": 16,
            "contract": "contracts/SweetpadCharity.sol:SweetpadCharity",
            "label": "members",
            "offset": 0,
            "slot": "0",
            "type": "t_mapping(t_address,t_bool)"
          },
          {
            "astId": 18,
            "contract": "contracts/SweetpadCharity.sol:SweetpadCharity",
            "label": "adminRole",
            "offset": 0,
            "slot": "1",
            "type": "t_bytes32"
          }
        ],
        "numberOfBytes": "64"
      },
      "t_struct(UserInfo)2116_storage": {
        "encoding": "inplace",
        "label": "struct SweetpadCharity.UserInfo",
        "members": [
          {
            "astId": 2113,
            "contract": "contracts/SweetpadCharity.sol:SweetpadCharity",
            "label": "lockedUntil",
            "offset": 0,
            "slot": "0",
            "type": "t_uint256"
          },
          {
            "astId": 2115,
            "contract": "contracts/SweetpadCharity.sol:SweetpadCharity",
            "label": "amount",
            "offset": 0,
            "slot": "1",
            "type": "t_uint256"
          }
        ],
        "numberOfBytes": "64"
      },
      "t_uint256": {
        "encoding": "inplace",
        "label": "uint256",
        "numberOfBytes": "32"
      }
    }
  }
}