{
  "address": "0x768C1C7b0Ea4a5dBe7c1E986165fa0AEe6770444",
  "abi": [
    {
      "inputs": [
        {
          "internalType": "address",
          "name": "admin",
          "type": "address"
        },
        {
          "internalType": "address",
          "name": "sweetToken_",
          "type": "address"
        }
      ],
      "stateMutability": "nonpayable",
      "type": "constructor"
    },
    {
      "anonymous": false,
      "inputs": [
        {
          "indexed": true,
          "internalType": "bytes32",
          "name": "role",
          "type": "bytes32"
        },
        {
          "indexed": true,
          "internalType": "bytes32",
          "name": "previousAdminRole",
          "type": "bytes32"
        },
        {
          "indexed": true,
          "internalType": "bytes32",
          "name": "newAdminRole",
          "type": "bytes32"
        }
      ],
      "name": "RoleAdminChanged",
      "type": "event"
    },
    {
      "anonymous": false,
      "inputs": [
        {
          "indexed": true,
          "internalType": "bytes32",
          "name": "role",
          "type": "bytes32"
        },
        {
          "indexed": true,
          "internalType": "address",
          "name": "account",
          "type": "address"
        },
        {
          "indexed": true,
          "internalType": "address",
          "name": "sender",
          "type": "address"
        }
      ],
      "name": "RoleGranted",
      "type": "event"
    },
    {
      "anonymous": false,
      "inputs": [
        {
          "indexed": true,
          "internalType": "bytes32",
          "name": "role",
          "type": "bytes32"
        },
        {
          "indexed": true,
          "internalType": "address",
          "name": "account",
          "type": "address"
        },
        {
          "indexed": true,
          "internalType": "address",
          "name": "sender",
          "type": "address"
        }
      ],
      "name": "RoleRevoked",
      "type": "event"
    },
    {
      "inputs": [],
      "name": "BLOCKS_PER_MONTH",
      "outputs": [
        {
          "internalType": "uint256",
          "name": "",
          "type": "uint256"
        }
      ],
      "stateMutability": "view",
      "type": "function"
    },
    {
      "inputs": [],
      "name": "DEFAULT_ADMIN_ROLE",
      "outputs": [
        {
          "internalType": "bytes32",
          "name": "",
          "type": "bytes32"
        }
      ],
      "stateMutability": "view",
      "type": "function"
    },
    {
      "inputs": [],
      "name": "DISTRIBUTOR",
      "outputs": [
        {
          "internalType": "bytes32",
          "name": "",
          "type": "bytes32"
        }
      ],
      "stateMutability": "view",
      "type": "function"
    },
    {
      "inputs": [
        {
          "internalType": "uint256",
          "name": "amount",
          "type": "uint256"
        }
      ],
      "name": "claim",
      "outputs": [],
      "stateMutability": "nonpayable",
      "type": "function"
    },
    {
      "inputs": [],
      "name": "claimedTokens",
      "outputs": [
        {
          "internalType": "uint256",
          "name": "",
          "type": "uint256"
        }
      ],
      "stateMutability": "view",
      "type": "function"
    },
    {
      "inputs": [
        {
          "internalType": "bytes32",
          "name": "role",
          "type": "bytes32"
        }
      ],
      "name": "getRoleAdmin",
      "outputs": [
        {
          "internalType": "bytes32",
          "name": "",
          "type": "bytes32"
        }
      ],
      "stateMutability": "view",
      "type": "function"
    },
    {
      "inputs": [],
      "name": "getUnlockedTokens",
      "outputs": [
        {
          "internalType": "uint256",
          "name": "unlocked",
          "type": "uint256"
        }
      ],
      "stateMutability": "view",
      "type": "function"
    },
    {
      "inputs": [
        {
          "internalType": "bytes32",
          "name": "role",
          "type": "bytes32"
        },
        {
          "internalType": "address",
          "name": "account",
          "type": "address"
        }
      ],
      "name": "grantRole",
      "outputs": [],
      "stateMutability": "nonpayable",
      "type": "function"
    },
    {
      "inputs": [
        {
          "internalType": "bytes32",
          "name": "role",
          "type": "bytes32"
        },
        {
          "internalType": "address",
          "name": "account",
          "type": "address"
        }
      ],
      "name": "hasRole",
      "outputs": [
        {
          "internalType": "bool",
          "name": "",
          "type": "bool"
        }
      ],
      "stateMutability": "view",
      "type": "function"
    },
    {
      "inputs": [],
      "name": "lockedTokens",
      "outputs": [
        {
          "internalType": "uint256",
          "name": "",
          "type": "uint256"
        }
      ],
      "stateMutability": "view",
      "type": "function"
    },
    {
      "inputs": [
        {
          "internalType": "bytes32",
          "name": "role",
          "type": "bytes32"
        },
        {
          "internalType": "address",
          "name": "account",
          "type": "address"
        }
      ],
      "name": "renounceRole",
      "outputs": [],
      "stateMutability": "nonpayable",
      "type": "function"
    },
    {
      "inputs": [
        {
          "internalType": "bytes32",
          "name": "role",
          "type": "bytes32"
        },
        {
          "internalType": "address",
          "name": "account",
          "type": "address"
        }
      ],
      "name": "revokeRole",
      "outputs": [],
      "stateMutability": "nonpayable",
      "type": "function"
    },
    {
      "inputs": [],
      "name": "startBlock",
      "outputs": [
        {
          "internalType": "uint256",
          "name": "",
          "type": "uint256"
        }
      ],
      "stateMutability": "view",
      "type": "function"
    },
    {
      "inputs": [
        {
          "internalType": "bytes4",
          "name": "interfaceId",
          "type": "bytes4"
        }
      ],
      "name": "supportsInterface",
      "outputs": [
        {
          "internalType": "bool",
          "name": "",
          "type": "bool"
        }
      ],
      "stateMutability": "view",
      "type": "function"
    },
    {
      "inputs": [],
      "name": "sweetToken",
      "outputs": [
        {
          "internalType": "contract IERC20",
          "name": "",
          "type": "address"
        }
      ],
      "stateMutability": "view",
      "type": "function"
    },
    {
      "inputs": [],
      "name": "unlockPerMonth",
      "outputs": [
        {
          "internalType": "uint256",
          "name": "",
          "type": "uint256"
        }
      ],
      "stateMutability": "view",
      "type": "function"
    },
    {
      "inputs": [],
      "name": "unlockedTokens",
      "outputs": [
        {
          "internalType": "uint256",
          "name": "",
          "type": "uint256"
        }
      ],
      "stateMutability": "view",
      "type": "function"
    }
  ],
  "transactionHash": "0x803fa81d9aa0492ef83a86288fc544e1c29d408d88ce7e9ab4432b279a932cdc",
  "args": [
    "0xda0f4027e61C09F74ac67a763e196Ae22a163e1A",
    "0xE8EbCf4Fd1faa9B77c0ec0B26e7Cc32a251Cd799"
  ],
  "numDeployments": 2,
  "solcInputHash": "57506ffdf0a29676c1939ce434d77666",
  "bytecode": "0x60806040526a0fb768105935a2f30000006002556a0152d02c7e14af680000006005553480156200002f57600080fd5b50604051620010b2380380620010b28339810160408190526200005291620001e0565b6001600160a01b038116620000d35760405162461bcd60e51b815260206004820152603360248201527f53776565747061645465616d546f6b656e6f6d6963733a20546f6b656e20616460448201527f64726573732063616e2774206265207a65726f00000000000000000000000000606482015260840160405180910390fd5b620000e060008362000122565b600180546001600160a01b0319166001600160a01b0383161790556200010a61701c608c62000233565b62000116904362000218565b600655506200026b9050565b6000828152602081815260408083206001600160a01b038516845290915290205460ff16620001bf576000828152602081815260408083206001600160a01b03851684529091529020805460ff191660011790556200017e3390565b6001600160a01b0316816001600160a01b0316837f2f8788117e7eff1d82e926ec794901d17c78024a50270940304540a733656f0d60405160405180910390a45b5050565b80516001600160a01b0381168114620001db57600080fd5b919050565b60008060408385031215620001f457600080fd5b620001ff83620001c3565b91506200020f60208401620001c3565b90509250929050565b600082198211156200022e576200022e62000255565b500190565b600081600019048311821515161562000250576200025062000255565b500290565b634e487b7160e01b600052601160045260246000fd5b610e37806200027b6000396000f3fe608060405234801561001057600080fd5b506004361061010b5760003560e01c806391d14854116100a2578063abc88bda11610071578063abc88bda1461022c578063c409084a14610235578063c9ecd5671461023d578063d547741f14610246578063e74988d81461025957600080fd5b806391d14854146101bf57806394fa0aaf146101d25780639c26149f146101fd578063a217fddf1461022457600080fd5b80632f2ff15d116100de5780632f2ff15d1461017b57806336568abe14610190578063379607f5146101a357806348cd4cb1146101b657600080fd5b806301ffc9a7146101105780630d92e3e8146101385780630eb347401461014f578063248a9ca314610158575b600080fd5b61012361011e366004610c1a565b610261565b60405190151581526020015b60405180910390f35b61014160035481565b60405190815260200161012f565b61014160025481565b610141610166366004610bc5565b60009081526020819052604090206001015490565b61018e610189366004610bde565b610298565b005b61018e61019e366004610bde565b6102c2565b61018e6101b1366004610bc5565b610345565b61014160065481565b6101236101cd366004610bde565b610528565b6001546101e5906001600160a01b031681565b6040516001600160a01b03909116815260200161012f565b6101417f85faced7bde13e1a7dad704b895f006e704f207617d68166b31ba2d79624862d81565b610141600081565b61014160045481565b610141610551565b61014160055481565b61018e610254366004610bde565b610561565b610141610586565b60006001600160e01b03198216637965db0b60e01b148061029257506301ffc9a760e01b6001600160e01b03198316145b92915050565b6000828152602081905260409020600101546102b381610601565b6102bd838361060e565b505050565b6001600160a01b03811633146103375760405162461bcd60e51b815260206004820152602f60248201527f416363657373436f6e74726f6c3a2063616e206f6e6c792072656e6f756e636560448201526e103937b632b9903337b91039b2b63360891b60648201526084015b60405180910390fd5b6103418282610692565b5050565b7f85faced7bde13e1a7dad704b895f006e704f207617d68166b31ba2d79624862d61036f81610601565b61037c61701c601e610d42565b6006546103899190610d08565b4310156103ea5760405162461bcd60e51b815260206004820152602960248201527f53776565747061645465616d546f6b656e6f6d6963733a20546f6f20736f6f6e60448201526820746f20636c61696d60b81b606482015260840161032e565b816103f3610586565b101561045e5760405162461bcd60e51b815260206004820152603460248201527f53776565747061645465616d546f6b656e6f6d6963733a20496e73756666696360448201527369656e7420756e6c6f636b656420746f6b656e7360601b606482015260840161032e565b81610467610586565b6104719190610d61565b600460008282546104829190610d08565b909155506104909050610586565b600260008282546104a19190610d61565b9250508190555081600360008282546104ba9190610d08565b909155506104cd905061701c601e610d42565b6104da61701c601e610d42565b6006546104e79043610d61565b6104f19190610d20565b6104fb9190610d42565b6006600082825461050c9190610d08565b9091555050600154610341906001600160a01b031633846106f7565b6000918252602082815260408084206001600160a01b0393909316845291905290205460ff1690565b61055e61701c601e610d42565b81565b60008281526020819052604090206001015461057c81610601565b6102bd8383610692565b600060025460055461701c601e61059d9190610d42565b6006546105aa9043610d61565b6105b49190610d20565b6105be9190610d42565b11156105cb575060025490565b6005546105db61701c601e610d42565b6006546105e89043610d61565b6105f29190610d20565b6105fc9190610d42565b905090565b61060b8133610749565b50565b6106188282610528565b610341576000828152602081815260408083206001600160a01b03851684529091529020805460ff1916600117905561064e3390565b6001600160a01b0316816001600160a01b0316837f2f8788117e7eff1d82e926ec794901d17c78024a50270940304540a733656f0d60405160405180910390a45050565b61069c8282610528565b15610341576000828152602081815260408083206001600160a01b0385168085529252808320805460ff1916905551339285917ff6391f5c32d9c69d2a47ea670b442974b53935d1edc7fd64eb21e047a839171b9190a45050565b604080516001600160a01b038416602482015260448082018490528251808303909101815260649091019091526020810180516001600160e01b031663a9059cbb60e01b1790526102bd9084906107ad565b6107538282610528565b6103415761076b816001600160a01b0316601461087f565b61077683602061087f565b604051602001610787929190610c60565b60408051601f198184030181529082905262461bcd60e51b825261032e91600401610cd5565b6000610802826040518060400160405280602081526020017f5361666545524332303a206c6f772d6c6576656c2063616c6c206661696c6564815250856001600160a01b0316610a229092919063ffffffff16565b8051909150156102bd57808060200190518101906108209190610ba3565b6102bd5760405162461bcd60e51b815260206004820152602a60248201527f5361666545524332303a204552433230206f7065726174696f6e20646964206e6044820152691bdd081cdd58d8d9595960b21b606482015260840161032e565b6060600061088e836002610d42565b610899906002610d08565b67ffffffffffffffff8111156108b1576108b1610deb565b6040519080825280601f01601f1916602001820160405280156108db576020820181803683370190505b509050600360fc1b816000815181106108f6576108f6610dd5565b60200101906001600160f81b031916908160001a905350600f60fb1b8160018151811061092557610925610dd5565b60200101906001600160f81b031916908160001a9053506000610949846002610d42565b610954906001610d08565b90505b60018111156109cc576f181899199a1a9b1b9c1cb0b131b232b360811b85600f166010811061098857610988610dd5565b1a60f81b82828151811061099e5761099e610dd5565b60200101906001600160f81b031916908160001a90535060049490941c936109c581610da8565b9050610957565b508315610a1b5760405162461bcd60e51b815260206004820181905260248201527f537472696e67733a20686578206c656e67746820696e73756666696369656e74604482015260640161032e565b9392505050565b6060610a318484600085610a39565b949350505050565b606082471015610a9a5760405162461bcd60e51b815260206004820152602660248201527f416464726573733a20696e73756666696369656e742062616c616e636520666f6044820152651c8818d85b1b60d21b606482015260840161032e565b6001600160a01b0385163b610af15760405162461bcd60e51b815260206004820152601d60248201527f416464726573733a2063616c6c20746f206e6f6e2d636f6e7472616374000000604482015260640161032e565b600080866001600160a01b03168587604051610b0d9190610c44565b60006040518083038185875af1925050503d8060008114610b4a576040519150601f19603f3d011682016040523d82523d6000602084013e610b4f565b606091505b5091509150610b5f828286610b6a565b979650505050505050565b60608315610b79575081610a1b565b825115610b895782518084602001fd5b8160405162461bcd60e51b815260040161032e9190610cd5565b600060208284031215610bb557600080fd5b81518015158114610a1b57600080fd5b600060208284031215610bd757600080fd5b5035919050565b60008060408385031215610bf157600080fd5b8235915060208301356001600160a01b0381168114610c0f57600080fd5b809150509250929050565b600060208284031215610c2c57600080fd5b81356001600160e01b031981168114610a1b57600080fd5b60008251610c56818460208701610d78565b9190910192915050565b7f416363657373436f6e74726f6c3a206163636f756e7420000000000000000000815260008351610c98816017850160208801610d78565b7001034b99036b4b9b9b4b733903937b6329607d1b6017918401918201528351610cc9816028840160208801610d78565b01602801949350505050565b6020815260008251806020840152610cf4816040850160208701610d78565b601f01601f19169190910160400192915050565b60008219821115610d1b57610d1b610dbf565b500190565b600082610d3d57634e487b7160e01b600052601260045260246000fd5b500490565b6000816000190483118215151615610d5c57610d5c610dbf565b500290565b600082821015610d7357610d73610dbf565b500390565b60005b83811015610d93578181015183820152602001610d7b565b83811115610da2576000848401525b50505050565b600081610db757610db7610dbf565b506000190190565b634e487b7160e01b600052601160045260246000fd5b634e487b7160e01b600052603260045260246000fd5b634e487b7160e01b600052604160045260246000fdfea2646970667358221220751046fe29286ce9e0cd92b6e73f526ea0d2b693702e244096c4be7624b695fc64736f6c63430008070033",
  "devdoc": {
    "kind": "dev",
    "methods": {
      "getRoleAdmin(bytes32)": {
        "details": "Returns the admin role that controls `role`. See {grantRole} and {revokeRole}. To change a role's admin, use {_setRoleAdmin}."
      },
      "grantRole(bytes32,address)": {
        "details": "Grants `role` to `account`. If `account` had not been already granted `role`, emits a {RoleGranted} event. Requirements: - the caller must have ``role``'s admin role."
      },
      "hasRole(bytes32,address)": {
        "details": "Returns `true` if `account` has been granted `role`."
      },
      "renounceRole(bytes32,address)": {
        "details": "Revokes `role` from the calling account. Roles are often managed via {grantRole} and {revokeRole}: this function's purpose is to provide a mechanism for accounts to lose their privileges if they are compromised (such as when a trusted device is misplaced). If the calling account had been revoked `role`, emits a {RoleRevoked} event. Requirements: - the caller must be `account`."
      },
      "revokeRole(bytes32,address)": {
        "details": "Revokes `role` from `account`. If `account` had been granted `role`, emits a {RoleRevoked} event. Requirements: - the caller must have ``role``'s admin role."
      },
      "supportsInterface(bytes4)": {
        "details": "See {IERC165-supportsInterface}."
      }
    },
    "version": 1
  },
  "userdoc": {
    "kind": "user",
    "methods": {},
    "version": 1
  },
  "storageLayout": {
    "storage": [
      {
        "astId": 24,
        "contract": "contracts/SweetpadTeamTokenomics.sol:SweetpadTeamTokenomics",
        "label": "_roles",
        "offset": 0,
        "slot": "0",
        "type": "t_mapping(t_bytes32,t_struct(RoleData)19_storage)"
      },
      {
        "astId": 2698,
        "contract": "contracts/SweetpadTeamTokenomics.sol:SweetpadTeamTokenomics",
        "label": "sweetToken",
        "offset": 0,
        "slot": "1",
        "type": "t_contract(IERC20)592"
      },
      {
        "astId": 2707,
        "contract": "contracts/SweetpadTeamTokenomics.sol:SweetpadTeamTokenomics",
        "label": "lockedTokens",
        "offset": 0,
        "slot": "2",
        "type": "t_uint256"
      },
      {
        "astId": 2709,
        "contract": "contracts/SweetpadTeamTokenomics.sol:SweetpadTeamTokenomics",
        "label": "claimedTokens",
        "offset": 0,
        "slot": "3",
        "type": "t_uint256"
      },
      {
        "astId": 2711,
        "contract": "contracts/SweetpadTeamTokenomics.sol:SweetpadTeamTokenomics",
        "label": "unlockedTokens",
        "offset": 0,
        "slot": "4",
        "type": "t_uint256"
      },
      {
        "astId": 2714,
        "contract": "contracts/SweetpadTeamTokenomics.sol:SweetpadTeamTokenomics",
        "label": "unlockPerMonth",
        "offset": 0,
        "slot": "5",
        "type": "t_uint256"
      },
      {
        "astId": 2724,
        "contract": "contracts/SweetpadTeamTokenomics.sol:SweetpadTeamTokenomics",
        "label": "startBlock",
        "offset": 0,
        "slot": "6",
        "type": "t_uint256"
      }
    ],
    "types": {
      "t_address": {
        "encoding": "inplace",
        "label": "address",
        "numberOfBytes": "20"
      },
      "t_bool": {
        "encoding": "inplace",
        "label": "bool",
        "numberOfBytes": "1"
      },
      "t_bytes32": {
        "encoding": "inplace",
        "label": "bytes32",
        "numberOfBytes": "32"
      },
      "t_contract(IERC20)592": {
        "encoding": "inplace",
        "label": "contract IERC20",
        "numberOfBytes": "20"
      },
      "t_mapping(t_address,t_bool)": {
        "encoding": "mapping",
        "key": "t_address",
        "label": "mapping(address => bool)",
        "numberOfBytes": "32",
        "value": "t_bool"
      },
      "t_mapping(t_bytes32,t_struct(RoleData)19_storage)": {
        "encoding": "mapping",
        "key": "t_bytes32",
        "label": "mapping(bytes32 => struct AccessControl.RoleData)",
        "numberOfBytes": "32",
        "value": "t_struct(RoleData)19_storage"
      },
      "t_struct(RoleData)19_storage": {
        "encoding": "inplace",
        "label": "struct AccessControl.RoleData",
        "members": [
          {
            "astId": 16,
            "contract": "contracts/SweetpadTeamTokenomics.sol:SweetpadTeamTokenomics",
            "label": "members",
            "offset": 0,
            "slot": "0",
            "type": "t_mapping(t_address,t_bool)"
          },
          {
            "astId": 18,
            "contract": "contracts/SweetpadTeamTokenomics.sol:SweetpadTeamTokenomics",
            "label": "adminRole",
            "offset": 0,
            "slot": "1",
            "type": "t_bytes32"
          }
        ],
        "numberOfBytes": "64"
      },
      "t_uint256": {
        "encoding": "inplace",
        "label": "uint256",
        "numberOfBytes": "32"
      }
    }
  }
}