{
  "address": "0xe394eEA0F626c7Bf2BDf3a3f25300083913748E0",
  "abi": [
    {
      "inputs": [
        {
          "internalType": "contract ISweetpadNFT",
          "name": "sweetpadNFT_",
          "type": "address"
        }
      ],
      "stateMutability": "nonpayable",
      "type": "constructor"
    },
    {
      "anonymous": false,
      "inputs": [
        {
          "indexed": true,
          "internalType": "address",
          "name": "owner",
          "type": "address"
        },
        {
          "indexed": true,
          "internalType": "address",
          "name": "approved",
          "type": "address"
        },
        {
          "indexed": true,
          "internalType": "uint256",
          "name": "tokenId",
          "type": "uint256"
        }
      ],
      "name": "Approval",
      "type": "event"
    },
    {
      "anonymous": false,
      "inputs": [
        {
          "indexed": true,
          "internalType": "address",
          "name": "owner",
          "type": "address"
        },
        {
          "indexed": true,
          "internalType": "address",
          "name": "operator",
          "type": "address"
        },
        {
          "indexed": false,
          "internalType": "bool",
          "name": "approved",
          "type": "bool"
        }
      ],
      "name": "ApprovalForAll",
      "type": "event"
    },
    {
      "anonymous": false,
      "inputs": [
        {
          "indexed": true,
          "internalType": "address",
          "name": "previousOwner",
          "type": "address"
        },
        {
          "indexed": true,
          "internalType": "address",
          "name": "newOwner",
          "type": "address"
        }
      ],
      "name": "OwnershipTransferred",
      "type": "event"
    },
    {
      "anonymous": false,
      "inputs": [
        {
          "indexed": true,
          "internalType": "address",
          "name": "from",
          "type": "address"
        },
        {
          "indexed": true,
          "internalType": "address",
          "name": "to",
          "type": "address"
        },
        {
          "indexed": true,
          "internalType": "uint256",
          "name": "tokenId",
          "type": "uint256"
        }
      ],
      "name": "Transfer",
      "type": "event"
    },
    {
      "inputs": [
        {
          "internalType": "address",
          "name": "to",
          "type": "address"
        },
        {
          "internalType": "uint256",
          "name": "tokenId",
          "type": "uint256"
        }
      ],
      "name": "approve",
      "outputs": [],
      "stateMutability": "nonpayable",
      "type": "function"
    },
    {
      "inputs": [
        {
          "internalType": "address",
          "name": "owner",
          "type": "address"
        }
      ],
      "name": "balanceOf",
      "outputs": [
        {
          "internalType": "uint256",
          "name": "",
          "type": "uint256"
        }
      ],
      "stateMutability": "view",
      "type": "function"
    },
    {
      "inputs": [
        {
          "internalType": "address",
          "name": "",
          "type": "address"
        }
      ],
      "name": "currentId",
      "outputs": [
        {
          "internalType": "uint256",
          "name": "",
          "type": "uint256"
        }
      ],
      "stateMutability": "view",
      "type": "function"
    },
    {
      "inputs": [
        {
          "internalType": "uint256",
          "name": "tokenId",
          "type": "uint256"
        }
      ],
      "name": "getApproved",
      "outputs": [
        {
          "internalType": "address",
          "name": "",
          "type": "address"
        }
      ],
      "stateMutability": "view",
      "type": "function"
    },
    {
      "inputs": [
        {
          "internalType": "address",
          "name": "owner",
          "type": "address"
        },
        {
          "internalType": "address",
          "name": "operator",
          "type": "address"
        }
      ],
      "name": "isApprovedForAll",
      "outputs": [
        {
          "internalType": "bool",
          "name": "",
          "type": "bool"
        }
      ],
      "stateMutability": "view",
      "type": "function"
    },
    {
      "inputs": [
        {
          "internalType": "address",
          "name": "to_",
          "type": "address"
        },
        {
          "internalType": "uint256",
          "name": "amount_",
          "type": "uint256"
        },
        {
          "internalType": "address",
          "name": "sweetpadIdo_",
          "type": "address"
        }
      ],
      "name": "mint",
      "outputs": [],
      "stateMutability": "nonpayable",
      "type": "function"
    },
    {
      "inputs": [],
      "name": "name",
      "outputs": [
        {
          "internalType": "string",
          "name": "",
          "type": "string"
        }
      ],
      "stateMutability": "view",
      "type": "function"
    },
    {
      "inputs": [],
      "name": "nftFreezing",
      "outputs": [
        {
          "internalType": "contract ISweetpadNFTFreezing",
          "name": "",
          "type": "address"
        }
      ],
      "stateMutability": "view",
      "type": "function"
    },
    {
      "inputs": [],
      "name": "owner",
      "outputs": [
        {
          "internalType": "address",
          "name": "",
          "type": "address"
        }
      ],
      "stateMutability": "view",
      "type": "function"
    },
    {
      "inputs": [
        {
          "internalType": "uint256",
          "name": "tokenId",
          "type": "uint256"
        }
      ],
      "name": "ownerOf",
      "outputs": [
        {
          "internalType": "address",
          "name": "",
          "type": "address"
        }
      ],
      "stateMutability": "view",
      "type": "function"
    },
    {
      "inputs": [],
      "name": "renounceOwnership",
      "outputs": [],
      "stateMutability": "nonpayable",
      "type": "function"
    },
    {
      "inputs": [
        {
          "internalType": "address",
          "name": "from",
          "type": "address"
        },
        {
          "internalType": "address",
          "name": "to",
          "type": "address"
        },
        {
          "internalType": "uint256",
          "name": "tokenId",
          "type": "uint256"
        }
      ],
      "name": "safeTransferFrom",
      "outputs": [],
      "stateMutability": "nonpayable",
      "type": "function"
    },
    {
      "inputs": [
        {
          "internalType": "address",
          "name": "from",
          "type": "address"
        },
        {
          "internalType": "address",
          "name": "to",
          "type": "address"
        },
        {
          "internalType": "uint256",
          "name": "tokenId",
          "type": "uint256"
        },
        {
          "internalType": "bytes",
          "name": "_data",
          "type": "bytes"
        }
      ],
      "name": "safeTransferFrom",
      "outputs": [],
      "stateMutability": "nonpayable",
      "type": "function"
    },
    {
      "inputs": [
        {
          "internalType": "address",
          "name": "operator",
          "type": "address"
        },
        {
          "internalType": "bool",
          "name": "approved",
          "type": "bool"
        }
      ],
      "name": "setApprovalForAll",
      "outputs": [],
      "stateMutability": "nonpayable",
      "type": "function"
    },
    {
      "inputs": [
        {
          "internalType": "contract ISweetpadNFTFreezing",
          "name": "nftFreezing_",
          "type": "address"
        }
      ],
      "name": "setNFTFreezing",
      "outputs": [],
      "stateMutability": "nonpayable",
      "type": "function"
    },
    {
      "inputs": [
        {
          "internalType": "bytes4",
          "name": "interfaceId",
          "type": "bytes4"
        }
      ],
      "name": "supportsInterface",
      "outputs": [
        {
          "internalType": "bool",
          "name": "",
          "type": "bool"
        }
      ],
      "stateMutability": "view",
      "type": "function"
    },
    {
      "inputs": [],
      "name": "sweetpadNFT",
      "outputs": [
        {
          "internalType": "contract ISweetpadNFT",
          "name": "",
          "type": "address"
        }
      ],
      "stateMutability": "view",
      "type": "function"
    },
    {
      "inputs": [],
      "name": "symbol",
      "outputs": [
        {
          "internalType": "string",
          "name": "",
          "type": "string"
        }
      ],
      "stateMutability": "view",
      "type": "function"
    },
    {
      "inputs": [
        {
          "internalType": "uint256",
          "name": "tokenId",
          "type": "uint256"
        }
      ],
      "name": "tokenURI",
      "outputs": [
        {
          "internalType": "string",
          "name": "",
          "type": "string"
        }
      ],
      "stateMutability": "view",
      "type": "function"
    },
    {
      "inputs": [],
      "name": "totalTickets",
      "outputs": [
        {
          "internalType": "uint256",
          "name": "",
          "type": "uint256"
        }
      ],
      "stateMutability": "view",
      "type": "function"
    },
    {
      "inputs": [
        {
          "internalType": "address",
          "name": "",
          "type": "address"
        },
        {
          "internalType": "address",
          "name": "",
          "type": "address"
        },
        {
          "internalType": "uint256",
          "name": "",
          "type": "uint256"
        }
      ],
      "name": "transferFrom",
      "outputs": [],
      "stateMutability": "nonpayable",
      "type": "function"
    },
    {
      "inputs": [
        {
          "internalType": "address",
          "name": "newOwner",
          "type": "address"
        }
      ],
      "name": "transferOwnership",
      "outputs": [],
      "stateMutability": "nonpayable",
      "type": "function"
    }
  ],
  "transactionHash": "0x53f8283e3751e753fd3be7794e2e421dc52a58e52701a6b9802e2d270450550a",
  "args": [
    "0xC19E1a05c3dcfc34111F490507852dB2753Fd04c"
  ],
  "numDeployments": 5,
  "solcInputHash": "964b5d185d394f6fec46a7da5c21033a",
  "bytecode": "0x60806040523480156200001157600080fd5b5060405162001a2138038062001a218339810160408190526200003491620001d9565b604080518082018252600c81526b14ddd9595d08151a58dad95d60a21b60208083019182528351808501909452600484526314d5d51560e21b908401528151919291620000849160009162000133565b5080516200009a90600190602084019062000133565b505050620000b7620000b1620000dd60201b60201c565b620000e1565b600880546001600160a01b0319166001600160a01b039290921691909117905562000248565b3390565b600680546001600160a01b038381166001600160a01b0319831681179093556040519116919082907f8be0079c531659141344cd1fd0a4f28419497f9722a3daafe3b4186f6b6457e090600090a35050565b82805462000141906200020b565b90600052602060002090601f016020900481019282620001655760008555620001b0565b82601f106200018057805160ff1916838001178555620001b0565b82800160010185558215620001b0579182015b82811115620001b057825182559160200191906001019062000193565b50620001be929150620001c2565b5090565b5b80821115620001be5760008155600101620001c3565b600060208284031215620001ec57600080fd5b81516001600160a01b03811681146200020457600080fd5b9392505050565b600181811c908216806200022057607f821691505b602082108114156200024257634e487b7160e01b600052602260045260246000fd5b50919050565b6117c980620002586000396000f3fe608060405234801561001057600080fd5b50600436106101425760003560e01c80636352211e116100b8578063a22cb4651161007c578063a22cb465146102ab578063b88d4fde146102be578063c87b56dd146102d1578063dd11247e146102e4578063e985e9c5146102ed578063f2fde38b1461032957600080fd5b80636352211e1461026457806370a0823114610277578063715018a61461028a5780638da5cb5b1461029257806395d89b41146102a357600080fd5b80632299b8fa1161010a5780632299b8fa146101d757806323b872dd1461020557806330cb1f73146102185780633a3bfc1b1461022b57806342842e0e1461023e57806354769a8b1461025157600080fd5b806301ffc9a71461014757806306fdde031461016f578063081812fc14610184578063095ea7b3146101af5780630d4d1513146101c4575b600080fd5b61015a6101553660046114b2565b61033c565b60405190151581526020015b60405180910390f35b61017761038e565b604051610166919061159d565b6101976101923660046114ec565b610420565b6040516001600160a01b039091168152602001610166565b6101c26101bd366004611444565b6104ba565b005b6101c26101d2366004611470565b6105d0565b6101f76101e536600461129a565b600a6020526000908152604090205481565b604051908152602001610166565b6101c26102133660046112f0565b6106e9565b6101c261022636600461129a565b610740565b600854610197906001600160a01b031681565b6101c261024c3660046112f0565b61078c565b600954610197906001600160a01b031681565b6101976102723660046114ec565b6107a7565b6101f761028536600461129a565b61081e565b6101c26108a5565b6006546001600160a01b0316610197565b6101776108db565b6101c26102b9366004611411565b6108ea565b6101c26102cc366004611331565b6108f9565b6101776102df3660046114ec565b610975565b6101f760075481565b61015a6102fb3660046112b7565b6001600160a01b03918216600090815260056020908152604080832093909416825291909152205460ff1690565b6101c261033736600461129a565b610a5d565b60006001600160e01b031982166380ac58cd60e01b148061036d57506001600160e01b03198216635b5e139f60e01b145b8061038857506301ffc9a760e01b6001600160e01b03198316145b92915050565b60606000805461039d906116a6565b80601f01602080910402602001604051908101604052809291908181526020018280546103c9906116a6565b80156104165780601f106103eb57610100808354040283529160200191610416565b820191906000526020600020905b8154815290600101906020018083116103f957829003601f168201915b5050505050905090565b6000818152600260205260408120546001600160a01b031661049e5760405162461bcd60e51b815260206004820152602c60248201527f4552433732313a20617070726f76656420717565727920666f72206e6f6e657860448201526b34b9ba32b73a103a37b5b2b760a11b60648201526084015b60405180910390fd5b506000908152600460205260409020546001600160a01b031690565b60006104c5826107a7565b9050806001600160a01b0316836001600160a01b031614156105335760405162461bcd60e51b815260206004820152602160248201527f4552433732313a20617070726f76616c20746f2063757272656e74206f776e656044820152603960f91b6064820152608401610495565b336001600160a01b038216148061054f575061054f81336102fb565b6105c15760405162461bcd60e51b815260206004820152603860248201527f4552433732313a20617070726f76652063616c6c6572206973206e6f74206f7760448201527f6e6572206e6f7220617070726f76656420666f7220616c6c00000000000000006064820152608401610495565b6105cb8383610af8565b505050565b6006546001600160a01b031633146105fa5760405162461bcd60e51b815260040161049590611602565b60005b828110156106e3576001600160a01b0382166000908152600a60205260408120805491610629836116e1565b90915550506001600160a01b0382166000908152600a6020526040902054610652908590610b66565b6009546001600160a01b038381166000818152600a60205260409081902054905163b5264e3960e01b815288841660048201526024810192909252604482015291169063b5264e3990606401600060405180830381600087803b1580156106b857600080fd5b505af11580156106cc573d6000803e3d6000fd5b5050505080806106db906116e1565b9150506105fd565b50505050565b60405162461bcd60e51b815260206004820152602660248201527f53776565747061645469636b65743a2063616e2774207472616e73666572207460448201526569636b65747360d01b6064820152608401610495565b6006546001600160a01b0316331461076a5760405162461bcd60e51b815260040161049590611602565b600980546001600160a01b0319166001600160a01b0392909216919091179055565b6105cb838383604051806020016040528060008152506108f9565b6000818152600260205260408120546001600160a01b0316806103885760405162461bcd60e51b815260206004820152602960248201527f4552433732313a206f776e657220717565727920666f72206e6f6e657869737460448201526832b73a103a37b5b2b760b91b6064820152608401610495565b60006001600160a01b0382166108895760405162461bcd60e51b815260206004820152602a60248201527f4552433732313a2062616c616e636520717565727920666f7220746865207a65604482015269726f206164647265737360b01b6064820152608401610495565b506001600160a01b031660009081526003602052604090205490565b6006546001600160a01b031633146108cf5760405162461bcd60e51b815260040161049590611602565b6108d96000610ca8565b565b60606001805461039d906116a6565b6108f5338383610cfa565b5050565b6109033383610dc9565b6109695760405162461bcd60e51b815260206004820152603160248201527f4552433732313a207472616e736665722063616c6c6572206973206e6f74206f6044820152701ddb995c881b9bdc88185c1c1c9bdd9959607a1b6064820152608401610495565b6106e384848484610ec0565b6000818152600260205260409020546060906001600160a01b03166109f45760405162461bcd60e51b815260206004820152602f60248201527f4552433732314d657461646174613a2055524920717565727920666f72206e6f60448201526e3732bc34b9ba32b73a103a37b5b2b760891b6064820152608401610495565b6000610a0b60408051602081019091526000815290565b90506000815111610a2b5760405180602001604052806000815250610a56565b80610a3584610ef3565b604051602001610a46929190611531565b6040516020818303038152906040525b9392505050565b6006546001600160a01b03163314610a875760405162461bcd60e51b815260040161049590611602565b6001600160a01b038116610aec5760405162461bcd60e51b815260206004820152602660248201527f4f776e61626c653a206e6577206f776e657220697320746865207a65726f206160448201526564647265737360d01b6064820152608401610495565b610af581610ca8565b50565b600081815260046020526040902080546001600160a01b0319166001600160a01b0384169081179091558190610b2d826107a7565b6001600160a01b03167f8c5be1e5ebec7d5bd14f71427d1e84f3dd0314c0f7b2291e5b200ac8c7c3b92560405160405180910390a45050565b6001600160a01b038216610bbc5760405162461bcd60e51b815260206004820181905260248201527f4552433732313a206d696e7420746f20746865207a65726f20616464726573736044820152606401610495565b6000818152600260205260409020546001600160a01b031615610c215760405162461bcd60e51b815260206004820152601c60248201527f4552433732313a20746f6b656e20616c7265616479206d696e746564000000006044820152606401610495565b6001600160a01b0382166000908152600360205260408120805460019290610c4a908490611637565b909155505060008181526002602052604080822080546001600160a01b0319166001600160a01b03861690811790915590518392907fddf252ad1be2c89b69c2b068fc378daa952ba7f163c4a11628f55a4df523b3ef908290a45050565b600680546001600160a01b038381166001600160a01b0319831681179093556040519116919082907f8be0079c531659141344cd1fd0a4f28419497f9722a3daafe3b4186f6b6457e090600090a35050565b816001600160a01b0316836001600160a01b03161415610d5c5760405162461bcd60e51b815260206004820152601960248201527f4552433732313a20617070726f766520746f2063616c6c6572000000000000006044820152606401610495565b6001600160a01b03838116600081815260056020908152604080832094871680845294825291829020805460ff191686151590811790915591519182527f17307eab39ab6107e8899845ad3d59bd9653f200f220920489ca2b5937696c31910160405180910390a3505050565b6000818152600260205260408120546001600160a01b0316610e425760405162461bcd60e51b815260206004820152602c60248201527f4552433732313a206f70657261746f7220717565727920666f72206e6f6e657860448201526b34b9ba32b73a103a37b5b2b760a11b6064820152608401610495565b6000610e4d836107a7565b9050806001600160a01b0316846001600160a01b03161480610e9457506001600160a01b0380821660009081526005602090815260408083209388168352929052205460ff165b80610eb85750836001600160a01b0316610ead84610420565b6001600160a01b0316145b949350505050565b610ecb848484610ff1565b610ed78484848461118d565b6106e35760405162461bcd60e51b8152600401610495906115b0565b606081610f175750506040805180820190915260018152600360fc1b602082015290565b8160005b8115610f415780610f2b816116e1565b9150610f3a9050600a8361164f565b9150610f1b565b60008167ffffffffffffffff811115610f5c57610f5c611752565b6040519080825280601f01601f191660200182016040528015610f86576020820181803683370190505b5090505b8415610eb857610f9b600183611663565b9150610fa8600a866116fc565b610fb3906030611637565b60f81b818381518110610fc857610fc861173c565b60200101906001600160f81b031916908160001a905350610fea600a8661164f565b9450610f8a565b826001600160a01b0316611004826107a7565b6001600160a01b0316146110685760405162461bcd60e51b815260206004820152602560248201527f4552433732313a207472616e736665722066726f6d20696e636f72726563742060448201526437bbb732b960d91b6064820152608401610495565b6001600160a01b0382166110ca5760405162461bcd60e51b8152602060048201526024808201527f4552433732313a207472616e7366657220746f20746865207a65726f206164646044820152637265737360e01b6064820152608401610495565b6110d5600082610af8565b6001600160a01b03831660009081526003602052604081208054600192906110fe908490611663565b90915550506001600160a01b038216600090815260036020526040812080546001929061112c908490611637565b909155505060008181526002602052604080822080546001600160a01b0319166001600160a01b0386811691821790925591518493918716917fddf252ad1be2c89b69c2b068fc378daa952ba7f163c4a11628f55a4df523b3ef91a4505050565b60006001600160a01b0384163b1561128f57604051630a85bd0160e11b81526001600160a01b0385169063150b7a02906111d1903390899088908890600401611560565b602060405180830381600087803b1580156111eb57600080fd5b505af192505050801561121b575060408051601f3d908101601f19168201909252611218918101906114cf565b60015b611275573d808015611249576040519150601f19603f3d011682016040523d82523d6000602084013e61124e565b606091505b50805161126d5760405162461bcd60e51b8152600401610495906115b0565b805181602001fd5b6001600160e01b031916630a85bd0160e11b149050610eb8565b506001949350505050565b6000602082840312156112ac57600080fd5b8135610a5681611768565b600080604083850312156112ca57600080fd5b82356112d581611768565b915060208301356112e581611768565b809150509250929050565b60008060006060848603121561130557600080fd5b833561131081611768565b9250602084013561132081611768565b929592945050506040919091013590565b6000806000806080858703121561134757600080fd5b843561135281611768565b9350602085013561136281611768565b925060408501359150606085013567ffffffffffffffff8082111561138657600080fd5b818701915087601f83011261139a57600080fd5b8135818111156113ac576113ac611752565b604051601f8201601f19908116603f011681019083821181831017156113d4576113d4611752565b816040528281528a60208487010111156113ed57600080fd5b82602086016020830137600060208483010152809550505050505092959194509250565b6000806040838503121561142457600080fd5b823561142f81611768565b9150602083013580151581146112e557600080fd5b6000806040838503121561145757600080fd5b823561146281611768565b946020939093013593505050565b60008060006060848603121561148557600080fd5b833561149081611768565b92506020840135915060408401356114a781611768565b809150509250925092565b6000602082840312156114c457600080fd5b8135610a568161177d565b6000602082840312156114e157600080fd5b8151610a568161177d565b6000602082840312156114fe57600080fd5b5035919050565b6000815180845261151d81602086016020860161167a565b601f01601f19169290920160200192915050565b6000835161154381846020880161167a565b83519083019061155781836020880161167a565b01949350505050565b6001600160a01b038581168252841660208201526040810183905260806060820181905260009061159390830184611505565b9695505050505050565b602081526000610a566020830184611505565b60208082526032908201527f4552433732313a207472616e7366657220746f206e6f6e20455243373231526560408201527131b2b4bb32b91034b6b83632b6b2b73a32b960711b606082015260800190565b6020808252818101527f4f776e61626c653a2063616c6c6572206973206e6f7420746865206f776e6572604082015260600190565b6000821982111561164a5761164a611710565b500190565b60008261165e5761165e611726565b500490565b60008282101561167557611675611710565b500390565b60005b8381101561169557818101518382015260200161167d565b838111156106e35750506000910152565b600181811c908216806116ba57607f821691505b602082108114156116db57634e487b7160e01b600052602260045260246000fd5b50919050565b60006000198214156116f5576116f5611710565b5060010190565b60008261170b5761170b611726565b500690565b634e487b7160e01b600052601160045260246000fd5b634e487b7160e01b600052601260045260246000fd5b634e487b7160e01b600052603260045260246000fd5b634e487b7160e01b600052604160045260246000fd5b6001600160a01b0381168114610af557600080fd5b6001600160e01b031981168114610af557600080fdfea2646970667358221220c56179211ed0894044994484b4b64dfd1d161845b1034e163945898843e35d8a64736f6c63430008070033",
  "devdoc": {
    "kind": "dev",
    "methods": {
      "approve(address,uint256)": {
        "details": "See {IERC721-approve}."
      },
      "balanceOf(address)": {
        "details": "See {IERC721-balanceOf}."
      },
      "getApproved(uint256)": {
        "details": "See {IERC721-getApproved}."
      },
      "isApprovedForAll(address,address)": {
        "details": "See {IERC721-isApprovedForAll}."
      },
      "name()": {
        "details": "See {IERC721Metadata-name}."
      },
      "owner()": {
        "details": "Returns the address of the current owner."
      },
      "ownerOf(uint256)": {
        "details": "See {IERC721-ownerOf}."
      },
      "renounceOwnership()": {
        "details": "Leaves the contract without owner. It will not be possible to call `onlyOwner` functions anymore. Can only be called by the current owner. NOTE: Renouncing ownership will leave the contract without an owner, thereby removing any functionality that is only available to the owner."
      },
      "safeTransferFrom(address,address,uint256)": {
        "details": "See {IERC721-safeTransferFrom}."
      },
      "safeTransferFrom(address,address,uint256,bytes)": {
        "details": "See {IERC721-safeTransferFrom}."
      },
      "setApprovalForAll(address,bool)": {
        "details": "See {IERC721-setApprovalForAll}."
      },
      "supportsInterface(bytes4)": {
        "details": "See {IERC165-supportsInterface}."
      },
      "symbol()": {
        "details": "See {IERC721Metadata-symbol}."
      },
      "tokenURI(uint256)": {
        "details": "See {IERC721Metadata-tokenURI}."
      },
      "transferOwnership(address)": {
        "details": "Transfers ownership of the contract to a new account (`newOwner`). Can only be called by the current owner."
      }
    },
    "version": 1
  },
  "userdoc": {
    "kind": "user",
    "methods": {},
    "version": 1
  },
  "storageLayout": {
    "storage": [
      {
        "astId": 1436,
        "contract": "contracts/SweetpadTicket.sol:SweetpadTicket",
        "label": "_name",
        "offset": 0,
        "slot": "0",
        "type": "t_string_storage"
      },
      {
        "astId": 1438,
        "contract": "contracts/SweetpadTicket.sol:SweetpadTicket",
        "label": "_symbol",
        "offset": 0,
        "slot": "1",
        "type": "t_string_storage"
      },
      {
        "astId": 1442,
        "contract": "contracts/SweetpadTicket.sol:SweetpadTicket",
        "label": "_owners",
        "offset": 0,
        "slot": "2",
        "type": "t_mapping(t_uint256,t_address)"
      },
      {
        "astId": 1446,
        "contract": "contracts/SweetpadTicket.sol:SweetpadTicket",
        "label": "_balances",
        "offset": 0,
        "slot": "3",
        "type": "t_mapping(t_address,t_uint256)"
      },
      {
        "astId": 1450,
        "contract": "contracts/SweetpadTicket.sol:SweetpadTicket",
        "label": "_tokenApprovals",
        "offset": 0,
        "slot": "4",
        "type": "t_mapping(t_uint256,t_address)"
      },
      {
        "astId": 1456,
        "contract": "contracts/SweetpadTicket.sol:SweetpadTicket",
        "label": "_operatorApprovals",
        "offset": 0,
        "slot": "5",
        "type": "t_mapping(t_address,t_mapping(t_address,t_bool))"
      },
      {
        "astId": 400,
        "contract": "contracts/SweetpadTicket.sol:SweetpadTicket",
        "label": "_owner",
        "offset": 0,
        "slot": "6",
        "type": "t_address"
      },
      {
        "astId": 8065,
        "contract": "contracts/SweetpadTicket.sol:SweetpadTicket",
        "label": "totalTickets",
        "offset": 0,
        "slot": "7",
        "type": "t_uint256"
      },
      {
        "astId": 8068,
        "contract": "contracts/SweetpadTicket.sol:SweetpadTicket",
        "label": "sweetpadNFT",
        "offset": 0,
        "slot": "8",
        "type": "t_contract(ISweetpadNFT)8517"
      },
      {
        "astId": 8071,
        "contract": "contracts/SweetpadTicket.sol:SweetpadTicket",
        "label": "nftFreezing",
        "offset": 0,
        "slot": "9",
        "type": "t_contract(ISweetpadNFTFreezing)8675"
      },
      {
        "astId": 8083,
        "contract": "contracts/SweetpadTicket.sol:SweetpadTicket",
        "label": "currentId",
        "offset": 0,
        "slot": "10",
        "type": "t_mapping(t_address,t_uint256)"
      }
    ],
    "types": {
      "t_address": {
        "encoding": "inplace",
        "label": "address",
        "numberOfBytes": "20"
      },
      "t_bool": {
        "encoding": "inplace",
        "label": "bool",
        "numberOfBytes": "1"
      },
      "t_contract(ISweetpadNFT)8517": {
        "encoding": "inplace",
        "label": "contract ISweetpadNFT",
        "numberOfBytes": "20"
      },
      "t_contract(ISweetpadNFTFreezing)8675": {
        "encoding": "inplace",
        "label": "contract ISweetpadNFTFreezing",
        "numberOfBytes": "20"
      },
      "t_mapping(t_address,t_bool)": {
        "encoding": "mapping",
        "key": "t_address",
        "label": "mapping(address => bool)",
        "numberOfBytes": "32",
        "value": "t_bool"
      },
      "t_mapping(t_address,t_mapping(t_address,t_bool))": {
        "encoding": "mapping",
        "key": "t_address",
        "label": "mapping(address => mapping(address => bool))",
        "numberOfBytes": "32",
        "value": "t_mapping(t_address,t_bool)"
      },
      "t_mapping(t_address,t_uint256)": {
        "encoding": "mapping",
        "key": "t_address",
        "label": "mapping(address => uint256)",
        "numberOfBytes": "32",
        "value": "t_uint256"
      },
      "t_mapping(t_uint256,t_address)": {
        "encoding": "mapping",
        "key": "t_uint256",
        "label": "mapping(uint256 => address)",
        "numberOfBytes": "32",
        "value": "t_address"
      },
      "t_string_storage": {
        "encoding": "bytes",
        "label": "string",
        "numberOfBytes": "32"
      },
      "t_uint256": {
        "encoding": "inplace",
        "label": "uint256",
        "numberOfBytes": "32"
      }
    }
  }
}