{
  "address": "0xC7dF30f8caE631F8dE3ca6699703C3EA22063eb5",
  "abi": [
    {
      "anonymous": false,
      "inputs": [
        {
          "indexed": true,
          "internalType": "address",
          "name": "account",
          "type": "address"
        },
        {
          "indexed": true,
          "internalType": "address",
          "name": "operator",
          "type": "address"
        },
        {
          "indexed": false,
          "internalType": "bool",
          "name": "approved",
          "type": "bool"
        }
      ],
      "name": "ApprovalForAll",
      "type": "event"
    },
    {
      "anonymous": false,
      "inputs": [
        {
          "indexed": true,
          "internalType": "address",
          "name": "previousOwner",
          "type": "address"
        },
        {
          "indexed": true,
          "internalType": "address",
          "name": "newOwner",
          "type": "address"
        }
      ],
      "name": "OwnershipTransferred",
      "type": "event"
    },
    {
      "anonymous": false,
      "inputs": [
        {
          "indexed": true,
          "internalType": "address",
          "name": "operator",
          "type": "address"
        },
        {
          "indexed": true,
          "internalType": "address",
          "name": "from",
          "type": "address"
        },
        {
          "indexed": true,
          "internalType": "address",
          "name": "to",
          "type": "address"
        },
        {
          "indexed": false,
          "internalType": "uint256[]",
          "name": "ids",
          "type": "uint256[]"
        },
        {
          "indexed": false,
          "internalType": "uint256[]",
          "name": "values",
          "type": "uint256[]"
        }
      ],
      "name": "TransferBatch",
      "type": "event"
    },
    {
      "anonymous": false,
      "inputs": [
        {
          "indexed": true,
          "internalType": "address",
          "name": "operator",
          "type": "address"
        },
        {
          "indexed": true,
          "internalType": "address",
          "name": "from",
          "type": "address"
        },
        {
          "indexed": true,
          "internalType": "address",
          "name": "to",
          "type": "address"
        },
        {
          "indexed": false,
          "internalType": "uint256",
          "name": "id",
          "type": "uint256"
        },
        {
          "indexed": false,
          "internalType": "uint256",
          "name": "value",
          "type": "uint256"
        }
      ],
      "name": "TransferSingle",
      "type": "event"
    },
    {
      "anonymous": false,
      "inputs": [
        {
          "indexed": false,
          "internalType": "string",
          "name": "value",
          "type": "string"
        },
        {
          "indexed": true,
          "internalType": "uint256",
          "name": "id",
          "type": "uint256"
        }
      ],
      "name": "URI",
      "type": "event"
    },
    {
      "inputs": [
        {
          "internalType": "address",
          "name": "",
          "type": "address"
        }
      ],
      "name": "accountTickets",
      "outputs": [
        {
          "internalType": "uint256",
          "name": "",
          "type": "uint256"
        }
      ],
      "stateMutability": "view",
      "type": "function"
    },
    {
      "inputs": [
        {
          "internalType": "address",
          "name": "account",
          "type": "address"
        },
        {
          "internalType": "uint256",
          "name": "id",
          "type": "uint256"
        }
      ],
      "name": "balanceOf",
      "outputs": [
        {
          "internalType": "uint256",
          "name": "",
          "type": "uint256"
        }
      ],
      "stateMutability": "view",
      "type": "function"
    },
    {
      "inputs": [
        {
          "internalType": "address[]",
          "name": "accounts",
          "type": "address[]"
        },
        {
          "internalType": "uint256[]",
          "name": "ids",
          "type": "uint256[]"
        }
      ],
      "name": "balanceOfBatch",
      "outputs": [
        {
          "internalType": "uint256[]",
          "name": "",
          "type": "uint256[]"
        }
      ],
      "stateMutability": "view",
      "type": "function"
    },
    {
      "inputs": [
        {
          "internalType": "address",
          "name": "account_",
          "type": "address"
        },
        {
          "internalType": "uint256",
          "name": "id_",
          "type": "uint256"
        }
      ],
      "name": "burn",
      "outputs": [],
      "stateMutability": "nonpayable",
      "type": "function"
    },
    {
      "inputs": [
        {
          "internalType": "address",
          "name": "account_",
          "type": "address"
        },
        {
          "internalType": "uint256[]",
          "name": "ids_",
          "type": "uint256[]"
        }
      ],
      "name": "burnBatch",
      "outputs": [],
      "stateMutability": "nonpayable",
      "type": "function"
    },
    {
      "inputs": [
        {
          "internalType": "address",
          "name": "account",
          "type": "address"
        },
        {
          "internalType": "address",
          "name": "operator",
          "type": "address"
        }
      ],
      "name": "isApprovedForAll",
      "outputs": [
        {
          "internalType": "bool",
          "name": "",
          "type": "bool"
        }
      ],
      "stateMutability": "view",
      "type": "function"
    },
    {
      "inputs": [
        {
          "internalType": "address",
          "name": "to_",
          "type": "address"
        },
        {
          "internalType": "uint256",
          "name": "id_",
          "type": "uint256"
        },
        {
          "internalType": "uint256",
          "name": "amount_",
          "type": "uint256"
        }
      ],
      "name": "mint",
      "outputs": [],
      "stateMutability": "nonpayable",
      "type": "function"
    },
    {
      "inputs": [
        {
          "internalType": "address",
          "name": "to_",
          "type": "address"
        },
        {
          "internalType": "uint256[]",
          "name": "ids_",
          "type": "uint256[]"
        },
        {
          "internalType": "uint256[]",
          "name": "amounts_",
          "type": "uint256[]"
        }
      ],
      "name": "mintBatch",
      "outputs": [],
      "stateMutability": "nonpayable",
      "type": "function"
    },
    {
      "inputs": [],
      "name": "owner",
      "outputs": [
        {
          "internalType": "address",
          "name": "",
          "type": "address"
        }
      ],
      "stateMutability": "view",
      "type": "function"
    },
    {
      "inputs": [],
      "name": "renounceOwnership",
      "outputs": [],
      "stateMutability": "nonpayable",
      "type": "function"
    },
    {
      "inputs": [
        {
          "internalType": "address",
          "name": "",
          "type": "address"
        },
        {
          "internalType": "address",
          "name": "",
          "type": "address"
        },
        {
          "internalType": "uint256[]",
          "name": "",
          "type": "uint256[]"
        },
        {
          "internalType": "uint256[]",
          "name": "",
          "type": "uint256[]"
        },
        {
          "internalType": "bytes",
          "name": "",
          "type": "bytes"
        }
      ],
      "name": "safeBatchTransferFrom",
      "outputs": [],
      "stateMutability": "nonpayable",
      "type": "function"
    },
    {
      "inputs": [
        {
          "internalType": "address",
          "name": "",
          "type": "address"
        },
        {
          "internalType": "address",
          "name": "",
          "type": "address"
        },
        {
          "internalType": "uint256",
          "name": "",
          "type": "uint256"
        },
        {
          "internalType": "uint256",
          "name": "",
          "type": "uint256"
        },
        {
          "internalType": "bytes",
          "name": "",
          "type": "bytes"
        }
      ],
      "name": "safeTransferFrom",
      "outputs": [],
      "stateMutability": "nonpayable",
      "type": "function"
    },
    {
      "inputs": [
        {
          "internalType": "address",
          "name": "operator",
          "type": "address"
        },
        {
          "internalType": "bool",
          "name": "approved",
          "type": "bool"
        }
      ],
      "name": "setApprovalForAll",
      "outputs": [],
      "stateMutability": "nonpayable",
      "type": "function"
    },
    {
      "inputs": [
        {
          "internalType": "bytes4",
          "name": "interfaceId",
          "type": "bytes4"
        }
      ],
      "name": "supportsInterface",
      "outputs": [
        {
          "internalType": "bool",
          "name": "",
          "type": "bool"
        }
      ],
      "stateMutability": "view",
      "type": "function"
    },
    {
      "inputs": [],
      "name": "totalTickets",
      "outputs": [
        {
          "internalType": "uint256",
          "name": "",
          "type": "uint256"
        }
      ],
      "stateMutability": "view",
      "type": "function"
    },
    {
      "inputs": [
        {
          "internalType": "address",
          "name": "newOwner",
          "type": "address"
        }
      ],
      "name": "transferOwnership",
      "outputs": [],
      "stateMutability": "nonpayable",
      "type": "function"
    },
    {
      "inputs": [
        {
          "internalType": "uint256",
          "name": "",
          "type": "uint256"
        }
      ],
      "name": "uri",
      "outputs": [
        {
          "internalType": "string",
          "name": "",
          "type": "string"
        }
      ],
      "stateMutability": "view",
      "type": "function"
    }
  ],
  "transactionHash": "0x6990f5452d1901a4078920f190fda602934e6dcdf81f4866095a8f96cb446abf",
  "args": [],
  "numDeployments": 1,
  "solcInputHash": "3c6f06bdfe977e603b23d854fbb62806",
  "bytecode": "0x60806040523480156200001157600080fd5b506040805160208101909152600081526200002c816200003e565b50620000383362000057565b6200018c565b805162000053906002906020840190620000a9565b5050565b600380546001600160a01b038381166001600160a01b0319831681179093556040519116919082907f8be0079c531659141344cd1fd0a4f28419497f9722a3daafe3b4186f6b6457e090600090a35050565b828054620000b7906200014f565b90600052602060002090601f016020900481019282620000db576000855562000126565b82601f10620000f657805160ff191683800117855562000126565b8280016001018555821562000126579182015b828111156200012657825182559160200191906001019062000109565b506200013492915062000138565b5090565b5b8082111562000134576000815560010162000139565b600181811c908216806200016457607f821691505b602082108114156200018657634e487b7160e01b600052602260045260246000fd5b50919050565b611ca7806200019c6000396000f3fe608060405234801561001057600080fd5b506004361061010a5760003560e01c80638da5cb5b116100a2578063d81d0a1511610071578063d81d0a151461023c578063dd11247e1461024f578063e985e9c514610258578063f242432a14610294578063f2fde38b146102a757600080fd5b80638da5cb5b146101e85780639dc29fac14610203578063a22cb46514610216578063b2dc5dc31461022957600080fd5b80631cc63e31116100de5780631cc63e311461018d5780632eb2c2d6146101ad5780634e1273f4146101c0578063715018a6146101e057600080fd5b8062fdd58e1461010f57806301ffc9a7146101355780630e89341c14610158578063156e29f614610178575b600080fd5b61012261011d36600461161a565b6102ba565b6040519081526020015b60405180910390f35b61014861014336600461173e565b610351565b604051901515815260200161012c565b61016b610166366004611778565b6103a3565b60405161012c91906118fd565b61018b610186366004611644565b610437565b005b61012261019b3660046113b8565b60056020526000908152604090205481565b61018b6101bb36600461140d565b6104d4565b6101d36101ce366004611677565b610531565b60405161012c91906118bc565b61018b61065b565b6003546040516001600160a01b03909116815260200161012c565b61018b61021136600461161a565b610691565b61018b6102243660046115de565b610719565b61018b61023736600461151c565b610728565b61018b61024a36600461156a565b61086b565b61012260045481565b6101486102663660046113da565b6001600160a01b03918216600090815260016020908152604080832093909416825291909152205460ff1690565b61018b6102a23660046114b7565b61094a565b61018b6102b53660046113b8565b6109a1565b60006001600160a01b03831661032b5760405162461bcd60e51b815260206004820152602b60248201527f455243313135353a2062616c616e636520717565727920666f7220746865207a60448201526a65726f206164647265737360a81b60648201526084015b60405180910390fd5b506000908152602081815260408083206001600160a01b03949094168352929052205490565b60006001600160e01b03198216636cdb3d1360e11b148061038257506001600160e01b031982166303a24d0760e21b145b8061039d57506301ffc9a760e01b6001600160e01b03198316145b92915050565b6060600280546103b290611af0565b80601f01602080910402602001604051908101604052809291908181526020018280546103de90611af0565b801561042b5780601f106104005761010080835404028352916020019161042b565b820191906000526020600020905b81548152906001019060200180831161040e57829003601f168201915b50505050509050919050565b6003546001600160a01b031633146104615760405162461bcd60e51b8152600401610322906119df565b80600460008282546104739190611ac1565b90915550506001600160a01b038316600090815260056020526040812080548392906104a0908490611ac1565b925050819055506104cf838383604051806040016040528060048152602001630307830360e41b815250610a3c565b505050565b60405162461bcd60e51b815260206004820152602c60248201527f53776565747061645469636b65743a2063616e2774206261746368207472616e60448201526b73666572207469636b65747360a01b6064820152608401610322565b606081518351146105965760405162461bcd60e51b815260206004820152602960248201527f455243313135353a206163636f756e747320616e6420696473206c656e677468604482015268040dad2e6dac2e8c6d60bb1b6064820152608401610322565b6000835167ffffffffffffffff8111156105b2576105b2611b9f565b6040519080825280602002602001820160405280156105db578160200160208202803683370190505b50905060005b8451811015610653576106268582815181106105ff576105ff611b89565b602002602001015185838151811061061957610619611b89565b60200260200101516102ba565b82828151811061063857610638611b89565b602090810291909101015261064c81611b58565b90506105e1565b509392505050565b6003546001600160a01b031633146106855760405162461bcd60e51b8152600401610322906119df565b61068f6000610b16565b565b6003546001600160a01b031633146106bb5760405162461bcd60e51b8152600401610322906119df565b60006106c783836102ba565b905080600460008282546106db9190611ad9565b90915550506001600160a01b03831660009081526005602052604081208054839290610708908490611ad9565b909155506104cf9050838383610b68565b610724338383610c6c565b5050565b6003546001600160a01b031633146107525760405162461bcd60e51b8152600401610322906119df565b600080825167ffffffffffffffff81111561076f5761076f611b9f565b604051908082528060200260200182016040528015610798578160200160208202803683370190505b50905060005b8351811015610814576107bd8585838151811061061957610619611b89565b8282815181106107cf576107cf611b89565b6020026020010181815250508181815181106107ed576107ed611b89565b6020026020010151836108009190611ac1565b92508061080c81611b58565b91505061079e565b5081600460008282546108279190611ad9565b90915550506001600160a01b03841660009081526005602052604081208054849290610854908490611ad9565b909155506108659050848483610d4d565b50505050565b6003546001600160a01b031633146108955760405162461bcd60e51b8152600401610322906119df565b6000805b82518110156108db578281815181106108b4576108b4611b89565b6020026020010151826108c79190611ac1565b9150806108d381611b58565b915050610899565b5080600460008282546108ee9190611ac1565b90915550506001600160a01b0384166000908152600560205260408120805483929061091b908490611ac1565b92505081905550610865848484604051806040016040528060048152602001630307830360e41b815250610ed7565b60405162461bcd60e51b815260206004820152602660248201527f53776565747061645469636b65743a2063616e2774207472616e73666572207460448201526569636b65747360d01b6064820152608401610322565b6003546001600160a01b031633146109cb5760405162461bcd60e51b8152600401610322906119df565b6001600160a01b038116610a305760405162461bcd60e51b815260206004820152602660248201527f4f776e61626c653a206e6577206f776e657220697320746865207a65726f206160448201526564647265737360d01b6064820152608401610322565b610a3981610b16565b50565b6001600160a01b038416610a625760405162461bcd60e51b815260040161032290611a5c565b336000610a6e85611029565b90506000610a7b85611029565b90506000868152602081815260408083206001600160a01b038b16845290915281208054879290610aad908490611ac1565b909155505060408051878152602081018790526001600160a01b03808a1692600092918716917fc3d58168c5ae7397731d063d5bbf3d657854427343f4c083240f7aacaa2d0f62910160405180910390a4610b0d8360008989898961107c565b50505050505050565b600380546001600160a01b038381166001600160a01b0319831681179093556040519116919082907f8be0079c531659141344cd1fd0a4f28419497f9722a3daafe3b4186f6b6457e090600090a35050565b6001600160a01b038316610b8e5760405162461bcd60e51b81526004016103229061199c565b336000610b9a84611029565b90506000610ba784611029565b60408051602080820183526000918290528882528181528282206001600160a01b038b1683529052205490915084811015610bf45760405162461bcd60e51b815260040161032290611958565b6000868152602081815260408083206001600160a01b038b81168086529184528285208a8703905582518b81529384018a90529092908816917fc3d58168c5ae7397731d063d5bbf3d657854427343f4c083240f7aacaa2d0f62910160405180910390a4604080516020810190915260009052610b0d565b816001600160a01b0316836001600160a01b03161415610ce05760405162461bcd60e51b815260206004820152602960248201527f455243313135353a2073657474696e6720617070726f76616c20737461747573604482015268103337b91039b2b63360b91b6064820152608401610322565b6001600160a01b03838116600081815260016020908152604080832094871680845294825291829020805460ff191686151590811790915591519182527f17307eab39ab6107e8899845ad3d59bd9653f200f220920489ca2b5937696c31910160405180910390a3505050565b6001600160a01b038316610d735760405162461bcd60e51b81526004016103229061199c565b8051825114610d945760405162461bcd60e51b815260040161032290611a14565b604080516020810190915260009081905233905b8351811015610e6a576000848281518110610dc557610dc5611b89565b602002602001015190506000848381518110610de357610de3611b89565b602090810291909101810151600084815280835260408082206001600160a01b038c168352909352919091205490915081811015610e335760405162461bcd60e51b815260040161032290611958565b6000928352602083815260408085206001600160a01b038b1686529091529092209103905580610e6281611b58565b915050610da8565b5060006001600160a01b0316846001600160a01b0316826001600160a01b03167f4a39dc06d4c0dbc64b70af90fd698a233a518aa5d07e595d983b8c0526c8f7fb8686604051610ebb9291906118cf565b60405180910390a4604080516020810190915260009052610865565b6001600160a01b038416610efd5760405162461bcd60e51b815260040161032290611a5c565b8151835114610f1e5760405162461bcd60e51b815260040161032290611a14565b3360005b8451811015610fba57838181518110610f3d57610f3d611b89565b6020026020010151600080878481518110610f5a57610f5a611b89565b602002602001015181526020019081526020016000206000886001600160a01b03166001600160a01b031681526020019081526020016000206000828254610fa29190611ac1565b90915550819050610fb281611b58565b915050610f22565b50846001600160a01b031660006001600160a01b0316826001600160a01b03167f4a39dc06d4c0dbc64b70af90fd698a233a518aa5d07e595d983b8c0526c8f7fb878760405161100b9291906118cf565b60405180910390a4611022816000878787876111e7565b5050505050565b6040805160018082528183019092526060916000919060208083019080368337019050509050828160008151811061106357611063611b89565b602090810291909101015292915050565b505050505050565b6001600160a01b0384163b156110745760405163f23a6e6160e01b81526001600160a01b0385169063f23a6e61906110c09089908990889088908890600401611877565b602060405180830381600087803b1580156110da57600080fd5b505af192505050801561110a575060408051601f3d908101601f191682019092526111079181019061175b565b60015b6111b757611116611bb5565b806308c379a01415611150575061112b611bd1565b806111365750611152565b8060405162461bcd60e51b815260040161032291906118fd565b505b60405162461bcd60e51b815260206004820152603460248201527f455243313135353a207472616e7366657220746f206e6f6e20455243313135356044820152732932b1b2b4bb32b91034b6b83632b6b2b73a32b960611b6064820152608401610322565b6001600160e01b0319811663f23a6e6160e01b14610b0d5760405162461bcd60e51b815260040161032290611910565b6001600160a01b0384163b156110745760405163bc197c8160e01b81526001600160a01b0385169063bc197c819061122b9089908990889088908890600401611819565b602060405180830381600087803b15801561124557600080fd5b505af1925050508015611275575060408051601f3d908101601f191682019092526112729181019061175b565b60015b61128157611116611bb5565b6001600160e01b0319811663bc197c8160e01b14610b0d5760405162461bcd60e51b815260040161032290611910565b80356001600160a01b03811681146112c857600080fd5b919050565b600082601f8301126112de57600080fd5b813560206112eb82611a9d565b6040516112f88282611b2b565b8381528281019150858301600585901b8701840188101561131857600080fd5b60005b858110156113375781358452928401929084019060010161131b565b5090979650505050505050565b600082601f83011261135557600080fd5b813567ffffffffffffffff81111561136f5761136f611b9f565b604051611386601f8301601f191660200182611b2b565b81815284602083860101111561139b57600080fd5b816020850160208301376000918101602001919091529392505050565b6000602082840312156113ca57600080fd5b6113d3826112b1565b9392505050565b600080604083850312156113ed57600080fd5b6113f6836112b1565b9150611404602084016112b1565b90509250929050565b600080600080600060a0868803121561142557600080fd5b61142e866112b1565b945061143c602087016112b1565b9350604086013567ffffffffffffffff8082111561145957600080fd5b61146589838a016112cd565b9450606088013591508082111561147b57600080fd5b61148789838a016112cd565b9350608088013591508082111561149d57600080fd5b506114aa88828901611344565b9150509295509295909350565b600080600080600060a086880312156114cf57600080fd5b6114d8866112b1565b94506114e6602087016112b1565b93506040860135925060608601359150608086013567ffffffffffffffff81111561151057600080fd5b6114aa88828901611344565b6000806040838503121561152f57600080fd5b611538836112b1565b9150602083013567ffffffffffffffff81111561155457600080fd5b611560858286016112cd565b9150509250929050565b60008060006060848603121561157f57600080fd5b611588846112b1565b9250602084013567ffffffffffffffff808211156115a557600080fd5b6115b1878388016112cd565b935060408601359150808211156115c757600080fd5b506115d4868287016112cd565b9150509250925092565b600080604083850312156115f157600080fd5b6115fa836112b1565b91506020830135801515811461160f57600080fd5b809150509250929050565b6000806040838503121561162d57600080fd5b611636836112b1565b946020939093013593505050565b60008060006060848603121561165957600080fd5b611662846112b1565b95602085013595506040909401359392505050565b6000806040838503121561168a57600080fd5b823567ffffffffffffffff808211156116a257600080fd5b818501915085601f8301126116b657600080fd5b813560206116c382611a9d565b6040516116d08282611b2b565b8381528281019150858301600585901b870184018b10156116f057600080fd5b600096505b8487101561171a57611706816112b1565b8352600196909601959183019183016116f5565b509650508601359250508082111561173157600080fd5b50611560858286016112cd565b60006020828403121561175057600080fd5b81356113d381611c5b565b60006020828403121561176d57600080fd5b81516113d381611c5b565b60006020828403121561178a57600080fd5b5035919050565b600081518084526020808501945080840160005b838110156117c1578151875295820195908201906001016117a5565b509495945050505050565b6000815180845260005b818110156117f2576020818501810151868301820152016117d6565b81811115611804576000602083870101525b50601f01601f19169290920160200192915050565b6001600160a01b0386811682528516602082015260a06040820181905260009061184590830186611791565b82810360608401526118578186611791565b9050828103608084015261186b81856117cc565b98975050505050505050565b6001600160a01b03868116825285166020820152604081018490526060810183905260a0608082018190526000906118b1908301846117cc565b979650505050505050565b6020815260006113d36020830184611791565b6040815260006118e26040830185611791565b82810360208401526118f48185611791565b95945050505050565b6020815260006113d360208301846117cc565b60208082526028908201527f455243313135353a204552433131353552656365697665722072656a656374656040820152676420746f6b656e7360c01b606082015260800190565b60208082526024908201527f455243313135353a206275726e20616d6f756e7420657863656564732062616c604082015263616e636560e01b606082015260800190565b60208082526023908201527f455243313135353a206275726e2066726f6d20746865207a65726f206164647260408201526265737360e81b606082015260800190565b6020808252818101527f4f776e61626c653a2063616c6c6572206973206e6f7420746865206f776e6572604082015260600190565b60208082526028908201527f455243313135353a2069647320616e6420616d6f756e7473206c656e677468206040820152670dad2e6dac2e8c6d60c31b606082015260800190565b60208082526021908201527f455243313135353a206d696e7420746f20746865207a65726f206164647265736040820152607360f81b606082015260800190565b600067ffffffffffffffff821115611ab757611ab7611b9f565b5060051b60200190565b60008219821115611ad457611ad4611b73565b500190565b600082821015611aeb57611aeb611b73565b500390565b600181811c90821680611b0457607f821691505b60208210811415611b2557634e487b7160e01b600052602260045260246000fd5b50919050565b601f8201601f1916810167ffffffffffffffff81118282101715611b5157611b51611b9f565b6040525050565b6000600019821415611b6c57611b6c611b73565b5060010190565b634e487b7160e01b600052601160045260246000fd5b634e487b7160e01b600052603260045260246000fd5b634e487b7160e01b600052604160045260246000fd5b600060033d1115611bce5760046000803e5060005160e01c5b90565b600060443d1015611bdf5790565b6040516003193d81016004833e81513d67ffffffffffffffff8160248401118184111715611c0f57505050505090565b8285019150815181811115611c275750505050505090565b843d8701016020828501011115611c415750505050505090565b611c5060208286010187611b2b565b509095945050505050565b6001600160e01b031981168114610a3957600080fdfea264697066735822122020c2297363771504b56e460293c63229b0680058c3af048153c0c0f9a81605f564736f6c63430008070033",
  "devdoc": {
    "kind": "dev",
    "methods": {
      "balanceOf(address,uint256)": {
        "details": "See {IERC1155-balanceOf}. Requirements: - `account` cannot be the zero address."
      },
      "balanceOfBatch(address[],uint256[])": {
        "details": "See {IERC1155-balanceOfBatch}. Requirements: - `accounts` and `ids` must have the same length."
      },
      "isApprovedForAll(address,address)": {
        "details": "See {IERC1155-isApprovedForAll}."
      },
      "owner()": {
        "details": "Returns the address of the current owner."
      },
      "renounceOwnership()": {
        "details": "Leaves the contract without owner. It will not be possible to call `onlyOwner` functions anymore. Can only be called by the current owner. NOTE: Renouncing ownership will leave the contract without an owner, thereby removing any functionality that is only available to the owner."
      },
      "setApprovalForAll(address,bool)": {
        "details": "See {IERC1155-setApprovalForAll}."
      },
      "supportsInterface(bytes4)": {
        "details": "See {IERC165-supportsInterface}."
      },
      "transferOwnership(address)": {
        "details": "Transfers ownership of the contract to a new account (`newOwner`). Can only be called by the current owner."
      },
      "uri(uint256)": {
        "details": "See {IERC1155MetadataURI-uri}. This implementation returns the same URI for *all* token types. It relies on the token type ID substitution mechanism https://eips.ethereum.org/EIPS/eip-1155#metadata[defined in the EIP]. Clients calling this function must replace the `\\{id\\}` substring with the actual token type ID."
      }
    },
    "version": 1
  },
  "userdoc": {
    "kind": "user",
    "methods": {},
    "version": 1
  },
  "storageLayout": {
    "storage": [
      {
        "astId": 130,
        "contract": "contracts/SweetpadTicket.sol:SweetpadTicket",
        "label": "_balances",
        "offset": 0,
        "slot": "0",
        "type": "t_mapping(t_uint256,t_mapping(t_address,t_uint256))"
      },
      {
        "astId": 136,
        "contract": "contracts/SweetpadTicket.sol:SweetpadTicket",
        "label": "_operatorApprovals",
        "offset": 0,
        "slot": "1",
        "type": "t_mapping(t_address,t_mapping(t_address,t_bool))"
      },
      {
        "astId": 138,
        "contract": "contracts/SweetpadTicket.sol:SweetpadTicket",
        "label": "_uri",
        "offset": 0,
        "slot": "2",
        "type": "t_string_storage"
      },
      {
        "astId": 7,
        "contract": "contracts/SweetpadTicket.sol:SweetpadTicket",
        "label": "_owner",
        "offset": 0,
        "slot": "3",
        "type": "t_address"
      },
      {
        "astId": 5505,
        "contract": "contracts/SweetpadTicket.sol:SweetpadTicket",
        "label": "totalTickets",
        "offset": 0,
        "slot": "4",
        "type": "t_uint256"
      },
      {
        "astId": 5510,
        "contract": "contracts/SweetpadTicket.sol:SweetpadTicket",
        "label": "accountTickets",
        "offset": 0,
        "slot": "5",
        "type": "t_mapping(t_address,t_uint256)"
      }
    ],
    "types": {
      "t_address": {
        "encoding": "inplace",
        "label": "address",
        "numberOfBytes": "20"
      },
      "t_bool": {
        "encoding": "inplace",
        "label": "bool",
        "numberOfBytes": "1"
      },
      "t_mapping(t_address,t_bool)": {
        "encoding": "mapping",
        "key": "t_address",
        "label": "mapping(address => bool)",
        "numberOfBytes": "32",
        "value": "t_bool"
      },
      "t_mapping(t_address,t_mapping(t_address,t_bool))": {
        "encoding": "mapping",
        "key": "t_address",
        "label": "mapping(address => mapping(address => bool))",
        "numberOfBytes": "32",
        "value": "t_mapping(t_address,t_bool)"
      },
      "t_mapping(t_address,t_uint256)": {
        "encoding": "mapping",
        "key": "t_address",
        "label": "mapping(address => uint256)",
        "numberOfBytes": "32",
        "value": "t_uint256"
      },
      "t_mapping(t_uint256,t_mapping(t_address,t_uint256))": {
        "encoding": "mapping",
        "key": "t_uint256",
        "label": "mapping(uint256 => mapping(address => uint256))",
        "numberOfBytes": "32",
        "value": "t_mapping(t_address,t_uint256)"
      },
      "t_string_storage": {
        "encoding": "bytes",
        "label": "string",
        "numberOfBytes": "32"
      },
      "t_uint256": {
        "encoding": "inplace",
        "label": "uint256",
        "numberOfBytes": "32"
      }
    }
  }
}