{
  "address": "0x0Bc676698958D38A3d62F89FA624749679A84F23",
  "abi": [
    {
      "inputs": [
        {
          "internalType": "uint8",
          "name": "_sizeOfLotteryNumbers",
          "type": "uint8"
        },
        {
          "internalType": "uint16",
          "name": "_maxValidNumberRange",
          "type": "uint16"
        }
      ],
      "stateMutability": "nonpayable",
      "type": "constructor"
    },
    {
      "anonymous": false,
      "inputs": [
        {
          "indexed": false,
          "internalType": "uint256",
          "name": "lotteryId",
          "type": "uint256"
        },
        {
          "indexed": false,
          "internalType": "uint256",
          "name": "ticketSupply",
          "type": "uint256"
        }
      ],
      "name": "LotteryClose",
      "type": "event"
    },
    {
      "anonymous": false,
      "inputs": [
        {
          "indexed": false,
          "internalType": "uint256",
          "name": "lotteryId",
          "type": "uint256"
        },
        {
          "indexed": false,
          "internalType": "uint256",
          "name": "ticketSupply",
          "type": "uint256"
        }
      ],
      "name": "LotteryOpen",
      "type": "event"
    },
    {
      "anonymous": false,
      "inputs": [
        {
          "indexed": true,
          "internalType": "address",
          "name": "previousOwner",
          "type": "address"
        },
        {
          "indexed": true,
          "internalType": "address",
          "name": "newOwner",
          "type": "address"
        }
      ],
      "name": "OwnershipTransferred",
      "type": "event"
    },
    {
      "anonymous": false,
      "inputs": [
        {
          "indexed": false,
          "internalType": "uint256",
          "name": "lotteryId",
          "type": "uint256"
        },
        {
          "indexed": false,
          "internalType": "bytes32",
          "name": "requestId",
          "type": "bytes32"
        }
      ],
      "name": "RequestNumbers",
      "type": "event"
    },
    {
      "anonymous": false,
      "inputs": [
        {
          "indexed": false,
          "internalType": "address",
          "name": "admin",
          "type": "address"
        },
        {
          "indexed": false,
          "internalType": "uint16",
          "name": "newMaxRange",
          "type": "uint16"
        }
      ],
      "name": "UpdatedMaxRange",
      "type": "event"
    },
    {
      "anonymous": false,
      "inputs": [
        {
          "indexed": false,
          "internalType": "address",
          "name": "admin",
          "type": "address"
        },
        {
          "indexed": false,
          "internalType": "uint16",
          "name": "newLotterySize",
          "type": "uint16"
        }
      ],
      "name": "UpdatedSizeOfLottery",
      "type": "event"
    },
    {
      "inputs": [
        {
          "internalType": "uint256",
          "name": "_startingTimestamp",
          "type": "uint256"
        },
        {
          "internalType": "uint256",
          "name": "_closingTimestamp",
          "type": "uint256"
        }
      ],
      "name": "createNewLotto",
      "outputs": [
        {
          "internalType": "uint256",
          "name": "lotteryId",
          "type": "uint256"
        }
      ],
      "stateMutability": "nonpayable",
      "type": "function"
    },
    {
      "inputs": [
        {
          "internalType": "uint256",
          "name": "_lotteryId",
          "type": "uint256"
        }
      ],
      "name": "drawWinningNumbers",
      "outputs": [],
      "stateMutability": "nonpayable",
      "type": "function"
    },
    {
      "inputs": [
        {
          "internalType": "uint256",
          "name": "_lotteryId",
          "type": "uint256"
        }
      ],
      "name": "getBasicLottoInfo",
      "outputs": [
        {
          "components": [
            {
              "internalType": "uint256",
              "name": "lotteryID",
              "type": "uint256"
            },
            {
              "internalType": "enum SweetpadLottery.Status",
              "name": "lotteryStatus",
              "type": "uint8"
            },
            {
              "internalType": "uint256",
              "name": "startingTimestamp",
              "type": "uint256"
            },
            {
              "internalType": "uint256",
              "name": "closingTimestamp",
              "type": "uint256"
            },
            {
              "internalType": "uint16[]",
              "name": "winningNumbers",
              "type": "uint16[]"
            }
          ],
          "internalType": "struct SweetpadLottery.LottoInfo",
          "name": "",
          "type": "tuple"
        }
      ],
      "stateMutability": "view",
      "type": "function"
    },
    {
      "inputs": [],
      "name": "getMaxRange",
      "outputs": [
        {
          "internalType": "uint16",
          "name": "",
          "type": "uint16"
        }
      ],
      "stateMutability": "view",
      "type": "function"
    },
    {
      "inputs": [
        {
          "internalType": "uint256",
          "name": "_lotteryId",
          "type": "uint256"
        }
      ],
      "name": "getWiningNumbers",
      "outputs": [],
      "stateMutability": "nonpayable",
      "type": "function"
    },
    {
      "inputs": [],
      "name": "maxValidRange_",
      "outputs": [
        {
          "internalType": "uint16",
          "name": "",
          "type": "uint16"
        }
      ],
      "stateMutability": "view",
      "type": "function"
    },
    {
      "inputs": [
        {
          "internalType": "uint256",
          "name": "_lotteryId",
          "type": "uint256"
        },
        {
          "internalType": "bytes32",
          "name": "_requestId",
          "type": "bytes32"
        },
        {
          "internalType": "uint256",
          "name": "_randomNumber",
          "type": "uint256"
        }
      ],
      "name": "numbersDrawn",
      "outputs": [],
      "stateMutability": "nonpayable",
      "type": "function"
    },
    {
      "inputs": [],
      "name": "owner",
      "outputs": [
        {
          "internalType": "address",
          "name": "",
          "type": "address"
        }
      ],
      "stateMutability": "view",
      "type": "function"
    },
    {
      "inputs": [],
      "name": "renounceOwnership",
      "outputs": [],
      "stateMutability": "nonpayable",
      "type": "function"
    },
    {
      "inputs": [
        {
          "internalType": "address",
          "name": "randomNumberGenerator_",
          "type": "address"
        }
      ],
      "name": "setRendomGenerator",
      "outputs": [],
      "stateMutability": "nonpayable",
      "type": "function"
    },
    {
      "inputs": [],
      "name": "sizeOfLottery_",
      "outputs": [
        {
          "internalType": "uint16",
          "name": "",
          "type": "uint16"
        }
      ],
      "stateMutability": "view",
      "type": "function"
    },
    {
      "inputs": [
        {
          "internalType": "address",
          "name": "newOwner",
          "type": "address"
        }
      ],
      "name": "transferOwnership",
      "outputs": [],
      "stateMutability": "nonpayable",
      "type": "function"
    },
    {
      "inputs": [
        {
          "internalType": "uint16",
          "name": "_newMaxRange",
          "type": "uint16"
        }
      ],
      "name": "updateMaxRange",
      "outputs": [],
      "stateMutability": "nonpayable",
      "type": "function"
    },
    {
      "inputs": [
        {
          "internalType": "uint16",
          "name": "_newSize",
          "type": "uint16"
        }
      ],
      "name": "updateSizeOfLottery",
      "outputs": [],
      "stateMutability": "nonpayable",
      "type": "function"
    }
  ],
  "transactionHash": "0x5a2e655b550da3cf6427730b1397dba5d2b55d33b75305719ddeeb31862cfb3b",
  "args": [
    10,
    10
  ],
  "numDeployments": 6,
  "solcInputHash": "79ad40eb9d8954d2649ce93644f13abb",
  "bytecode": "0x608060405234801561001057600080fd5b5060405161125d38038061125d83398101604081905261002f91610117565b610038336100c7565b60ff82161580159061004d575061ffff811615155b61009d5760405162461bcd60e51b815260206004820152601960248201527f4c6f74746572792073657475702063616e6e6f74206265203000000000000000604482015260640160405180910390fd5b6004805461ffff92909216620100000263ffffffff1990921660ff9093169290921717905561015e565b600080546001600160a01b038381166001600160a01b0319831681178455604051919092169283917f8be0079c531659141344cd1fd0a4f28419497f9722a3daafe3b4186f6b6457e09190a35050565b6000806040838503121561012a57600080fd5b825160ff8116811461013b57600080fd5b602084015190925061ffff8116811461015357600080fd5b809150509250929050565b6110f08061016d6000396000f3fe608060405234801561001057600080fd5b50600436106100ea5760003560e01c8063d062b57c1161008c578063de1dfae511610066578063de1dfae5146101cd578063e59bbab5146101ee578063e97fc16214610200578063f2fde38b1461021357600080fd5b8063d062b57c14610187578063da4767551461019a578063dbe069a2146101ba57600080fd5b8063715018a6116100c8578063715018a61461013d5780637c3fac26146101455780638da5cb5b14610158578063a624aa1b1461017357600080fd5b8063075dc415146100ef5780630c97fd451461011557806336e4276a1461012a575b600080fd5b6004546100fd9061ffff1681565b60405161ffff90911681526020015b60405180910390f35b610128610123366004610ed3565b610226565b005b610128610138366004610ed3565b61041f565b6101286104ce565b610128610153366004610e6d565b610504565b6000546040516001600160a01b03909116815260200161010c565b6004546100fd9062010000900461ffff1681565b610128610195366004610eaf565b6105a6565b6101ad6101a8366004610ed3565b6106d5565b60405161010c9190610f6f565b6101286101c8366004610eaf565b6107f5565b6101e06101db366004610f18565b610916565b60405190815260200161010c565b60045462010000900461ffff166100fd565b61012861020e366004610eec565b610ad0565b610128610221366004610e6d565b610bc9565b6000546001600160a01b031633146102595760405162461bcd60e51b815260040161025090610f3a565b60405180910390fd5b6000818152600560205260409020600301544210156102cc5760405162461bcd60e51b815260206004820152602960248201527f43616e6e6f74207365742077696e6e696e67206e756d6265727320647572696e60448201526867206c6f747465727960b81b6064820152608401610250565b600160008281526005602052604090206001015460ff1660038111156102f4576102f4611078565b146103415760405162461bcd60e51b815260206004820181905260248201527f4c6f747465727920537461746520696e636f727265637420666f7220647261776044820152606401610250565b600081815260056020526040908190206001908101805460ff19166002179055549051632cdc85e960e21b8152600481018390526001600160a01b039091169063b37217a490602401602060405180830381600087803b1580156103a457600080fd5b505af11580156103b8573d6000803e3d6000fd5b505050506040513d601f19601f820116820180604052508101906103dc9190610e96565b60028190556040805183815260208101929092527ff8cdf8355a0f31bbad8998a631f5a75dcb3e475a010b34a111ed105fe88e751a91015b60405180910390a150565b600360008281526005602052604090206001015460ff16600381111561044757610447611078565b146104895760405162461bcd60e51b8152602060048201526012602482015271111c985dc81b9d5b58995c9cc8199a5c9cdd60721b6044820152606401610250565b6000818152600660205260409020546104a190610c64565b6005600083815260200190815260200160002060040190805190602001906104ca929190610daf565b5050565b6000546001600160a01b031633146104f85760405162461bcd60e51b815260040161025090610f3a565b6105026000610d4c565b565b6000546001600160a01b0316331461052e5760405162461bcd60e51b815260040161025090610f3a565b6001600160a01b0381166105845760405162461bcd60e51b815260206004820152601d60248201527f436f6e7472616374732063616e6e6f74206265203020616464726573730000006044820152606401610250565b600180546001600160a01b0319166001600160a01b0392909216919091179055565b6000546001600160a01b031633146105d05760405162461bcd60e51b815260040161025090610f3a565b60045461ffff8281166201000090920416141561062f5760405162461bcd60e51b815260206004820152601a60248201527f43616e6e6f742073657420746f2063757272656e742073697a650000000000006044820152606401610250565b60045462010000900461ffff166106805760405162461bcd60e51b815260206004820152601560248201527404d61782072616e67652063616e6e6f74206265203605c1b6044820152606401610250565b6004805463ffff000019166201000061ffff8416908102919091179091556040805133815260208101929092527f2a54f3414068117c88afc33d8e1dea5f6330df95e10ef41731baea27ab8a946e9101610414565b6107086040805160a081019091526000808252602082019081526020016000815260200160008152602001606081525090565b600082815260056020908152604091829020825160a08101909352805483526001810154909183019060ff16600381111561074557610745611078565b600381111561075657610756611078565b81526020016002820154815260200160038201548152602001600482018054806020026020016040519081016040528092919081815260200182805480156107e557602002820191906000526020600020906000905b82829054906101000a900461ffff1661ffff16815260200190600201906020826001010492830192600103820291508084116107ac5790505b5050505050815250509050919050565b6000546001600160a01b0316331461081f5760405162461bcd60e51b815260040161025090610f3a565b60045461ffff828116911614156108785760405162461bcd60e51b815260206004820152601a60248201527f43616e6e6f742073657420746f2063757272656e742073697a650000000000006044820152606401610250565b60045461ffff166108cb5760405162461bcd60e51b815260206004820152601860248201527f4c6f74746572792073697a652063616e6e6f74206265203000000000000000006044820152606401610250565b6004805461ffff191661ffff83169081179091556040805133815260208101929092527f5c8df1f3422b7c16c64d7d3152fec41b6ea262c267376ae456770cd6763c34f69101610414565b600080546001600160a01b031633146109415760405162461bcd60e51b815260040161025090610f3a565b821580159061094f57508183105b61099b5760405162461bcd60e51b815260206004820152601e60248201527f54696d657374616d707320666f72206c6f747465727920696e76616c696400006044820152606401610250565b6003546109a990600161100d565b600381905560045490915060009061ffff1667ffffffffffffffff8111156109d3576109d36110a4565b6040519080825280602002602001820160405280156109fc578160200160208202803683370190505b5090506000428510610a1057506001610a14565b5060005b60006040518060a00160405280858152602001836003811115610a3957610a39611078565b8152602080820189905260408083018990526060909201869052600087815260058252919091208251815590820151600180830180549495508594909160ff1990911690836003811115610a8f57610a8f611078565b0217905550604082015160028201556060820151600382015560808201518051610ac3916004840191602090910190610daf565b5090505050505092915050565b6001546001600160a01b03163314610b225760405162461bcd60e51b815260206004820152601560248201527427b7363c903930b73237b69033b2b732b930ba37b960591b6044820152606401610250565b600260008481526005602052604090206001015460ff166003811115610b4a57610b4a611078565b14610b8c5760405162461bcd60e51b8152602060048201526012602482015271111c985dc81b9d5b58995c9cc8199a5c9cdd60721b6044820152606401610250565b816002541415610bb3576000838152600560205260409020600101805460ff191660031790555b6000928352600660205260409092209190915550565b6000546001600160a01b03163314610bf35760405162461bcd60e51b815260040161025090610f3a565b6001600160a01b038116610c585760405162461bcd60e51b815260206004820152602660248201527f4f776e61626c653a206e6577206f776e657220697320746865207a65726f206160448201526564647265737360d01b6064820152608401610250565b610c6181610d4c565b50565b60045460609060009061ffff1667ffffffffffffffff811115610c8957610c896110a4565b604051908082528060200260200182016040528015610cb2578160200160208202803683370190505b50905060005b60045461ffff16811015610d4557604080516020808201879052818301849052825180830384018152606090920190925280519101206004548190610d0890829062010000900461ffff16610d9c565b848481518110610d1a57610d1a61108e565b602002602001019061ffff16908161ffff168152505050508080610d3d90611025565b915050610cb8565b5092915050565b600080546001600160a01b038381166001600160a01b0319831681178455604051919092169283917f8be0079c531659141344cd1fd0a4f28419497f9722a3daafe3b4186f6b6457e09190a35050565b6000610da88284611040565b9392505050565b82805482825590600052602060002090600f01601090048101928215610e485791602002820160005b83821115610e1857835183826101000a81548161ffff021916908361ffff1602179055509260200192600201602081600101049283019260010302610dd8565b8015610e465782816101000a81549061ffff0219169055600201602081600101049283019260010302610e18565b505b50610e54929150610e58565b5090565b5b80821115610e545760008155600101610e59565b600060208284031215610e7f57600080fd5b81356001600160a01b0381168114610da857600080fd5b600060208284031215610ea857600080fd5b5051919050565b600060208284031215610ec157600080fd5b813561ffff81168114610da857600080fd5b600060208284031215610ee557600080fd5b5035919050565b600080600060608486031215610f0157600080fd5b505081359360208301359350604090920135919050565b60008060408385031215610f2b57600080fd5b50508035926020909101359150565b6020808252818101527f4f776e61626c653a2063616c6c6572206973206e6f7420746865206f776e6572604082015260600190565b6000602080835260c083018451828501528185015160048110610fa257634e487b7160e01b600052602160045260246000fd5b806040860152506040850151606085015260608501516080850152608085015160a08086015281815180845260e0870191508483019350600092505b8083101561100257835161ffff168252928401926001929092019190840190610fde565b509695505050505050565b6000821982111561102057611020611062565b500190565b600060001982141561103957611039611062565b5060010190565b60008261105d57634e487b7160e01b600052601260045260246000fd5b500690565b634e487b7160e01b600052601160045260246000fd5b634e487b7160e01b600052602160045260246000fd5b634e487b7160e01b600052603260045260246000fd5b634e487b7160e01b600052604160045260246000fdfea26469706673582212209bc6c9a183d0cfea503bad2cadbfee968f27e7ddd45edefb43f170990ffcf70764736f6c63430008070033",
  "devdoc": {
    "kind": "dev",
    "methods": {
      "createNewLotto(uint256,uint256)": {
        "params": {
          "_closingTimestamp": "The block timestamp after which no more tickets          will be sold for the lottery. Note that this timestamp MUST          be after the starting block timestamp.",
          "_startingTimestamp": "The block timestamp for the beginning of the          lottery."
        }
      },
      "owner()": {
        "details": "Returns the address of the current owner."
      },
      "renounceOwnership()": {
        "details": "Leaves the contract without owner. It will not be possible to call `onlyOwner` functions anymore. Can only be called by the current owner. NOTE: Renouncing ownership will leave the contract without an owner, thereby removing any functionality that is only available to the owner."
      },
      "transferOwnership(address)": {
        "details": "Transfers ownership of the contract to a new account (`newOwner`). Can only be called by the current owner."
      }
    },
    "version": 1
  },
  "userdoc": {
    "kind": "user",
    "methods": {},
    "version": 1
  },
  "storageLayout": {
    "storage": [
      {
        "astId": 7,
        "contract": "contracts/SweetpadLottery.sol:SweetpadLottery",
        "label": "_owner",
        "offset": 0,
        "slot": "0",
        "type": "t_address"
      },
      {
        "astId": 5832,
        "contract": "contracts/SweetpadLottery.sol:SweetpadLottery",
        "label": "randomGenerator_",
        "offset": 0,
        "slot": "1",
        "type": "t_contract(IRandomNumberGenerator)7817"
      },
      {
        "astId": 5834,
        "contract": "contracts/SweetpadLottery.sol:SweetpadLottery",
        "label": "requestId_",
        "offset": 0,
        "slot": "2",
        "type": "t_bytes32"
      },
      {
        "astId": 5836,
        "contract": "contracts/SweetpadLottery.sol:SweetpadLottery",
        "label": "lotteryIdCounter_",
        "offset": 0,
        "slot": "3",
        "type": "t_uint256"
      },
      {
        "astId": 5838,
        "contract": "contracts/SweetpadLottery.sol:SweetpadLottery",
        "label": "sizeOfLottery_",
        "offset": 0,
        "slot": "4",
        "type": "t_uint16"
      },
      {
        "astId": 5840,
        "contract": "contracts/SweetpadLottery.sol:SweetpadLottery",
        "label": "maxValidRange_",
        "offset": 2,
        "slot": "4",
        "type": "t_uint16"
      },
      {
        "astId": 5863,
        "contract": "contracts/SweetpadLottery.sol:SweetpadLottery",
        "label": "allLotteries_",
        "offset": 0,
        "slot": "5",
        "type": "t_mapping(t_uint256,t_struct(LottoInfo)5858_storage)"
      },
      {
        "astId": 5867,
        "contract": "contracts/SweetpadLottery.sol:SweetpadLottery",
        "label": "rendomNumbers",
        "offset": 0,
        "slot": "6",
        "type": "t_mapping(t_uint256,t_uint256)"
      }
    ],
    "types": {
      "t_address": {
        "encoding": "inplace",
        "label": "address",
        "numberOfBytes": "20"
      },
      "t_array(t_uint16)dyn_storage": {
        "base": "t_uint16",
        "encoding": "dynamic_array",
        "label": "uint16[]",
        "numberOfBytes": "32"
      },
      "t_bytes32": {
        "encoding": "inplace",
        "label": "bytes32",
        "numberOfBytes": "32"
      },
      "t_contract(IRandomNumberGenerator)7817": {
        "encoding": "inplace",
        "label": "contract IRandomNumberGenerator",
        "numberOfBytes": "20"
      },
      "t_enum(Status)5845": {
        "encoding": "inplace",
        "label": "enum SweetpadLottery.Status",
        "numberOfBytes": "1"
      },
      "t_mapping(t_uint256,t_struct(LottoInfo)5858_storage)": {
        "encoding": "mapping",
        "key": "t_uint256",
        "label": "mapping(uint256 => struct SweetpadLottery.LottoInfo)",
        "numberOfBytes": "32",
        "value": "t_struct(LottoInfo)5858_storage"
      },
      "t_mapping(t_uint256,t_uint256)": {
        "encoding": "mapping",
        "key": "t_uint256",
        "label": "mapping(uint256 => uint256)",
        "numberOfBytes": "32",
        "value": "t_uint256"
      },
      "t_struct(LottoInfo)5858_storage": {
        "encoding": "inplace",
        "label": "struct SweetpadLottery.LottoInfo",
        "members": [
          {
            "astId": 5847,
            "contract": "contracts/SweetpadLottery.sol:SweetpadLottery",
            "label": "lotteryID",
            "offset": 0,
            "slot": "0",
            "type": "t_uint256"
          },
          {
            "astId": 5850,
            "contract": "contracts/SweetpadLottery.sol:SweetpadLottery",
            "label": "lotteryStatus",
            "offset": 0,
            "slot": "1",
            "type": "t_enum(Status)5845"
          },
          {
            "astId": 5852,
            "contract": "contracts/SweetpadLottery.sol:SweetpadLottery",
            "label": "startingTimestamp",
            "offset": 0,
            "slot": "2",
            "type": "t_uint256"
          },
          {
            "astId": 5854,
            "contract": "contracts/SweetpadLottery.sol:SweetpadLottery",
            "label": "closingTimestamp",
            "offset": 0,
            "slot": "3",
            "type": "t_uint256"
          },
          {
            "astId": 5857,
            "contract": "contracts/SweetpadLottery.sol:SweetpadLottery",
            "label": "winningNumbers",
            "offset": 0,
            "slot": "4",
            "type": "t_array(t_uint16)dyn_storage"
          }
        ],
        "numberOfBytes": "160"
      },
      "t_uint16": {
        "encoding": "inplace",
        "label": "uint16",
        "numberOfBytes": "2"
      },
      "t_uint256": {
        "encoding": "inplace",
        "label": "uint256",
        "numberOfBytes": "32"
      }
    }
  }
}