{
  "address": "0x7e89D3970F837179e84570D632C90F133EFB0c11",
  "abi": [
    {
      "inputs": [],
      "stateMutability": "nonpayable",
      "type": "constructor"
    },
    {
      "anonymous": false,
      "inputs": [
        {
          "indexed": true,
          "internalType": "address",
          "name": "owner",
          "type": "address"
        },
        {
          "indexed": true,
          "internalType": "address",
          "name": "approved",
          "type": "address"
        },
        {
          "indexed": true,
          "internalType": "uint256",
          "name": "tokenId",
          "type": "uint256"
        }
      ],
      "name": "Approval",
      "type": "event"
    },
    {
      "anonymous": false,
      "inputs": [
        {
          "indexed": true,
          "internalType": "address",
          "name": "owner",
          "type": "address"
        },
        {
          "indexed": true,
          "internalType": "address",
          "name": "operator",
          "type": "address"
        },
        {
          "indexed": false,
          "internalType": "bool",
          "name": "approved",
          "type": "bool"
        }
      ],
      "name": "ApprovalForAll",
      "type": "event"
    },
    {
      "anonymous": false,
      "inputs": [
        {
          "indexed": true,
          "internalType": "uint256",
          "name": "",
          "type": "uint256"
        },
        {
          "indexed": true,
          "internalType": "enum ISweetpadNFT.Tier",
          "name": "",
          "type": "uint8"
        },
        {
          "indexed": true,
          "internalType": "address",
          "name": "",
          "type": "address"
        }
      ],
      "name": "Create",
      "type": "event"
    },
    {
      "anonymous": false,
      "inputs": [
        {
          "indexed": true,
          "internalType": "address",
          "name": "previousOwner",
          "type": "address"
        },
        {
          "indexed": true,
          "internalType": "address",
          "name": "newOwner",
          "type": "address"
        }
      ],
      "name": "OwnershipTransferred",
      "type": "event"
    },
    {
      "anonymous": false,
      "inputs": [
        {
          "indexed": true,
          "internalType": "address",
          "name": "from",
          "type": "address"
        },
        {
          "indexed": true,
          "internalType": "address",
          "name": "to",
          "type": "address"
        },
        {
          "indexed": true,
          "internalType": "uint256",
          "name": "tokenId",
          "type": "uint256"
        }
      ],
      "name": "Transfer",
      "type": "event"
    },
    {
      "inputs": [
        {
          "internalType": "address",
          "name": "to",
          "type": "address"
        },
        {
          "internalType": "uint256",
          "name": "tokenId",
          "type": "uint256"
        }
      ],
      "name": "approve",
      "outputs": [],
      "stateMutability": "nonpayable",
      "type": "function"
    },
    {
      "inputs": [
        {
          "internalType": "address",
          "name": "owner",
          "type": "address"
        }
      ],
      "name": "balanceOf",
      "outputs": [
        {
          "internalType": "uint256",
          "name": "",
          "type": "uint256"
        }
      ],
      "stateMutability": "view",
      "type": "function"
    },
    {
      "inputs": [],
      "name": "currentID",
      "outputs": [
        {
          "internalType": "uint256",
          "name": "",
          "type": "uint256"
        }
      ],
      "stateMutability": "view",
      "type": "function"
    },
    {
      "inputs": [
        {
          "internalType": "uint256",
          "name": "tokenId",
          "type": "uint256"
        }
      ],
      "name": "getApproved",
      "outputs": [
        {
          "internalType": "address",
          "name": "",
          "type": "address"
        }
      ],
      "stateMutability": "view",
      "type": "function"
    },
    {
      "inputs": [
        {
          "internalType": "uint256",
          "name": "id_",
          "type": "uint256"
        }
      ],
      "name": "getTicketsQuantityById",
      "outputs": [
        {
          "internalType": "uint256",
          "name": "",
          "type": "uint256"
        }
      ],
      "stateMutability": "view",
      "type": "function"
    },
    {
      "inputs": [
        {
          "internalType": "uint256[]",
          "name": "ids_",
          "type": "uint256[]"
        }
      ],
      "name": "getTicketsQuantityByIds",
      "outputs": [
        {
          "internalType": "uint256[]",
          "name": "",
          "type": "uint256[]"
        }
      ],
      "stateMutability": "view",
      "type": "function"
    },
    {
      "inputs": [
        {
          "internalType": "uint256",
          "name": "",
          "type": "uint256"
        }
      ],
      "name": "idToTier",
      "outputs": [
        {
          "internalType": "enum ISweetpadNFT.Tier",
          "name": "",
          "type": "uint8"
        }
      ],
      "stateMutability": "view",
      "type": "function"
    },
    {
      "inputs": [
        {
          "internalType": "address",
          "name": "owner",
          "type": "address"
        },
        {
          "internalType": "address",
          "name": "operator",
          "type": "address"
        }
      ],
      "name": "isApprovedForAll",
      "outputs": [
        {
          "internalType": "bool",
          "name": "",
          "type": "bool"
        }
      ],
      "stateMutability": "view",
      "type": "function"
    },
    {
      "inputs": [],
      "name": "name",
      "outputs": [
        {
          "internalType": "string",
          "name": "",
          "type": "string"
        }
      ],
      "stateMutability": "view",
      "type": "function"
    },
    {
      "inputs": [],
      "name": "owner",
      "outputs": [
        {
          "internalType": "address",
          "name": "",
          "type": "address"
        }
      ],
      "stateMutability": "view",
      "type": "function"
    },
    {
      "inputs": [
        {
          "internalType": "uint256",
          "name": "tokenId",
          "type": "uint256"
        }
      ],
      "name": "ownerOf",
      "outputs": [
        {
          "internalType": "address",
          "name": "",
          "type": "address"
        }
      ],
      "stateMutability": "view",
      "type": "function"
    },
    {
      "inputs": [],
      "name": "renounceOwnership",
      "outputs": [],
      "stateMutability": "nonpayable",
      "type": "function"
    },
    {
      "inputs": [
        {
          "internalType": "address",
          "name": "to_",
          "type": "address"
        },
        {
          "internalType": "uint256[]",
          "name": "ids_",
          "type": "uint256[]"
        },
        {
          "internalType": "bytes",
          "name": "data_",
          "type": "bytes"
        }
      ],
      "name": "safeBatchTransfer",
      "outputs": [],
      "stateMutability": "nonpayable",
      "type": "function"
    },
    {
      "inputs": [
        {
          "internalType": "address",
          "name": "from_",
          "type": "address"
        },
        {
          "internalType": "address",
          "name": "to_",
          "type": "address"
        },
        {
          "internalType": "uint256[]",
          "name": "ids_",
          "type": "uint256[]"
        },
        {
          "internalType": "bytes",
          "name": "data_",
          "type": "bytes"
        }
      ],
      "name": "safeBatchTransferFrom",
      "outputs": [],
      "stateMutability": "nonpayable",
      "type": "function"
    },
    {
      "inputs": [
        {
          "internalType": "address",
          "name": "account_",
          "type": "address"
        },
        {
          "internalType": "enum ISweetpadNFT.Tier",
          "name": "tier_",
          "type": "uint8"
        }
      ],
      "name": "safeMint",
      "outputs": [],
      "stateMutability": "nonpayable",
      "type": "function"
    },
    {
      "inputs": [
        {
          "internalType": "address",
          "name": "account_",
          "type": "address"
        },
        {
          "internalType": "enum ISweetpadNFT.Tier[]",
          "name": "tiers_",
          "type": "uint8[]"
        }
      ],
      "name": "safeMintBatch",
      "outputs": [],
      "stateMutability": "nonpayable",
      "type": "function"
    },
    {
      "inputs": [
        {
          "internalType": "address",
          "name": "to_",
          "type": "address"
        },
        {
          "internalType": "uint256",
          "name": "id_",
          "type": "uint256"
        },
        {
          "internalType": "bytes",
          "name": "data_",
          "type": "bytes"
        }
      ],
      "name": "safeTransfer",
      "outputs": [],
      "stateMutability": "nonpayable",
      "type": "function"
    },
    {
      "inputs": [
        {
          "internalType": "address",
          "name": "from",
          "type": "address"
        },
        {
          "internalType": "address",
          "name": "to",
          "type": "address"
        },
        {
          "internalType": "uint256",
          "name": "tokenId",
          "type": "uint256"
        }
      ],
      "name": "safeTransferFrom",
      "outputs": [],
      "stateMutability": "nonpayable",
      "type": "function"
    },
    {
      "inputs": [
        {
          "internalType": "address",
          "name": "from",
          "type": "address"
        },
        {
          "internalType": "address",
          "name": "to",
          "type": "address"
        },
        {
          "internalType": "uint256",
          "name": "tokenId",
          "type": "uint256"
        },
        {
          "internalType": "bytes",
          "name": "_data",
          "type": "bytes"
        }
      ],
      "name": "safeTransferFrom",
      "outputs": [],
      "stateMutability": "nonpayable",
      "type": "function"
    },
    {
      "inputs": [
        {
          "internalType": "address",
          "name": "operator",
          "type": "address"
        },
        {
          "internalType": "bool",
          "name": "approved",
          "type": "bool"
        }
      ],
      "name": "setApprovalForAll",
      "outputs": [],
      "stateMutability": "nonpayable",
      "type": "function"
    },
    {
      "inputs": [
        {
          "internalType": "string",
          "name": "baseURI_",
          "type": "string"
        }
      ],
      "name": "setBaseURI",
      "outputs": [],
      "stateMutability": "nonpayable",
      "type": "function"
    },
    {
      "inputs": [
        {
          "internalType": "bytes4",
          "name": "interfaceId",
          "type": "bytes4"
        }
      ],
      "name": "supportsInterface",
      "outputs": [
        {
          "internalType": "bool",
          "name": "",
          "type": "bool"
        }
      ],
      "stateMutability": "pure",
      "type": "function"
    },
    {
      "inputs": [],
      "name": "symbol",
      "outputs": [
        {
          "internalType": "string",
          "name": "",
          "type": "string"
        }
      ],
      "stateMutability": "view",
      "type": "function"
    },
    {
      "inputs": [
        {
          "internalType": "enum ISweetpadNFT.Tier",
          "name": "",
          "type": "uint8"
        }
      ],
      "name": "tierToBoost",
      "outputs": [
        {
          "internalType": "uint256",
          "name": "",
          "type": "uint256"
        }
      ],
      "stateMutability": "view",
      "type": "function"
    },
    {
      "inputs": [
        {
          "internalType": "uint256",
          "name": "tokenId_",
          "type": "uint256"
        }
      ],
      "name": "tokenURI",
      "outputs": [
        {
          "internalType": "string",
          "name": "",
          "type": "string"
        }
      ],
      "stateMutability": "view",
      "type": "function"
    },
    {
      "inputs": [
        {
          "internalType": "address",
          "name": "from",
          "type": "address"
        },
        {
          "internalType": "address",
          "name": "to",
          "type": "address"
        },
        {
          "internalType": "uint256",
          "name": "tokenId",
          "type": "uint256"
        }
      ],
      "name": "transferFrom",
      "outputs": [],
      "stateMutability": "nonpayable",
      "type": "function"
    },
    {
      "inputs": [
        {
          "internalType": "address",
          "name": "newOwner",
          "type": "address"
        }
      ],
      "name": "transferOwnership",
      "outputs": [],
      "stateMutability": "nonpayable",
      "type": "function"
    }
  ],
  "transactionHash": "0x58c308bf0002c3541537bee8f6f21ab36a1c5d80beb0fff2ce1d40e6f08b5847",
  "args": [],
  "numDeployments": 1,
  "solcInputHash": "3c6f06bdfe977e603b23d854fbb62806",
  "bytecode": "0x60c06040526007608081905266697066733a2f2f60c81b60a09081526200002a91600891906200018e565b503480156200003857600080fd5b50604080518082018252600c81526b29bbb2b2ba10223930b3b7b760a11b60208083019182528351808501909452600484526314d5d51160e21b90840152815191929162000089916000916200018e565b5080516200009f9060019060208401906200018e565b505050620000bc620000b66200013860201b60201c565b6200013c565b600a60205260057f13da86008ba1c6922daee3e07db95305ef49ebced9f5467a0b8613fcc6b343e355600c7fbbc70db1b6c7afd11e79c0fb0051300458f1a3acb8ee9789d9b6b26c61ad9bc7556002600052601e7fbff4442b8ed600beeb8e26b1279a0f0d14c6edfaec26d968ee13c86f7d4c2ba85562000271565b3390565b600680546001600160a01b038381166001600160a01b0319831681179093556040519116919082907f8be0079c531659141344cd1fd0a4f28419497f9722a3daafe3b4186f6b6457e090600090a35050565b8280546200019c9062000234565b90600052602060002090601f016020900481019282620001c057600085556200020b565b82601f10620001db57805160ff19168380011785556200020b565b828001600101855582156200020b579182015b828111156200020b578251825591602001919060010190620001ee565b50620002199291506200021d565b5090565b5b808211156200021957600081556001016200021e565b600181811c908216806200024957607f821691505b602082108114156200026b57634e487b7160e01b600052602260045260246000fd5b50919050565b611eef80620002816000396000f3fe608060405234801561001057600080fd5b50600436106101a95760003560e01c80636bca809a116100f9578063b88d4fde11610097578063e1aadc7f11610071578063e1aadc7f146103c7578063e985e9c5146103da578063eb79554914610416578063f2fde38b1461042957600080fd5b8063b88d4fde14610381578063c87b56dd14610394578063d1ab4c02146103a757600080fd5b8063761c4c40116100d3578063761c4c40146103425780638da5cb5b1461035557806395d89b4114610366578063a22cb4651461036e57600080fd5b80636bca809a146102f757806370a0823114610327578063715018a61461033a57600080fd5b806323b872dd116101665780634ef7fc71116101405780634ef7fc71146102ab57806355f804b3146102be5780636352211e146102d157806369e39175146102e457600080fd5b806323b872dd1461027257806328cfbd461461028557806342842e0e1461029857600080fd5b806301ffc9a7146101ae57806306fdde03146101e7578063081812fc146101fc578063095ea7b3146102275780630bc526ca1461023c5780631c75cfb41461025c575b600080fd5b6101d26101bc366004611a51565b6001600160e01b0319166380ac58cd60e01b1490565b60405190151581526020015b60405180910390f35b6101ef61043c565b6040516101de9190611c1c565b61020f61020a366004611aef565b6104ce565b6040516001600160a01b0390911681526020016101de565b61023a610235366004611965565b610568565b005b61024f61024a3660046119dc565b61067e565b6040516101de9190611bb0565b610264610771565b6040519081526020016101de565b61023a610280366004611741565b610781565b61023a6102933660046116bc565b6107b2565b61023a6102a6366004611741565b6107fc565b61023a6102b936600461188b565b610817565b61023a6102cc366004611aa6565b610860565b61020f6102df366004611aef565b6108a1565b61023a6102f23660046117d9565b61091e565b61031a610305366004611aef565b60096020526000908152604090205460ff1681565b6040516101de9190611bf4565b61026461033536600461166e565b610989565b61023a610a10565b61023a61035036600461193b565b610a46565b6006546001600160a01b031661020f565b6101ef610a7a565b61023a61037c3660046118ff565b610a89565b61023a61038f36600461177d565b610a94565b6101ef6103a2366004611aef565b610ac6565b6102646103b5366004611a8b565b600a6020526000908152604090205481565b6102646103d5366004611aef565b610b29565b6101d26103e8366004611689565b6001600160a01b03918216600090815260056020908152604080832093909416825291909152205460ff1690565b61023a61042436600461198f565b610b78565b61023a61043736600461166e565b610b84565b60606000805461044b90611dcb565b80601f016020809104026020016040519081016040528092919081815260200182805461047790611dcb565b80156104c45780601f10610499576101008083540402835291602001916104c4565b820191906000526020600020905b8154815290600101906020018083116104a757829003601f168201915b5050505050905090565b6000818152600260205260408120546001600160a01b031661054c5760405162461bcd60e51b815260206004820152602c60248201527f4552433732313a20617070726f76656420717565727920666f72206e6f6e657860448201526b34b9ba32b73a103a37b5b2b760a11b60648201526084015b60405180910390fd5b506000908152600460205260409020546001600160a01b031690565b6000610573826108a1565b9050806001600160a01b0316836001600160a01b031614156105e15760405162461bcd60e51b815260206004820152602160248201527f4552433732313a20617070726f76616c20746f2063757272656e74206f776e656044820152603960f91b6064820152608401610543565b336001600160a01b03821614806105fd57506105fd81336103e8565b61066f5760405162461bcd60e51b815260206004820152603860248201527f4552433732313a20617070726f76652063616c6c6572206973206e6f74206f7760448201527f6e6572206e6f7220617070726f76656420666f7220616c6c00000000000000006064820152608401610543565b6106798383610c1f565b505050565b606060008267ffffffffffffffff81111561069b5761069b611e8d565b6040519080825280602002602001820160405280156106c4578160200160208202803683370190505b50905060005b8381101561076957600a6000600960008888868181106106ec576106ec611e77565b602090810292909201358352508101919091526040016000205460ff16600281111561071a5761071a611e61565b600281111561072b5761072b611e61565b81526020019081526020016000205482828151811061074c5761074c611e77565b60209081029190910101528061076181611e06565b9150506106ca565b509392505050565b600061077c60075490565b905090565b61078b3382610c8d565b6107a75760405162461bcd60e51b815260040161054390611cb6565b610679838383610d84565b60005b82518110156107f5576107e385858584815181106107d5576107d5611e77565b602002602001015185610a94565b806107ed81611e06565b9150506107b5565b5050505050565b61067983838360405180602001604052806000815250610a94565b60005b825181101561085a57610848338585848151811061083a5761083a611e77565b602002602001015185610f20565b8061085281611e06565b91505061081a565b50505050565b6006546001600160a01b0316331461088a5760405162461bcd60e51b815260040161054390611c81565b805161089d9060089060208401906114b9565b5050565b6000818152600260205260408120546001600160a01b0316806109185760405162461bcd60e51b815260206004820152602960248201527f4552433732313a206f776e657220717565727920666f72206e6f6e657869737460448201526832b73a103a37b5b2b760b91b6064820152608401610543565b92915050565b6006546001600160a01b031633146109485760405162461bcd60e51b815260040161054390611c81565b60005b8151811015610679576109778383838151811061096a5761096a611e77565b6020026020010151610f53565b8061098181611e06565b91505061094b565b60006001600160a01b0382166109f45760405162461bcd60e51b815260206004820152602a60248201527f4552433732313a2062616c616e636520717565727920666f7220746865207a65604482015269726f206164647265737360b01b6064820152608401610543565b506001600160a01b031660009081526003602052604090205490565b6006546001600160a01b03163314610a3a5760405162461bcd60e51b815260040161054390611c81565b610a446000610ff4565b565b6006546001600160a01b03163314610a705760405162461bcd60e51b815260040161054390611c81565b61089d8282610f53565b60606001805461044b90611dcb565b61089d338383611046565b610a9e3383610c8d565b610aba5760405162461bcd60e51b815260040161054390611cb6565b61085a84848484610f20565b6000818152600260205260409020546060906001600160a01b0316610af257610aed611115565b610918565b610afa611115565b610b0383611124565b604051602001610b14929190611b34565b60405160208183030381529060405292915050565b600081815260096020526040812054600a90829060ff166002811115610b5157610b51611e61565b6002811115610b6257610b62611e61565b8152602001908152602001600020549050919050565b61067933848484610f20565b6006546001600160a01b03163314610bae5760405162461bcd60e51b815260040161054390611c81565b6001600160a01b038116610c135760405162461bcd60e51b815260206004820152602660248201527f4f776e61626c653a206e6577206f776e657220697320746865207a65726f206160448201526564647265737360d01b6064820152608401610543565b610c1c81610ff4565b50565b600081815260046020526040902080546001600160a01b0319166001600160a01b0384169081179091558190610c54826108a1565b6001600160a01b03167f8c5be1e5ebec7d5bd14f71427d1e84f3dd0314c0f7b2291e5b200ac8c7c3b92560405160405180910390a45050565b6000818152600260205260408120546001600160a01b0316610d065760405162461bcd60e51b815260206004820152602c60248201527f4552433732313a206f70657261746f7220717565727920666f72206e6f6e657860448201526b34b9ba32b73a103a37b5b2b760a11b6064820152608401610543565b6000610d11836108a1565b9050806001600160a01b0316846001600160a01b03161480610d5857506001600160a01b0380821660009081526005602090815260408083209388168352929052205460ff165b80610d7c5750836001600160a01b0316610d71846104ce565b6001600160a01b0316145b949350505050565b826001600160a01b0316610d97826108a1565b6001600160a01b031614610dfb5760405162461bcd60e51b815260206004820152602560248201527f4552433732313a207472616e736665722066726f6d20696e636f72726563742060448201526437bbb732b960d91b6064820152608401610543565b6001600160a01b038216610e5d5760405162461bcd60e51b8152602060048201526024808201527f4552433732313a207472616e7366657220746f20746865207a65726f206164646044820152637265737360e01b6064820152608401610543565b610e68600082610c1f565b6001600160a01b0383166000908152600360205260408120805460019290610e91908490611d88565b90915550506001600160a01b0382166000908152600360205260408120805460019290610ebf908490611d5c565b909155505060008181526002602052604080822080546001600160a01b0319166001600160a01b0386811691821790925591518493918716917fddf252ad1be2c89b69c2b068fc378daa952ba7f163c4a11628f55a4df523b3ef91a4505050565b610f2b848484610d84565b610f3784848484611222565b61085a5760405162461bcd60e51b815260040161054390611c2f565b610f61600780546001019055565b6000610f6c60075490565b9050610f78838261132f565b6000818152600960205260409020805483919060ff19166001836002811115610fa357610fa3611e61565b0217905550826001600160a01b0316826002811115610fc457610fc4611e61565b60405183907f43e6fe5ab208b61e1738d308954c5088333e4739034eb0dd1ffc60ebc0b1726490600090a4505050565b600680546001600160a01b038381166001600160a01b0319831681179093556040519116919082907f8be0079c531659141344cd1fd0a4f28419497f9722a3daafe3b4186f6b6457e090600090a35050565b816001600160a01b0316836001600160a01b031614156110a85760405162461bcd60e51b815260206004820152601960248201527f4552433732313a20617070726f766520746f2063616c6c6572000000000000006044820152606401610543565b6001600160a01b03838116600081815260056020908152604080832094871680845294825291829020805460ff191686151590811790915591519182527f17307eab39ab6107e8899845ad3d59bd9653f200f220920489ca2b5937696c31910160405180910390a3505050565b60606008805461044b90611dcb565b6060816111485750506040805180820190915260018152600360fc1b602082015290565b8160005b8115611172578061115c81611e06565b915061116b9050600a83611d74565b915061114c565b60008167ffffffffffffffff81111561118d5761118d611e8d565b6040519080825280601f01601f1916602001820160405280156111b7576020820181803683370190505b5090505b8415610d7c576111cc600183611d88565b91506111d9600a86611e21565b6111e4906030611d5c565b60f81b8183815181106111f9576111f9611e77565b60200101906001600160f81b031916908160001a90535061121b600a86611d74565b94506111bb565b60006001600160a01b0384163b1561132457604051630a85bd0160e11b81526001600160a01b0385169063150b7a0290611266903390899088908890600401611b73565b602060405180830381600087803b15801561128057600080fd5b505af19250505080156112b0575060408051601f3d908101601f191682019092526112ad91810190611a6e565b60015b61130a573d8080156112de576040519150601f19603f3d011682016040523d82523d6000602084013e6112e3565b606091505b5080516113025760405162461bcd60e51b815260040161054390611c2f565b805181602001fd5b6001600160e01b031916630a85bd0160e11b149050610d7c565b506001949350505050565b61089d82826040518060200160405280600081525061134e8383611377565b61135b6000848484611222565b6106795760405162461bcd60e51b815260040161054390611c2f565b6001600160a01b0382166113cd5760405162461bcd60e51b815260206004820181905260248201527f4552433732313a206d696e7420746f20746865207a65726f20616464726573736044820152606401610543565b6000818152600260205260409020546001600160a01b0316156114325760405162461bcd60e51b815260206004820152601c60248201527f4552433732313a20746f6b656e20616c7265616479206d696e746564000000006044820152606401610543565b6001600160a01b038216600090815260036020526040812080546001929061145b908490611d5c565b909155505060008181526002602052604080822080546001600160a01b0319166001600160a01b03861690811790915590518392907fddf252ad1be2c89b69c2b068fc378daa952ba7f163c4a11628f55a4df523b3ef908290a45050565b8280546114c590611dcb565b90600052602060002090601f0160209004810192826114e7576000855561152d565b82601f1061150057805160ff191683800117855561152d565b8280016001018555821561152d579182015b8281111561152d578251825591602001919060010190611512565b5061153992915061153d565b5090565b5b80821115611539576000815560010161153e565b600067ffffffffffffffff83111561156c5761156c611e8d565b61157f601f8401601f1916602001611d07565b905082815283838301111561159357600080fd5b828260208301376000602084830101529392505050565b80356001600160a01b03811681146115c157600080fd5b919050565b600082601f8301126115d757600080fd5b813560206115ec6115e783611d38565b611d07565b80838252828201915082860187848660051b890101111561160c57600080fd5b60005b8581101561162b5781358452928401929084019060010161160f565b5090979650505050505050565b600082601f83011261164957600080fd5b61165883833560208501611552565b9392505050565b8035600381106115c157600080fd5b60006020828403121561168057600080fd5b611658826115aa565b6000806040838503121561169c57600080fd5b6116a5836115aa565b91506116b3602084016115aa565b90509250929050565b600080600080608085870312156116d257600080fd5b6116db856115aa565b93506116e9602086016115aa565b9250604085013567ffffffffffffffff8082111561170657600080fd5b611712888389016115c6565b9350606087013591508082111561172857600080fd5b5061173587828801611638565b91505092959194509250565b60008060006060848603121561175657600080fd5b61175f846115aa565b925061176d602085016115aa565b9150604084013590509250925092565b6000806000806080858703121561179357600080fd5b61179c856115aa565b93506117aa602086016115aa565b925060408501359150606085013567ffffffffffffffff8111156117cd57600080fd5b61173587828801611638565b600080604083850312156117ec57600080fd5b6117f5836115aa565b915060208084013567ffffffffffffffff81111561181257600080fd5b8401601f8101861361182357600080fd5b80356118316115e782611d38565b80828252848201915084840189868560051b870101111561185157600080fd5b600094505b8385101561187b576118678161165f565b835260019490940193918501918501611856565b5080955050505050509250929050565b6000806000606084860312156118a057600080fd5b6118a9846115aa565b9250602084013567ffffffffffffffff808211156118c657600080fd5b6118d2878388016115c6565b935060408601359150808211156118e857600080fd5b506118f586828701611638565b9150509250925092565b6000806040838503121561191257600080fd5b61191b836115aa565b91506020830135801515811461193057600080fd5b809150509250929050565b6000806040838503121561194e57600080fd5b611957836115aa565b91506116b36020840161165f565b6000806040838503121561197857600080fd5b611981836115aa565b946020939093013593505050565b6000806000606084860312156119a457600080fd5b6119ad846115aa565b925060208401359150604084013567ffffffffffffffff8111156119d057600080fd5b6118f586828701611638565b600080602083850312156119ef57600080fd5b823567ffffffffffffffff80821115611a0757600080fd5b818501915085601f830112611a1b57600080fd5b813581811115611a2a57600080fd5b8660208260051b8501011115611a3f57600080fd5b60209290920196919550909350505050565b600060208284031215611a6357600080fd5b813561165881611ea3565b600060208284031215611a8057600080fd5b815161165881611ea3565b600060208284031215611a9d57600080fd5b6116588261165f565b600060208284031215611ab857600080fd5b813567ffffffffffffffff811115611acf57600080fd5b8201601f81018413611ae057600080fd5b610d7c84823560208401611552565b600060208284031215611b0157600080fd5b5035919050565b60008151808452611b20816020860160208601611d9f565b601f01601f19169290920160200192915050565b60008351611b46818460208801611d9f565b835190830190611b5a818360208801611d9f565b64173539b7b760d91b9101908152600501949350505050565b6001600160a01b0385811682528416602082015260408101839052608060608201819052600090611ba690830184611b08565b9695505050505050565b6020808252825182820181905260009190848201906040850190845b81811015611be857835183529284019291840191600101611bcc565b50909695505050505050565b6020810160038310611c1657634e487b7160e01b600052602160045260246000fd5b91905290565b6020815260006116586020830184611b08565b60208082526032908201527f4552433732313a207472616e7366657220746f206e6f6e20455243373231526560408201527131b2b4bb32b91034b6b83632b6b2b73a32b960711b606082015260800190565b6020808252818101527f4f776e61626c653a2063616c6c6572206973206e6f7420746865206f776e6572604082015260600190565b60208082526031908201527f4552433732313a207472616e736665722063616c6c6572206973206e6f74206f6040820152701ddb995c881b9bdc88185c1c1c9bdd9959607a1b606082015260800190565b604051601f8201601f1916810167ffffffffffffffff81118282101715611d3057611d30611e8d565b604052919050565b600067ffffffffffffffff821115611d5257611d52611e8d565b5060051b60200190565b60008219821115611d6f57611d6f611e35565b500190565b600082611d8357611d83611e4b565b500490565b600082821015611d9a57611d9a611e35565b500390565b60005b83811015611dba578181015183820152602001611da2565b8381111561085a5750506000910152565b600181811c90821680611ddf57607f821691505b60208210811415611e0057634e487b7160e01b600052602260045260246000fd5b50919050565b6000600019821415611e1a57611e1a611e35565b5060010190565b600082611e3057611e30611e4b565b500690565b634e487b7160e01b600052601160045260246000fd5b634e487b7160e01b600052601260045260246000fd5b634e487b7160e01b600052602160045260246000fd5b634e487b7160e01b600052603260045260246000fd5b634e487b7160e01b600052604160045260246000fd5b6001600160e01b031981168114610c1c57600080fdfea264697066735822122018bb9e37e6f8b243502ef2a7b15d66f3afc207a7b4e26c6632b19d50d492cb0d64736f6c63430008070033",
  "devdoc": {
    "details": "Contract module which provides functionality to mint new ERC721 tokens      Each token connected with image. The image saves on IPFS. Also each token belongs one of the Sweet tiers, and give      some tickets for lottery.",
    "kind": "dev",
    "methods": {
      "approve(address,uint256)": {
        "details": "See {IERC721-approve}."
      },
      "balanceOf(address)": {
        "details": "See {IERC721-balanceOf}."
      },
      "getApproved(uint256)": {
        "details": "See {IERC721-getApproved}."
      },
      "getTicketsQuantityById(uint256)": {
        "params": {
          "id_": "Token id"
        },
        "returns": {
          "_0": "ticketsQuantity Tickets quantity"
        }
      },
      "getTicketsQuantityByIds(uint256[])": {
        "params": {
          "ids_": "Array of token ids"
        },
        "returns": {
          "_0": "ticketsQuantity Array of tickets quantity"
        }
      },
      "isApprovedForAll(address,address)": {
        "details": "See {IERC721-isApprovedForAll}."
      },
      "name()": {
        "details": "See {IERC721Metadata-name}."
      },
      "owner()": {
        "details": "Returns the address of the current owner."
      },
      "ownerOf(uint256)": {
        "details": "See {IERC721-ownerOf}."
      },
      "renounceOwnership()": {
        "details": "Leaves the contract without owner. It will not be possible to call `onlyOwner` functions anymore. Can only be called by the current owner. NOTE: Renouncing ownership will leave the contract without an owner, thereby removing any functionality that is only available to the owner."
      },
      "safeBatchTransfer(address,uint256[],bytes)": {
        "params": {
          "data_": "The _data argument MAY be re-purposed for the new context.",
          "ids_": "Array of token ids",
          "to_": "The address of the tokens receiver"
        }
      },
      "safeBatchTransferFrom(address,address,uint256[],bytes)": {
        "params": {
          "data_": "The _data argument MAY be re-purposed for the new context.",
          "from_": "The address of the tokens owner",
          "ids_": "Array of token ids",
          "to_": "The address of the tokens receiver"
        }
      },
      "safeMint(address,uint8)": {
        "params": {
          "tier_": "tier"
        }
      },
      "safeMintBatch(address,uint8[])": {
        "params": {
          "account_": "The address of the owner of tokens",
          "tiers_": "Array of tiers"
        }
      },
      "safeTransfer(address,uint256,bytes)": {
        "params": {
          "data_": "The _data argument MAY be re-purposed for the new context.",
          "id_": "token id",
          "to_": "The address of the token receiver"
        }
      },
      "safeTransferFrom(address,address,uint256)": {
        "details": "See {IERC721-safeTransferFrom}."
      },
      "safeTransferFrom(address,address,uint256,bytes)": {
        "details": "See {IERC721-safeTransferFrom}."
      },
      "setApprovalForAll(address,bool)": {
        "details": "See {IERC721-setApprovalForAll}."
      },
      "symbol()": {
        "details": "See {IERC721Metadata-symbol}."
      },
      "transferFrom(address,address,uint256)": {
        "details": "See {IERC721-transferFrom}."
      },
      "transferOwnership(address)": {
        "details": "Transfers ownership of the contract to a new account (`newOwner`). Can only be called by the current owner."
      }
    },
    "stateVariables": {
      "idCounter": {
        "details": "ERC721 id, Indicates a specific token or token type"
      },
      "idToTier": {
        "details": "The data for each SweetpadNFT token"
      }
    },
    "title": "SweetpadNFT",
    "version": 1
  },
  "userdoc": {
    "events": {
      "Create(uint256,uint8,address)": {
        "notice": "Emitted when new NFT is minted"
      }
    },
    "kind": "user",
    "methods": {
      "constructor": {
        "notice": "Initialize contract"
      },
      "getTicketsQuantityById(uint256)": {
        "notice": "Function to get tickets quantity by tokens id."
      },
      "getTicketsQuantityByIds(uint256[])": {
        "notice": "Function to get tickets quantity by tokens ids."
      },
      "safeBatchTransfer(address,uint256[],bytes)": {
        "notice": "Transfer tokens to another account"
      },
      "safeBatchTransferFrom(address,address,uint256[],bytes)": {
        "notice": "Transfer tokens from 'from' to 'to'"
      },
      "safeMint(address,uint8)": {
        "notice": "Mint new 721 standard token"
      },
      "safeMintBatch(address,uint8[])": {
        "notice": "Mint new ERC721 standard tokens in one transaction"
      },
      "safeTransfer(address,uint256,bytes)": {
        "notice": "Transfer token to another account"
      }
    },
    "version": 1
  },
  "storageLayout": {
    "storage": [
      {
        "astId": 2444,
        "contract": "contracts/SweetpadNFT.sol:SweetpadNFT",
        "label": "_name",
        "offset": 0,
        "slot": "0",
        "type": "t_string_storage"
      },
      {
        "astId": 2446,
        "contract": "contracts/SweetpadNFT.sol:SweetpadNFT",
        "label": "_symbol",
        "offset": 0,
        "slot": "1",
        "type": "t_string_storage"
      },
      {
        "astId": 2450,
        "contract": "contracts/SweetpadNFT.sol:SweetpadNFT",
        "label": "_owners",
        "offset": 0,
        "slot": "2",
        "type": "t_mapping(t_uint256,t_address)"
      },
      {
        "astId": 2454,
        "contract": "contracts/SweetpadNFT.sol:SweetpadNFT",
        "label": "_balances",
        "offset": 0,
        "slot": "3",
        "type": "t_mapping(t_address,t_uint256)"
      },
      {
        "astId": 2458,
        "contract": "contracts/SweetpadNFT.sol:SweetpadNFT",
        "label": "_tokenApprovals",
        "offset": 0,
        "slot": "4",
        "type": "t_mapping(t_uint256,t_address)"
      },
      {
        "astId": 2464,
        "contract": "contracts/SweetpadNFT.sol:SweetpadNFT",
        "label": "_operatorApprovals",
        "offset": 0,
        "slot": "5",
        "type": "t_mapping(t_address,t_mapping(t_address,t_bool))"
      },
      {
        "astId": 7,
        "contract": "contracts/SweetpadNFT.sol:SweetpadNFT",
        "label": "_owner",
        "offset": 0,
        "slot": "6",
        "type": "t_address"
      },
      {
        "astId": 4528,
        "contract": "contracts/SweetpadNFT.sol:SweetpadNFT",
        "label": "idCounter",
        "offset": 0,
        "slot": "7",
        "type": "t_struct(Counter)3795_storage"
      },
      {
        "astId": 4531,
        "contract": "contracts/SweetpadNFT.sol:SweetpadNFT",
        "label": "baseURI",
        "offset": 0,
        "slot": "8",
        "type": "t_string_storage"
      },
      {
        "astId": 4538,
        "contract": "contracts/SweetpadNFT.sol:SweetpadNFT",
        "label": "idToTier",
        "offset": 0,
        "slot": "9",
        "type": "t_mapping(t_uint256,t_enum(Tier)5902)"
      },
      {
        "astId": 4544,
        "contract": "contracts/SweetpadNFT.sol:SweetpadNFT",
        "label": "tierToBoost",
        "offset": 0,
        "slot": "10",
        "type": "t_mapping(t_enum(Tier)5902,t_uint256)"
      }
    ],
    "types": {
      "t_address": {
        "encoding": "inplace",
        "label": "address",
        "numberOfBytes": "20"
      },
      "t_bool": {
        "encoding": "inplace",
        "label": "bool",
        "numberOfBytes": "1"
      },
      "t_enum(Tier)5902": {
        "encoding": "inplace",
        "label": "enum ISweetpadNFT.Tier",
        "numberOfBytes": "1"
      },
      "t_mapping(t_address,t_bool)": {
        "encoding": "mapping",
        "key": "t_address",
        "label": "mapping(address => bool)",
        "numberOfBytes": "32",
        "value": "t_bool"
      },
      "t_mapping(t_address,t_mapping(t_address,t_bool))": {
        "encoding": "mapping",
        "key": "t_address",
        "label": "mapping(address => mapping(address => bool))",
        "numberOfBytes": "32",
        "value": "t_mapping(t_address,t_bool)"
      },
      "t_mapping(t_address,t_uint256)": {
        "encoding": "mapping",
        "key": "t_address",
        "label": "mapping(address => uint256)",
        "numberOfBytes": "32",
        "value": "t_uint256"
      },
      "t_mapping(t_enum(Tier)5902,t_uint256)": {
        "encoding": "mapping",
        "key": "t_enum(Tier)5902",
        "label": "mapping(enum ISweetpadNFT.Tier => uint256)",
        "numberOfBytes": "32",
        "value": "t_uint256"
      },
      "t_mapping(t_uint256,t_address)": {
        "encoding": "mapping",
        "key": "t_uint256",
        "label": "mapping(uint256 => address)",
        "numberOfBytes": "32",
        "value": "t_address"
      },
      "t_mapping(t_uint256,t_enum(Tier)5902)": {
        "encoding": "mapping",
        "key": "t_uint256",
        "label": "mapping(uint256 => enum ISweetpadNFT.Tier)",
        "numberOfBytes": "32",
        "value": "t_enum(Tier)5902"
      },
      "t_string_storage": {
        "encoding": "bytes",
        "label": "string",
        "numberOfBytes": "32"
      },
      "t_struct(Counter)3795_storage": {
        "encoding": "inplace",
        "label": "struct Counters.Counter",
        "members": [
          {
            "astId": 3794,
            "contract": "contracts/SweetpadNFT.sol:SweetpadNFT",
            "label": "_value",
            "offset": 0,
            "slot": "0",
            "type": "t_uint256"
          }
        ],
        "numberOfBytes": "32"
      },
      "t_uint256": {
        "encoding": "inplace",
        "label": "uint256",
        "numberOfBytes": "32"
      }
    }
  }
}