{
  "address": "0x5196615624ea4A19E275Be4186fccdf330FC0A8D",
  "abi": [
    {
      "inputs": [
        {
          "internalType": "contract IERC20",
          "name": "sweetToken_",
          "type": "address"
        }
      ],
      "stateMutability": "nonpayable",
      "type": "constructor"
    },
    {
      "anonymous": false,
      "inputs": [
        {
          "indexed": false,
          "internalType": "uint256",
          "name": "id",
          "type": "uint256"
        },
        {
          "indexed": true,
          "internalType": "address",
          "name": "account",
          "type": "address"
        },
        {
          "indexed": false,
          "internalType": "uint256",
          "name": "amount",
          "type": "uint256"
        },
        {
          "indexed": false,
          "internalType": "uint256",
          "name": "power",
          "type": "uint256"
        },
        {
          "indexed": false,
          "internalType": "uint8",
          "name": "asset",
          "type": "uint8"
        }
      ],
      "name": "Freeze",
      "type": "event"
    },
    {
      "anonymous": false,
      "inputs": [
        {
          "indexed": false,
          "internalType": "uint256",
          "name": "oldMultiplier",
          "type": "uint256"
        },
        {
          "indexed": false,
          "internalType": "uint256",
          "name": "newMultiplier",
          "type": "uint256"
        }
      ],
      "name": "MultiplierReseted",
      "type": "event"
    },
    {
      "anonymous": false,
      "inputs": [
        {
          "indexed": true,
          "internalType": "address",
          "name": "previousOwner",
          "type": "address"
        },
        {
          "indexed": true,
          "internalType": "address",
          "name": "newOwner",
          "type": "address"
        }
      ],
      "name": "OwnershipTransferred",
      "type": "event"
    },
    {
      "anonymous": false,
      "inputs": [
        {
          "indexed": false,
          "internalType": "uint256",
          "name": "id",
          "type": "uint256"
        },
        {
          "indexed": true,
          "internalType": "address",
          "name": "account",
          "type": "address"
        },
        {
          "indexed": false,
          "internalType": "uint256",
          "name": "power",
          "type": "uint256"
        },
        {
          "indexed": false,
          "internalType": "uint8",
          "name": "asset",
          "type": "uint8"
        }
      ],
      "name": "UnFreeze",
      "type": "event"
    },
    {
      "stateMutability": "payable",
      "type": "fallback"
    },
    {
      "inputs": [],
      "name": "ROUTER_ADDRESS",
      "outputs": [
        {
          "internalType": "address",
          "name": "",
          "type": "address"
        }
      ],
      "stateMutability": "view",
      "type": "function"
    },
    {
      "inputs": [
        {
          "internalType": "address",
          "name": "",
          "type": "address"
        },
        {
          "internalType": "uint256",
          "name": "",
          "type": "uint256"
        }
      ],
      "name": "freezeInfo",
      "outputs": [
        {
          "internalType": "uint256",
          "name": "frozenUntil",
          "type": "uint256"
        },
        {
          "internalType": "uint256",
          "name": "period",
          "type": "uint256"
        },
        {
          "internalType": "uint256",
          "name": "frozenAmount",
          "type": "uint256"
        },
        {
          "internalType": "uint256",
          "name": "power",
          "type": "uint256"
        },
        {
          "internalType": "uint8",
          "name": "asset",
          "type": "uint8"
        }
      ],
      "stateMutability": "view",
      "type": "function"
    },
    {
      "inputs": [
        {
          "internalType": "uint256",
          "name": "amount_",
          "type": "uint256"
        },
        {
          "internalType": "uint256",
          "name": "period_",
          "type": "uint256"
        }
      ],
      "name": "freezeLP",
      "outputs": [],
      "stateMutability": "nonpayable",
      "type": "function"
    },
    {
      "inputs": [
        {
          "internalType": "uint256",
          "name": "amount_",
          "type": "uint256"
        },
        {
          "internalType": "uint256",
          "name": "period_",
          "type": "uint256"
        }
      ],
      "name": "freezeSWT",
      "outputs": [],
      "stateMutability": "nonpayable",
      "type": "function"
    },
    {
      "inputs": [
        {
          "internalType": "uint256",
          "name": "period_",
          "type": "uint256"
        },
        {
          "internalType": "uint256",
          "name": "amountOutMin",
          "type": "uint256"
        },
        {
          "internalType": "uint256",
          "name": "amountTokenMin",
          "type": "uint256"
        },
        {
          "internalType": "uint256",
          "name": "amountETHMin",
          "type": "uint256"
        },
        {
          "internalType": "uint256",
          "name": "deadline_",
          "type": "uint256"
        }
      ],
      "name": "freezeWithBNB",
      "outputs": [],
      "stateMutability": "payable",
      "type": "function"
    },
    {
      "inputs": [],
      "name": "getBlocksPerDay",
      "outputs": [
        {
          "internalType": "uint256",
          "name": "",
          "type": "uint256"
        }
      ],
      "stateMutability": "pure",
      "type": "function"
    },
    {
      "inputs": [
        {
          "internalType": "address",
          "name": "account_",
          "type": "address"
        }
      ],
      "name": "getFreezes",
      "outputs": [
        {
          "components": [
            {
              "internalType": "uint256",
              "name": "frozenUntil",
              "type": "uint256"
            },
            {
              "internalType": "uint256",
              "name": "period",
              "type": "uint256"
            },
            {
              "internalType": "uint256",
              "name": "frozenAmount",
              "type": "uint256"
            },
            {
              "internalType": "uint256",
              "name": "power",
              "type": "uint256"
            },
            {
              "internalType": "uint8",
              "name": "asset",
              "type": "uint8"
            }
          ],
          "internalType": "struct ISweetpadFreezing.FreezeInfo[]",
          "name": "",
          "type": "tuple[]"
        }
      ],
      "stateMutability": "view",
      "type": "function"
    },
    {
      "inputs": [],
      "name": "getMaxFreezePeriod",
      "outputs": [
        {
          "internalType": "uint256",
          "name": "",
          "type": "uint256"
        }
      ],
      "stateMutability": "pure",
      "type": "function"
    },
    {
      "inputs": [],
      "name": "getMinFreezePeriod",
      "outputs": [
        {
          "internalType": "uint256",
          "name": "",
          "type": "uint256"
        }
      ],
      "stateMutability": "pure",
      "type": "function"
    },
    {
      "inputs": [
        {
          "internalType": "uint256",
          "name": "amount_",
          "type": "uint256"
        },
        {
          "internalType": "uint256",
          "name": "period_",
          "type": "uint256"
        }
      ],
      "name": "getPower",
      "outputs": [
        {
          "internalType": "uint256",
          "name": "power",
          "type": "uint256"
        }
      ],
      "stateMutability": "pure",
      "type": "function"
    },
    {
      "inputs": [],
      "name": "lpToken",
      "outputs": [
        {
          "internalType": "contract IERC20",
          "name": "",
          "type": "address"
        }
      ],
      "stateMutability": "view",
      "type": "function"
    },
    {
      "inputs": [],
      "name": "multiplier",
      "outputs": [
        {
          "internalType": "uint256",
          "name": "",
          "type": "uint256"
        }
      ],
      "stateMutability": "view",
      "type": "function"
    },
    {
      "inputs": [],
      "name": "owner",
      "outputs": [
        {
          "internalType": "address",
          "name": "",
          "type": "address"
        }
      ],
      "stateMutability": "view",
      "type": "function"
    },
    {
      "inputs": [],
      "name": "renounceOwnership",
      "outputs": [],
      "stateMutability": "nonpayable",
      "type": "function"
    },
    {
      "inputs": [],
      "name": "router",
      "outputs": [
        {
          "internalType": "contract IApeRouter02",
          "name": "",
          "type": "address"
        }
      ],
      "stateMutability": "view",
      "type": "function"
    },
    {
      "inputs": [
        {
          "internalType": "contract IERC20",
          "name": "lpToken_",
          "type": "address"
        }
      ],
      "name": "setLPToken",
      "outputs": [],
      "stateMutability": "nonpayable",
      "type": "function"
    },
    {
      "inputs": [
        {
          "internalType": "uint256",
          "name": "multiplier_",
          "type": "uint256"
        }
      ],
      "name": "setMultiplier",
      "outputs": [],
      "stateMutability": "nonpayable",
      "type": "function"
    },
    {
      "inputs": [],
      "name": "sweetToken",
      "outputs": [
        {
          "internalType": "contract IERC20",
          "name": "",
          "type": "address"
        }
      ],
      "stateMutability": "view",
      "type": "function"
    },
    {
      "inputs": [],
      "name": "totalFrozenLP",
      "outputs": [
        {
          "internalType": "uint256",
          "name": "",
          "type": "uint256"
        }
      ],
      "stateMutability": "view",
      "type": "function"
    },
    {
      "inputs": [],
      "name": "totalFrozenSWT",
      "outputs": [
        {
          "internalType": "uint256",
          "name": "",
          "type": "uint256"
        }
      ],
      "stateMutability": "view",
      "type": "function"
    },
    {
      "inputs": [
        {
          "internalType": "address",
          "name": "",
          "type": "address"
        }
      ],
      "name": "totalPower",
      "outputs": [
        {
          "internalType": "uint256",
          "name": "",
          "type": "uint256"
        }
      ],
      "stateMutability": "view",
      "type": "function"
    },
    {
      "inputs": [
        {
          "internalType": "address",
          "name": "newOwner",
          "type": "address"
        }
      ],
      "name": "transferOwnership",
      "outputs": [],
      "stateMutability": "nonpayable",
      "type": "function"
    },
    {
      "inputs": [
        {
          "internalType": "uint256",
          "name": "id_",
          "type": "uint256"
        }
      ],
      "name": "unfreezeLP",
      "outputs": [],
      "stateMutability": "nonpayable",
      "type": "function"
    },
    {
      "inputs": [
        {
          "internalType": "uint256",
          "name": "id_",
          "type": "uint256"
        },
        {
          "internalType": "uint256",
          "name": "amount_",
          "type": "uint256"
        }
      ],
      "name": "unfreezeSWT",
      "outputs": [],
      "stateMutability": "nonpayable",
      "type": "function"
    },
    {
      "stateMutability": "payable",
      "type": "receive"
    }
  ],
  "transactionHash": "0x828edef9dd50f3d6235fb8f4990a6213583654a147e485bc9348dafc628272f2",
  "args": [
    "0x6147Bc9c226748B47BFeA290f58CD0E5dC2E5D72"
  ],
  "numDeployments": 3,
  "solcInputHash": "818c24a03a71d5abe5f9c3657ca0e865",
  "bytecode": "0x6080604052600880546001600160a01b031916737a250d5630b4cf539739df2c5dacb4c659f2488d1790553480156200003757600080fd5b50604051620021f3380380620021f38339810160408190526200005a916200015c565b62000065336200010c565b6001600160a01b038116620000e65760405162461bcd60e51b815260206004820152603460248201527f5377656574706164467265657a696e673a20546f6b656e20616464726573732060448201527f63616e74206265205a65726f2061646472657373000000000000000000000000606482015260840160405180910390fd5b600680546001600160a01b0319166001600160a01b03929092169190911790556200018e565b600080546001600160a01b038381166001600160a01b0319831681178455604051919092169283917f8be0079c531659141344cd1fd0a4f28419497f9722a3daafe3b4186f6b6457e09190a35050565b6000602082840312156200016f57600080fd5b81516001600160a01b03811681146200018757600080fd5b9392505050565b612055806200019e6000396000f3fe6080604052600436106101435760003560e01c806389ea7e38116100b0578063aa716c7d1161006c578063aa716c7d1461038d578063ae8a3025146103a1578063b94a6dfe146103ec578063c64073f514610414578063f2fde38b1461042a578063f887ea401461044a57005b806389ea7e38146102cf5780638da5cb5b146102e2578063946280501461030057806394fa0aaf1461032057806399b5e48c14610340578063a88a0c301461036d57005b80633f96d53a116100ff5780633f96d53a1461020d5780635fcbd2851461022d578063641579a6146102655780636a678a9c14610285578063715018a6146102a557806387c5e813146102ba57005b8063051671ce1461014c5780630eacae841461017f57806314b4f2a8146101945780631b373437146101aa5780631b3ed722146101ca5780631f21138c146101e057005b3661014a57005b005b34801561015857600080fd5b5061016c610167366004611c7b565b61046a565b6040519081526020015b60405180910390f35b34801561018b57600080fd5b5061016c6105a5565b3480156101a057600080fd5b5061016c60035481565b3480156101b657600080fd5b5061014a6101c5366004611c49565b6105b8565b3480156101d657600080fd5b5061016c60015481565b3480156101ec57600080fd5b5061016c6101fb366004611afc565b60056020526000908152604090205481565b34801561021957600080fd5b5061014a610228366004611c7b565b6106aa565b34801561023957600080fd5b5060075461024d906001600160a01b031681565b6040516001600160a01b039091168152602001610176565b34801561027157600080fd5b5061014a610280366004611c49565b61071a565b34801561029157600080fd5b5061014a6102a0366004611afc565b6107e9565b3480156102b157600080fd5b5061014a6108b1565b3480156102c657600080fd5b5061016c6108e7565b61014a6102dd366004611ccb565b6108f6565b3480156102ee57600080fd5b506000546001600160a01b031661024d565b34801561030c57600080fd5b5061014a61031b366004611c7b565b6109c2565b34801561032c57600080fd5b5060065461024d906001600160a01b031681565b34801561034c57600080fd5b5061036061035b366004611afc565b610be7565b6040516101769190611d22565b34801561037957600080fd5b5061014a610388366004611c7b565b610c8b565b34801561039957600080fd5b50600161016c565b3480156103ad57600080fd5b506103c16103bc366004611b36565b610cdd565b60408051958652602086019490945292840191909152606083015260ff16608082015260a001610176565b3480156103f857600080fd5b5061024d737a250d5630b4cf539739df2c5dacb4c659f2488d81565b34801561042057600080fd5b5061016c60025481565b34801561043657600080fd5b5061014a610445366004611afc565b610d2e565b34801561045657600080fd5b5060085461024d906001600160a01b031681565b60008161047960016032611f66565b11158015610493575061048f600161012c611f66565b8211155b6104e45760405162461bcd60e51b815260206004820152601e60248201527f5377656574706164467265657a696e673a2057726f6e6720706572696f64000060448201526064015b60405180910390fd5b6104f060016032611f66565b82141561050957610502600284611f1a565b905061059f565b61051560016032611f66565b8211801561052e575061052a60016064611f66565b8211155b1561055557600160646105418585611f66565b61054b9190611f1a565b6105029190611f1a565b600161056360646002611f3c565b61ffff168461057460016064611f66565b61057e9086611f02565b6105889190611f66565b6105929190611f1a565b61059c9190611f1a565b90505b92915050565b60006105b360016032611f66565b905090565b3360009081526004602052604081208054839081106105d9576105d9611fde565b60009182526020918290206040805160a08101825260059093029091018054835260018082015494840194909452600281015491830191909152600381015460608301526004015460ff16608082018190529092501461067b5760405162461bcd60e51b815260206004820152601a60248201527f5377656574706164467265657a696e673a2057726f6e6720494400000000000060448201526064016104db565b805143101561069c5760405162461bcd60e51b81526004016104db90611e18565b6106a63383610dc9565b5050565b600060646001546106bb858561046a565b6106c59190611f66565b6106cf9190611f1a565b905069021e19e0c9bab24000008110156106fb5760405162461bcd60e51b81526004016104db90611dc6565b610709338484846001610f4d565b610715338460016110cd565b505050565b6000546001600160a01b031633146107445760405162461bcd60e51b81526004016104db90611e63565b600154816107a75760405162461bcd60e51b815260206004820152602a60248201527f5377656574706164467265657a696e673a204d756c7469706c6965722063616e6044820152692774206265207a65726f60b01b60648201526084016104db565b600182905560408051828152602081018490527fcec6f475a0d76b3c6053fe73249cd80c6682e2fc172909e742bd1b8c050bba73910160405180910390a15050565b6000546001600160a01b031633146108135760405162461bcd60e51b81526004016104db90611e63565b6001600160a01b03811661088f5760405162461bcd60e51b815260206004820152603760248201527f5377656574706164467265657a696e673a204c5020746f6b656e20616464726560448201527f73732063616e74206265205a65726f206164647265737300000000000000000060648201526084016104db565b600780546001600160a01b0319166001600160a01b0392909216919091179055565b6000546001600160a01b031633146108db5760405162461bcd60e51b81526004016104db90611e63565b6108e56000611108565b565b60006105b3600161012c611f66565b600061090d610906600234611f1a565b8684611158565b905060008160018151811061092457610924611fde565b602002602001015190506000610956336002346109419190611f1a565b6006546001600160a01b0316858a8a8a6112e3565b905060006064600154610969848c61046a565b6109739190611f66565b61097d9190611f1a565b905069021e19e0c9bab24000008110156109a95760405162461bcd60e51b81526004016104db90611dc6565b6109b733838b846001610f4d565b505050505050505050565b3360009081526004602052604081208054849081106109e3576109e3611fde565b60009182526020918290206040805160a0810182526005909302909101805483526001810154938301939093526002830154908201526003820154606082015260049091015460ff166080820181905290915015610a835760405162461bcd60e51b815260206004820152601a60248201527f5377656574706164467265657a696e673a2057726f6e6720494400000000000060448201526064016104db565b6040810151610ae45760405162461bcd60e51b815260206004820152602760248201527f5377656574706164467265657a696e673a2046726f7a656e20616d6f756e74206044820152666973205a65726f60c81b60648201526084016104db565b8181604001511015610b4d5760405162461bcd60e51b815260206004820152602c60248201527f5377656574706164467265657a696e673a20496e73756666696369656e74206660448201526b1c9bde995b88185b5bdd5b9d60a21b60648201526084016104db565b8051431015610b6e5760405162461bcd60e51b81526004016104db90611e18565b6000610b8d838360400151610b839190611f85565b836020015161046a565b905069021e19e0c9bab240000081101580610ba6575080155b610bc25760405162461bcd60e51b81526004016104db90611dc6565b6000610bd284846020015161046a565b9050610be033868684611408565b5050505050565b6001600160a01b0381166000908152600460209081526040808320805482518185028101850190935280835260609492939192909184015b82821015610c805760008481526020908190206040805160a081018252600586029092018054835260018082015484860152600282015492840192909252600381015460608401526004015460ff1660808301529083529092019101610c1f565b505050509050919050565b6000610c97838361046a565b905069021e19e0c9bab2400000811015610cc35760405162461bcd60e51b81526004016104db90611dc6565b610cd1338484846000610f4d565b610715338460006110cd565b60046020528160005260406000208181548110610cf957600080fd5b600091825260209091206005909102018054600182015460028301546003840154600490940154929550909350919060ff1685565b6000546001600160a01b03163314610d585760405162461bcd60e51b81526004016104db90611e63565b6001600160a01b038116610dbd5760405162461bcd60e51b815260206004820152602660248201527f4f776e61626c653a206e6577206f776e657220697320746865207a65726f206160448201526564647265737360d01b60648201526084016104db565b610dc681611108565b50565b6001600160a01b0382166000908152600460205260408120805483908110610df357610df3611fde565b600091825260208083206040805160a08101825260059485029092018054835260018101548385015260028101548383015260038101546060840181905260049091015460ff1660808401526001600160a01b0389168652939092529083208054919450919290610e65908490611f85565b90915550506040808201516001600160a01b0385166000908152600460205291909120805484908110610e9a57610e9a611fde565b600091825260208220600590910201818155600181018290556002810182905560038082018390556004909101805460ff191690558054839290610edf908490611f85565b9091555050604080518481526020810183905260018183015290516001600160a01b038616917fed7dbff500dc30ea10e708531d2884c45513387230d3516204441599c7bf404b919081900360600190a2600754610f47906001600160a01b0316858361166a565b50505050565b6001600160a01b03851660009081526004602052604090819020815160a081019092529080610f7c8643611f02565b815260208082018790526040808301899052606080840188905260ff878116608095860152865460018082018955600098895285892088516005938402909101908155888701519181019190915587850151600282015592870151600384015595909401516004909101805460ff191691909416179092556001600160a01b03891684529190915281208054849290611016908490611f02565b909155505060ff81166110405783600260008282546110359190611f02565b909155506110589050565b83600360008282546110529190611f02565b90915550505b6001600160a01b0385166000818152600460205260409020547fa9b2b20ae2cd3e92c9c0d040b69f8eb7ff559f71e759697ee005e61021ae17179061109f90600190611f85565b6040805191825260208201889052810185905260ff8416606082015260800160405180910390a25050505050565b6006546001600160a01b031660ff8216600114156110f357506007546001600160a01b03165b610f476001600160a01b0382168530866116cd565b600080546001600160a01b038381166001600160a01b0319831681178455604051919092169283917f8be0079c531659141344cd1fd0a4f28419497f9722a3daafe3b4186f6b6457e09190a35050565b604080516002808252606080830184529260009291906020830190803683375050600854604080516315ab88c960e31b815290519394506001600160a01b039091169263ad5c464892506004808301926020929190829003018186803b1580156111c157600080fd5b505afa1580156111d5573d6000803e3d6000fd5b505050506040513d601f19601f820116820180604052508101906111f99190611b19565b8160008151811061120c5761120c611fde565b6001600160a01b03928316602091820292909201015260065482519116908290600190811061123d5761123d611fde565b6001600160a01b039283166020918202929092010152600854604051637ff36ab560e01b8152911690637ff36ab5908790611282908890869030908a90600401611e98565b6000604051808303818588803b15801561129b57600080fd5b505af11580156112af573d6000803e3d6000fd5b50505050506040513d6000823e601f3d908101601f191682016040526112d89190810190611b62565b9150505b9392505050565b600654600090611311906001600160a01b0316737a250d5630b4cf539739df2c5dacb4c659f2488d87611705565b60085460405163f305d71960e01b81526001600160a01b03888116600483015260248201889052604482018790526064820186905230608483015260a48201859052600092839283929091169063f305d719908c9060c4016060604051808303818588803b15801561138257600080fd5b505af1158015611396573d6000803e3d6000fd5b50505050506040513d601f19601f820116820180604052508101906113bb9190611c9d565b9250925092506113ce8b8b8a8587611829565b6006546113fa906001600160a01b0316737a250d5630b4cf539739df2c5dacb4c659f2488d6000611705565b9a9950505050505050505050565b6001600160a01b038416600090815260046020526040902080548490811061143257611432611fde565b906000526020600020906005020160020154821415611522576001600160a01b038416600090815260046020526040902080548490811061147557611475611fde565b90600052602060002090600502016003015460056000866001600160a01b03166001600160a01b0316815260200190815260200160002060008282546114bb9190611f85565b90915550506001600160a01b03841660009081526004602052604090208054849081106114ea576114ea611fde565b60009182526020822060059091020181815560018101829055600281018290556003810191909155600401805460ff191690556115f4565b6001600160a01b0384166000908152600560205260408120805483929061154a908490611f85565b90915550506001600160a01b038416600090815260046020526040902080548391908590811061157c5761157c611fde565b9060005260206000209060050201600201600082825461159c9190611f85565b90915550506001600160a01b03841660009081526004602052604090208054829190859081106115ce576115ce611fde565b906000526020600020906005020160030160008282546115ee9190611f85565b90915550505b81600260008282546116069190611f85565b9091555050604080518481526020810184905260008183015290516001600160a01b038616917fed7dbff500dc30ea10e708531d2884c45513387230d3516204441599c7bf404b919081900360600190a2600654610f47906001600160a01b031685845b6040516001600160a01b03831660248201526044810182905261071590849063a9059cbb60e01b906064015b60408051601f198184030181529190526020810180516001600160e01b03166001600160e01b0319909316929092179091526118a9565b6040516001600160a01b0380851660248301528316604482015260648101829052610f479085906323b872dd60e01b90608401611696565b80158061178e5750604051636eb1769f60e11b81523060048201526001600160a01b03838116602483015284169063dd62ed3e9060440160206040518083038186803b15801561175457600080fd5b505afa158015611768573d6000803e3d6000fd5b505050506040513d601f19601f8201168201806040525081019061178c9190611c62565b155b6117f95760405162461bcd60e51b815260206004820152603660248201527f5361666545524332303a20617070726f76652066726f6d206e6f6e2d7a65726f60448201527520746f206e6f6e2d7a65726f20616c6c6f77616e636560501b60648201526084016104db565b6040516001600160a01b03831660248201526044810182905261071590849063095ea7b360e01b90606401611696565b60006118358386611f85565b905060006118438386611f85565b90508115611883576040516001600160a01b0388169083156108fc029084906000818181858888f19350505050158015611881573d6000803e3d6000fd5b505b80156118a0576006546118a0906001600160a01b0316888361166a565b50505050505050565b60006118fe826040518060400160405280602081526020017f5361666545524332303a206c6f772d6c6576656c2063616c6c206661696c6564815250856001600160a01b031661197b9092919063ffffffff16565b805190915015610715578080602001905181019061191c9190611c27565b6107155760405162461bcd60e51b815260206004820152602a60248201527f5361666545524332303a204552433230206f7065726174696f6e20646964206e6044820152691bdd081cdd58d8d9595960b21b60648201526084016104db565b606061198a8484600085611992565b949350505050565b6060824710156119f35760405162461bcd60e51b815260206004820152602660248201527f416464726573733a20696e73756666696369656e742062616c616e636520666f6044820152651c8818d85b1b60d21b60648201526084016104db565b6001600160a01b0385163b611a4a5760405162461bcd60e51b815260206004820152601d60248201527f416464726573733a2063616c6c20746f206e6f6e2d636f6e747261637400000060448201526064016104db565b600080866001600160a01b03168587604051611a669190611d06565b60006040518083038185875af1925050503d8060008114611aa3576040519150601f19603f3d011682016040523d82523d6000602084013e611aa8565b606091505b5091509150611ab8828286611ac3565b979650505050505050565b60608315611ad25750816112dc565b825115611ae25782518084602001fd5b8160405162461bcd60e51b81526004016104db9190611d93565b600060208284031215611b0e57600080fd5b81356112dc8161200a565b600060208284031215611b2b57600080fd5b81516112dc8161200a565b60008060408385031215611b4957600080fd5b8235611b548161200a565b946020939093013593505050565b60006020808385031215611b7557600080fd5b825167ffffffffffffffff80821115611b8d57600080fd5b818501915085601f830112611ba157600080fd5b815181811115611bb357611bb3611ff4565b8060051b604051601f19603f83011681018181108582111715611bd857611bd8611ff4565b604052828152858101935084860182860187018a1015611bf757600080fd5b600095505b83861015611c1a578051855260019590950194938601938601611bfc565b5098975050505050505050565b600060208284031215611c3957600080fd5b815180151581146112dc57600080fd5b600060208284031215611c5b57600080fd5b5035919050565b600060208284031215611c7457600080fd5b5051919050565b60008060408385031215611c8e57600080fd5b50508035926020909101359150565b600080600060608486031215611cb257600080fd5b8351925060208401519150604084015190509250925092565b600080600080600060a08688031215611ce357600080fd5b505083359560208501359550604085013594606081013594506080013592509050565b60008251611d18818460208701611f9c565b9190910192915050565b602080825282518282018190526000919060409081850190868401855b82811015611d8657815180518552868101518786015285810151868601526060808201519086015260809081015160ff169085015260a09093019290850190600101611d3f565b5091979650505050505050565b6020815260008251806020840152611db2816040850160208701611f9c565b601f01601f19169190910160400192915050565b60208082526032908201527f5377656574706164467265657a696e673a204174206c656173742031302e30306040820152710c081e14d5d5081a5cc81c995c5d5a5c995960721b606082015260800190565b6020808252602b908201527f5377656574706164467265657a696e673a204c6f636b656420706572696f642060408201526a646f736e6074207061737360a81b606082015260800190565b6020808252818101527f4f776e61626c653a2063616c6c6572206973206e6f7420746865206f776e6572604082015260600190565b600060808201868352602060808185015281875180845260a086019150828901935060005b81811015611ee25784516001600160a01b031683529383019391830191600101611ebd565b50506001600160a01b039690961660408501525050506060015292915050565b60008219821115611f1557611f15611fc8565b500190565b600082611f3757634e487b7160e01b600052601260045260246000fd5b500490565b600061ffff80831681851681830481118215151615611f5d57611f5d611fc8565b02949350505050565b6000816000190483118215151615611f8057611f80611fc8565b500290565b600082821015611f9757611f97611fc8565b500390565b60005b83811015611fb7578181015183820152602001611f9f565b83811115610f475750506000910152565b634e487b7160e01b600052601160045260246000fd5b634e487b7160e01b600052603260045260246000fd5b634e487b7160e01b600052604160045260246000fd5b6001600160a01b0381168114610dc657600080fdfea26469706673582212207fc814ea8b0c57c10787f6bab1b2b31d4532fb2e0619503b557a1976171cd52964736f6c63430008070033",
  "devdoc": {
    "details": "Contract module which provides functionality to freeze assets on contract and get allocation.",
    "kind": "dev",
    "methods": {
      "freezeLP(uint256,uint256)": {
        "params": {
          "amount_": "Amount of tokens to freeze",
          "period_": "Period of freezing"
        }
      },
      "freezeSWT(uint256,uint256)": {
        "params": {
          "amount_": "Amount of tokens to freeze",
          "period_": "Period of freezing"
        }
      },
      "freezeWithBNB(uint256,uint256,uint256,uint256,uint256)": {
        "params": {
          "amountETHMin": "Min ETH amount desiered while adding liquidity",
          "amountOutMin": "The minimum amount of output tokens while swaping",
          "amountTokenMin": "Min token amount desiered while adding liquidity",
          "deadline_": "Timestamp after which the transaction will revert.",
          "period_": "Period of freezing"
        }
      },
      "owner()": {
        "details": "Returns the address of the current owner."
      },
      "renounceOwnership()": {
        "details": "Leaves the contract without owner. It will not be possible to call `onlyOwner` functions anymore. Can only be called by the current owner. NOTE: Renouncing ownership will leave the contract without an owner, thereby removing any functionality that is only available to the owner."
      },
      "setLPToken(address)": {
        "params": {
          "lpToken_": "Address of BNB/SWT LP"
        }
      },
      "setMultiplier(uint256)": {
        "params": {
          "multiplier_": "Shows how many times the power will be greater for  user while staking with LP"
        }
      },
      "transferOwnership(address)": {
        "details": "Transfers ownership of the contract to a new account (`newOwner`). Can only be called by the current owner."
      },
      "unfreezeLP(uint256)": {
        "params": {
          "id_": "Id of freezing"
        }
      },
      "unfreezeSWT(uint256,uint256)": {
        "params": {
          "amount_": "Amount of tokens to unfreeze",
          "id_": "Id of freezing"
        }
      }
    },
    "stateVariables": {
      "freezeInfo": {
        "details": "The data for each account"
      },
      "multiplier": {
        "details": "Multiplier to colculate power while freezing with LP"
      },
      "totalPower": {
        "details": "The data for each account, returns totalPower"
      }
    },
    "title": "SweetpadFreezing",
    "version": 1
  },
  "userdoc": {
    "events": {
      "Freeze(uint256,address,uint256,uint256,uint8)": {
        "notice": "Emitted when tokens are frozen"
      },
      "MultiplierReseted(uint256,uint256)": {
        "notice": "Emmited when multiplier reseted"
      },
      "UnFreeze(uint256,address,uint256,uint8)": {
        "notice": "Emitted when tokens are unFrozen"
      }
    },
    "kind": "user",
    "methods": {
      "constructor": {
        "notice": "Initialize contract"
      },
      "freezeLP(uint256,uint256)": {
        "notice": "Freeze LP tokens"
      },
      "freezeSWT(uint256,uint256)": {
        "notice": "Freeze SWT tokens"
      },
      "freezeWithBNB(uint256,uint256,uint256,uint256,uint256)": {
        "notice": "Transfer BNB to contract and Freeze LP"
      },
      "setLPToken(address)": {
        "notice": "Set LP token"
      },
      "setMultiplier(uint256)": {
        "notice": "Set multiplier to calculate power while freezing with LP"
      },
      "unfreezeLP(uint256)": {
        "notice": "Unfreeze LP tokens"
      },
      "unfreezeSWT(uint256,uint256)": {
        "notice": "Unfreeze SWT tokens"
      }
    },
    "version": 1
  },
  "storageLayout": {
    "storage": [
      {
        "astId": 400,
        "contract": "contracts/SweetpadFreezing.sol:SweetpadFreezing",
        "label": "_owner",
        "offset": 0,
        "slot": "0",
        "type": "t_address"
      },
      {
        "astId": 4366,
        "contract": "contracts/SweetpadFreezing.sol:SweetpadFreezing",
        "label": "multiplier",
        "offset": 0,
        "slot": "1",
        "type": "t_uint256"
      },
      {
        "astId": 4369,
        "contract": "contracts/SweetpadFreezing.sol:SweetpadFreezing",
        "label": "totalFrozenSWT",
        "offset": 0,
        "slot": "2",
        "type": "t_uint256"
      },
      {
        "astId": 4372,
        "contract": "contracts/SweetpadFreezing.sol:SweetpadFreezing",
        "label": "totalFrozenLP",
        "offset": 0,
        "slot": "3",
        "type": "t_uint256"
      },
      {
        "astId": 4380,
        "contract": "contracts/SweetpadFreezing.sol:SweetpadFreezing",
        "label": "freezeInfo",
        "offset": 0,
        "slot": "4",
        "type": "t_mapping(t_address,t_array(t_struct(FreezeInfo)8243_storage)dyn_storage)"
      },
      {
        "astId": 4386,
        "contract": "contracts/SweetpadFreezing.sol:SweetpadFreezing",
        "label": "totalPower",
        "offset": 0,
        "slot": "5",
        "type": "t_mapping(t_address,t_uint256)"
      },
      {
        "astId": 4390,
        "contract": "contracts/SweetpadFreezing.sol:SweetpadFreezing",
        "label": "sweetToken",
        "offset": 0,
        "slot": "6",
        "type": "t_contract(IERC20)1161"
      },
      {
        "astId": 4394,
        "contract": "contracts/SweetpadFreezing.sol:SweetpadFreezing",
        "label": "lpToken",
        "offset": 0,
        "slot": "7",
        "type": "t_contract(IERC20)1161"
      },
      {
        "astId": 4401,
        "contract": "contracts/SweetpadFreezing.sol:SweetpadFreezing",
        "label": "router",
        "offset": 0,
        "slot": "8",
        "type": "t_contract(IApeRouter02)3802"
      }
    ],
    "types": {
      "t_address": {
        "encoding": "inplace",
        "label": "address",
        "numberOfBytes": "20"
      },
      "t_array(t_struct(FreezeInfo)8243_storage)dyn_storage": {
        "base": "t_struct(FreezeInfo)8243_storage",
        "encoding": "dynamic_array",
        "label": "struct ISweetpadFreezing.FreezeInfo[]",
        "numberOfBytes": "32"
      },
      "t_contract(IApeRouter02)3802": {
        "encoding": "inplace",
        "label": "contract IApeRouter02",
        "numberOfBytes": "20"
      },
      "t_contract(IERC20)1161": {
        "encoding": "inplace",
        "label": "contract IERC20",
        "numberOfBytes": "20"
      },
      "t_mapping(t_address,t_array(t_struct(FreezeInfo)8243_storage)dyn_storage)": {
        "encoding": "mapping",
        "key": "t_address",
        "label": "mapping(address => struct ISweetpadFreezing.FreezeInfo[])",
        "numberOfBytes": "32",
        "value": "t_array(t_struct(FreezeInfo)8243_storage)dyn_storage"
      },
      "t_mapping(t_address,t_uint256)": {
        "encoding": "mapping",
        "key": "t_address",
        "label": "mapping(address => uint256)",
        "numberOfBytes": "32",
        "value": "t_uint256"
      },
      "t_struct(FreezeInfo)8243_storage": {
        "encoding": "inplace",
        "label": "struct ISweetpadFreezing.FreezeInfo",
        "members": [
          {
            "astId": 8234,
            "contract": "contracts/SweetpadFreezing.sol:SweetpadFreezing",
            "label": "frozenUntil",
            "offset": 0,
            "slot": "0",
            "type": "t_uint256"
          },
          {
            "astId": 8236,
            "contract": "contracts/SweetpadFreezing.sol:SweetpadFreezing",
            "label": "period",
            "offset": 0,
            "slot": "1",
            "type": "t_uint256"
          },
          {
            "astId": 8238,
            "contract": "contracts/SweetpadFreezing.sol:SweetpadFreezing",
            "label": "frozenAmount",
            "offset": 0,
            "slot": "2",
            "type": "t_uint256"
          },
          {
            "astId": 8240,
            "contract": "contracts/SweetpadFreezing.sol:SweetpadFreezing",
            "label": "power",
            "offset": 0,
            "slot": "3",
            "type": "t_uint256"
          },
          {
            "astId": 8242,
            "contract": "contracts/SweetpadFreezing.sol:SweetpadFreezing",
            "label": "asset",
            "offset": 0,
            "slot": "4",
            "type": "t_uint8"
          }
        ],
        "numberOfBytes": "160"
      },
      "t_uint256": {
        "encoding": "inplace",
        "label": "uint256",
        "numberOfBytes": "32"
      },
      "t_uint8": {
        "encoding": "inplace",
        "label": "uint8",
        "numberOfBytes": "1"
      }
    }
  }
}