{
  "address": "0x634906324a7cb6eB97a045b57BA001A42e2cbB75",
  "abi": [
    {
      "inputs": [
        {
          "internalType": "contract IERC20",
          "name": "sweetToken_",
          "type": "address"
        }
      ],
      "stateMutability": "nonpayable",
      "type": "constructor"
    },
    {
      "anonymous": false,
      "inputs": [
        {
          "indexed": false,
          "internalType": "uint256",
          "name": "id",
          "type": "uint256"
        },
        {
          "indexed": true,
          "internalType": "address",
          "name": "account",
          "type": "address"
        },
        {
          "indexed": false,
          "internalType": "uint256",
          "name": "amount",
          "type": "uint256"
        },
        {
          "indexed": false,
          "internalType": "uint256",
          "name": "power",
          "type": "uint256"
        },
        {
          "indexed": false,
          "internalType": "enum ISweetpadFreezing.Asset",
          "name": "",
          "type": "uint8"
        }
      ],
      "name": "Freeze",
      "type": "event"
    },
    {
      "anonymous": false,
      "inputs": [
        {
          "indexed": false,
          "internalType": "uint256",
          "name": "oldMultiplier",
          "type": "uint256"
        },
        {
          "indexed": false,
          "internalType": "uint256",
          "name": "newMultiplier",
          "type": "uint256"
        }
      ],
      "name": "MultiplierReseted",
      "type": "event"
    },
    {
      "anonymous": false,
      "inputs": [
        {
          "indexed": true,
          "internalType": "address",
          "name": "previousOwner",
          "type": "address"
        },
        {
          "indexed": true,
          "internalType": "address",
          "name": "newOwner",
          "type": "address"
        }
      ],
      "name": "OwnershipTransferred",
      "type": "event"
    },
    {
      "anonymous": false,
      "inputs": [
        {
          "indexed": false,
          "internalType": "uint256",
          "name": "id",
          "type": "uint256"
        },
        {
          "indexed": true,
          "internalType": "address",
          "name": "account",
          "type": "address"
        },
        {
          "indexed": false,
          "internalType": "uint256",
          "name": "power",
          "type": "uint256"
        },
        {
          "indexed": false,
          "internalType": "enum ISweetpadFreezing.Asset",
          "name": "",
          "type": "uint8"
        }
      ],
      "name": "UnFreeze",
      "type": "event"
    },
    {
      "stateMutability": "payable",
      "type": "fallback"
    },
    {
      "inputs": [],
      "name": "ROUTER_ADDRESS",
      "outputs": [
        {
          "internalType": "address",
          "name": "",
          "type": "address"
        }
      ],
      "stateMutability": "view",
      "type": "function"
    },
    {
      "inputs": [
        {
          "internalType": "address",
          "name": "",
          "type": "address"
        },
        {
          "internalType": "uint256",
          "name": "",
          "type": "uint256"
        }
      ],
      "name": "freezeInfo",
      "outputs": [
        {
          "internalType": "uint256",
          "name": "frozenUntil",
          "type": "uint256"
        },
        {
          "internalType": "uint256",
          "name": "period",
          "type": "uint256"
        },
        {
          "internalType": "uint256",
          "name": "frozenAmount",
          "type": "uint256"
        },
        {
          "internalType": "uint256",
          "name": "power",
          "type": "uint256"
        },
        {
          "internalType": "enum ISweetpadFreezing.Asset",
          "name": "token",
          "type": "uint8"
        }
      ],
      "stateMutability": "view",
      "type": "function"
    },
    {
      "inputs": [
        {
          "internalType": "uint256",
          "name": "amount_",
          "type": "uint256"
        },
        {
          "internalType": "uint256",
          "name": "period_",
          "type": "uint256"
        }
      ],
      "name": "freezeLP",
      "outputs": [],
      "stateMutability": "nonpayable",
      "type": "function"
    },
    {
      "inputs": [
        {
          "internalType": "uint256",
          "name": "amount_",
          "type": "uint256"
        },
        {
          "internalType": "uint256",
          "name": "period_",
          "type": "uint256"
        }
      ],
      "name": "freezeSWT",
      "outputs": [],
      "stateMutability": "nonpayable",
      "type": "function"
    },
    {
      "inputs": [
        {
          "internalType": "uint256",
          "name": "period_",
          "type": "uint256"
        },
        {
          "internalType": "uint256",
          "name": "amountOutMin",
          "type": "uint256"
        },
        {
          "internalType": "uint256",
          "name": "amountTokenMin",
          "type": "uint256"
        },
        {
          "internalType": "uint256",
          "name": "amountETHMin",
          "type": "uint256"
        },
        {
          "internalType": "uint256",
          "name": "deadline_",
          "type": "uint256"
        }
      ],
      "name": "freezeWithBNB",
      "outputs": [],
      "stateMutability": "payable",
      "type": "function"
    },
    {
      "inputs": [],
      "name": "getBlocksPerDay",
      "outputs": [
        {
          "internalType": "uint256",
          "name": "",
          "type": "uint256"
        }
      ],
      "stateMutability": "pure",
      "type": "function"
    },
    {
      "inputs": [
        {
          "internalType": "address",
          "name": "account_",
          "type": "address"
        }
      ],
      "name": "getFreezes",
      "outputs": [
        {
          "components": [
            {
              "internalType": "uint256",
              "name": "frozenUntil",
              "type": "uint256"
            },
            {
              "internalType": "uint256",
              "name": "period",
              "type": "uint256"
            },
            {
              "internalType": "uint256",
              "name": "frozenAmount",
              "type": "uint256"
            },
            {
              "internalType": "uint256",
              "name": "power",
              "type": "uint256"
            },
            {
              "internalType": "enum ISweetpadFreezing.Asset",
              "name": "token",
              "type": "uint8"
            }
          ],
          "internalType": "struct ISweetpadFreezing.FreezeInfo[]",
          "name": "",
          "type": "tuple[]"
        }
      ],
      "stateMutability": "view",
      "type": "function"
    },
    {
      "inputs": [],
      "name": "getMaxFreezePeriod",
      "outputs": [
        {
          "internalType": "uint256",
          "name": "",
          "type": "uint256"
        }
      ],
      "stateMutability": "pure",
      "type": "function"
    },
    {
      "inputs": [],
      "name": "getMinFreezePeriod",
      "outputs": [
        {
          "internalType": "uint256",
          "name": "",
          "type": "uint256"
        }
      ],
      "stateMutability": "pure",
      "type": "function"
    },
    {
      "inputs": [
        {
          "internalType": "uint256",
          "name": "amount_",
          "type": "uint256"
        },
        {
          "internalType": "uint256",
          "name": "period_",
          "type": "uint256"
        }
      ],
      "name": "getPower",
      "outputs": [
        {
          "internalType": "uint256",
          "name": "power",
          "type": "uint256"
        }
      ],
      "stateMutability": "pure",
      "type": "function"
    },
    {
      "inputs": [],
      "name": "lpToken",
      "outputs": [
        {
          "internalType": "contract IERC20",
          "name": "",
          "type": "address"
        }
      ],
      "stateMutability": "view",
      "type": "function"
    },
    {
      "inputs": [],
      "name": "multiplier",
      "outputs": [
        {
          "internalType": "uint256",
          "name": "",
          "type": "uint256"
        }
      ],
      "stateMutability": "view",
      "type": "function"
    },
    {
      "inputs": [],
      "name": "owner",
      "outputs": [
        {
          "internalType": "address",
          "name": "",
          "type": "address"
        }
      ],
      "stateMutability": "view",
      "type": "function"
    },
    {
      "inputs": [],
      "name": "renounceOwnership",
      "outputs": [],
      "stateMutability": "nonpayable",
      "type": "function"
    },
    {
      "inputs": [],
      "name": "router",
      "outputs": [
        {
          "internalType": "contract IApeRouter02",
          "name": "",
          "type": "address"
        }
      ],
      "stateMutability": "view",
      "type": "function"
    },
    {
      "inputs": [
        {
          "internalType": "contract IERC20",
          "name": "lpToken_",
          "type": "address"
        }
      ],
      "name": "setLPToken",
      "outputs": [],
      "stateMutability": "nonpayable",
      "type": "function"
    },
    {
      "inputs": [
        {
          "internalType": "uint256",
          "name": "multiplier_",
          "type": "uint256"
        }
      ],
      "name": "setMultiplier",
      "outputs": [],
      "stateMutability": "nonpayable",
      "type": "function"
    },
    {
      "inputs": [],
      "name": "sweetToken",
      "outputs": [
        {
          "internalType": "contract IERC20",
          "name": "",
          "type": "address"
        }
      ],
      "stateMutability": "view",
      "type": "function"
    },
    {
      "inputs": [
        {
          "internalType": "address",
          "name": "",
          "type": "address"
        }
      ],
      "name": "totalPower",
      "outputs": [
        {
          "internalType": "uint256",
          "name": "",
          "type": "uint256"
        }
      ],
      "stateMutability": "view",
      "type": "function"
    },
    {
      "inputs": [
        {
          "internalType": "address",
          "name": "newOwner",
          "type": "address"
        }
      ],
      "name": "transferOwnership",
      "outputs": [],
      "stateMutability": "nonpayable",
      "type": "function"
    },
    {
      "inputs": [
        {
          "internalType": "uint256",
          "name": "id_",
          "type": "uint256"
        }
      ],
      "name": "unfreezeLP",
      "outputs": [],
      "stateMutability": "nonpayable",
      "type": "function"
    },
    {
      "inputs": [
        {
          "internalType": "uint256",
          "name": "id_",
          "type": "uint256"
        },
        {
          "internalType": "uint256",
          "name": "amount_",
          "type": "uint256"
        }
      ],
      "name": "unfreezeSWT",
      "outputs": [],
      "stateMutability": "nonpayable",
      "type": "function"
    },
    {
      "stateMutability": "payable",
      "type": "receive"
    }
  ],
  "transactionHash": "0x5d1046f9070f397195a85ea5cc48200b0ff1bac7cb2ace918e3be9e3b62430e1",
  "args": [
    "0x5Ef25C822e0C8e2df768cBF5d70B8A5a025cA810"
  ],
  "numDeployments": 2,
  "solcInputHash": "11a5085d92d00c4b85a0a85eeffc6ca2",
  "bytecode": "0x6080604052600680546001600160a01b031916733380ae82e39e42ca34ebed69af67faa0683bb5c11790553480156200003757600080fd5b50604051620021a3380380620021a38339810160408190526200005a916200015c565b62000065336200010c565b6001600160a01b038116620000e65760405162461bcd60e51b815260206004820152603460248201527f5377656574706164467265657a696e673a20546f6b656e20616464726573732060448201527f63616e74206265205a65726f2061646472657373000000000000000000000000606482015260840160405180910390fd5b600480546001600160a01b0319166001600160a01b03929092169190911790556200018e565b600080546001600160a01b038381166001600160a01b0319831681178455604051919092169283917f8be0079c531659141344cd1fd0a4f28419497f9722a3daafe3b4186f6b6457e09190a35050565b6000602082840312156200016f57600080fd5b81516001600160a01b03811681146200018757600080fd5b9392505050565b612005806200019e6000396000f3fe60806040526004361061012d5760003560e01c806389ea7e38116100a5578063a88a0c301161006c578063a88a0c3014610341578063aa716c7d14610361578063ae8a302514610375578063b94a6dfe146103a6578063f2fde38b146103ce578063f887ea40146103ee57005b806389ea7e38146102a35780638da5cb5b146102b657806394628050146102d457806394fa0aaf146102f457806399b5e48c1461031457005b80633f96d53a116100f45780633f96d53a146101e15780635fcbd28514610201578063641579a6146102395780636a678a9c14610259578063715018a61461027957806387c5e8131461028e57005b8063051671ce146101365780630eacae84146101695780631b3734371461017e5780631b3ed7221461019e5780631f21138c146101b457005b3661013457005b005b34801561014257600080fd5b50610156610151366004611b70565b61040e565b6040519081526020015b60405180910390f35b34801561017557600080fd5b50610156610549565b34801561018a57600080fd5b50610134610199366004611b3e565b61055c565b3480156101aa57600080fd5b5061015660015481565b3480156101c057600080fd5b506101566101cf3660046119f1565b60036020526000908152604090205481565b3480156101ed57600080fd5b506101346101fc366004611b70565b61068c565b34801561020d57600080fd5b50600554610221906001600160a01b031681565b6040516001600160a01b039091168152602001610160565b34801561024557600080fd5b50610134610254366004611b3e565b6106fc565b34801561026557600080fd5b506101346102743660046119f1565b6107cb565b34801561028557600080fd5b50610134610893565b34801561029a57600080fd5b506101566108c9565b6101346102b1366004611bc0565b6108d8565b3480156102c257600080fd5b506000546001600160a01b0316610221565b3480156102e057600080fd5b506101346102ef366004611b70565b6109a4565b34801561030057600080fd5b50600454610221906001600160a01b031681565b34801561032057600080fd5b5061033461032f3660046119f1565b610c09565b6040516101609190611c39565b34801561034d57600080fd5b5061013461035c366004611b70565b610cdf565b34801561036d57600080fd5b506001610156565b34801561038157600080fd5b50610395610390366004611a2b565b610d31565b604051610160959493929190611e68565b3480156103b257600080fd5b50610221733380ae82e39e42ca34ebed69af67faa0683bb5c181565b3480156103da57600080fd5b506101346103e93660046119f1565b610d82565b3480156103fa57600080fd5b50600654610221906001600160a01b031681565b60008161041d60016032611f00565b111580156104375750610433600161012c611f00565b8211155b6104885760405162461bcd60e51b815260206004820152601e60248201527f5377656574706164467265657a696e673a2057726f6e6720706572696f64000060448201526064015b60405180910390fd5b61049460016032611f00565b8214156104ad576104a6600284611eb4565b9050610543565b6104b960016032611f00565b821180156104d257506104ce60016064611f00565b8211155b156104f957600160646104e58585611f00565b6104ef9190611eb4565b6104a69190611eb4565b600161050760646002611ed6565b61ffff168461051860016064611f00565b6105229086611e9c565b61052c9190611f00565b6105369190611eb4565b6105409190611eb4565b90505b92915050565b600061055760016032611f00565b905090565b33600090815260026020526040812080548390811061057d5761057d611f8e565b90600052602060002090600502016040518060a0016040529081600082015481526020016001820154815260200160028201548152602001600382015481526020016004820160009054906101000a900460ff1660018111156105e2576105e2611f78565b60018111156105f3576105f3611f78565b905250905060018160800151600181111561061057610610611f78565b1461065d5760405162461bcd60e51b815260206004820152601a60248201527f5377656574706164467265657a696e673a2057726f6e67204944000000000000604482015260640161047f565b805143101561067e5760405162461bcd60e51b815260040161047f90611d38565b6106883383610e1d565b5050565b6000606460015461069d858561040e565b6106a79190611f00565b6106b19190611eb4565b905069021e19e0c9bab24000008110156106dd5760405162461bcd60e51b815260040161047f90611ce6565b6106eb338484846001610fbb565b6106f733846001611116565b505050565b6000546001600160a01b031633146107265760405162461bcd60e51b815260040161047f90611d83565b600154816107895760405162461bcd60e51b815260206004820152602a60248201527f5377656574706164467265657a696e673a204d756c7469706c6965722063616e6044820152692774206265207a65726f60b01b606482015260840161047f565b600182905560408051828152602081018490527fcec6f475a0d76b3c6053fe73249cd80c6682e2fc172909e742bd1b8c050bba73910160405180910390a15050565b6000546001600160a01b031633146107f55760405162461bcd60e51b815260040161047f90611d83565b6001600160a01b0381166108715760405162461bcd60e51b815260206004820152603760248201527f5377656574706164467265657a696e673a204c5020746f6b656e20616464726560448201527f73732063616e74206265205a65726f2061646472657373000000000000000000606482015260840161047f565b600580546001600160a01b0319166001600160a01b0392909216919091179055565b6000546001600160a01b031633146108bd5760405162461bcd60e51b815260040161047f90611d83565b6108c7600061115f565b565b6000610557600161012c611f00565b60006108ef6108e8600234611eb4565b86846111af565b905060008160018151811061090657610906611f8e565b602002602001015190506000610938336002346109239190611eb4565b6004546001600160a01b0316858a8a8a61133a565b90506000606460015461094b848c61040e565b6109559190611f00565b61095f9190611eb4565b905069021e19e0c9bab240000081101561098b5760405162461bcd60e51b815260040161047f90611ce6565b61099933838b846001610fbb565b505050505050505050565b3360009081526002602052604081208054849081106109c5576109c5611f8e565b90600052602060002090600502016040518060a0016040529081600082015481526020016001820154815260200160028201548152602001600382015481526020016004820160009054906101000a900460ff166001811115610a2a57610a2a611f78565b6001811115610a3b57610a3b611f78565b9052509050600081608001516001811115610a5857610a58611f78565b14610aa55760405162461bcd60e51b815260206004820152601a60248201527f5377656574706164467265657a696e673a2057726f6e67204944000000000000604482015260640161047f565b6040810151610b065760405162461bcd60e51b815260206004820152602760248201527f5377656574706164467265657a696e673a2046726f7a656e20616d6f756e74206044820152666973205a65726f60c81b606482015260840161047f565b8181604001511015610b6f5760405162461bcd60e51b815260206004820152602c60248201527f5377656574706164467265657a696e673a20496e73756666696369656e74206660448201526b1c9bde995b88185b5bdd5b9d60a21b606482015260840161047f565b8051431015610b905760405162461bcd60e51b815260040161047f90611d38565b6000610baf838360400151610ba59190611f1f565b836020015161040e565b905069021e19e0c9bab240000081101580610bc8575080155b610be45760405162461bcd60e51b815260040161047f90611ce6565b6000610bf484846020015161040e565b9050610c0233868684611433565b5050505050565b6001600160a01b0381166000908152600260209081526040808320805482518185028101850190935280835260609492939192909184015b82821015610cd457838290600052602060002090600502016040518060a0016040529081600082015481526020016001820154815260200160028201548152602001600382015481526020016004820160009054906101000a900460ff166001811115610cb057610cb0611f78565b6001811115610cc157610cc1611f78565b8152505081526020019060010190610c41565b505050509050919050565b6000610ceb838361040e565b905069021e19e0c9bab2400000811015610d175760405162461bcd60e51b815260040161047f90611ce6565b610d25338484846000610fbb565b6106f733846000611116565b60026020528160005260406000208181548110610d4d57600080fd5b600091825260209091206005909102018054600182015460028301546003840154600490940154929550909350919060ff1685565b6000546001600160a01b03163314610dac5760405162461bcd60e51b815260040161047f90611d83565b6001600160a01b038116610e115760405162461bcd60e51b815260206004820152602660248201527f4f776e61626c653a206e6577206f776e657220697320746865207a65726f206160448201526564647265737360d01b606482015260840161047f565b610e1a8161115f565b50565b6001600160a01b0382166000908152600260205260408120805483908110610e4757610e47611f8e565b90600052602060002090600502016040518060a0016040529081600082015481526020016001820154815260200160028201548152602001600382015481526020016004820160009054906101000a900460ff166001811115610eac57610eac611f78565b6001811115610ebd57610ebd611f78565b90525060608101516001600160a01b038516600090815260036020526040812080549394509192610eef908490611f1f565b90915550506040808201516001600160a01b0385166000908152600260205291909120805484908110610f2457610f24611f8e565b6000918252602082206005909102018181556001808201839055600282018390556003820192909255600401805460ff191690556040516001600160a01b038616917fed7dbff500dc30ea10e708531d2884c45513387230d3516204441599c7bf404b91610f96918791869190611e22565b60405180910390a2600554610fb5906001600160a01b0316858361155f565b50505050565b6001600160a01b03851660009081526002602052604090819020815160a081019092529080610fea8643611e9c565b815260200185815260200186815260200184815260200183600181111561101357611013611f78565b905281546001818101845560009384526020938490208351600590930201918255928201518184015560408201516002820155606082015160038201556080820151600482018054939492939192909160ff191690838181111561107957611079611f78565b021790555050506001600160a01b038516600090815260036020526040812080548492906110a8908490611e9c565b90915550506001600160a01b0385166000818152600260205260409020547fa9b2b20ae2cd3e92c9c0d040b69f8eb7ff559f71e759697ee005e61021ae1717906110f490600190611f1f565b8685856040516111079493929190611e3d565b60405180910390a25050505050565b6004546001600160a01b0316600182600181111561113657611136611f78565b141561114a57506005546001600160a01b03165b610fb56001600160a01b0382168530866115c2565b600080546001600160a01b038381166001600160a01b0319831681178455604051919092169283917f8be0079c531659141344cd1fd0a4f28419497f9722a3daafe3b4186f6b6457e09190a35050565b604080516002808252606080830184529260009291906020830190803683375050600654604080516315ab88c960e31b815290519394506001600160a01b039091169263ad5c464892506004808301926020929190829003018186803b15801561121857600080fd5b505afa15801561122c573d6000803e3d6000fd5b505050506040513d601f19601f820116820180604052508101906112509190611a0e565b8160008151811061126357611263611f8e565b6001600160a01b03928316602091820292909201015260045482519116908290600190811061129457611294611f8e565b6001600160a01b039283166020918202929092010152600654604051637ff36ab560e01b8152911690637ff36ab59087906112d9908890869030908a90600401611db8565b6000604051808303818588803b1580156112f257600080fd5b505af1158015611306573d6000803e3d6000fd5b50505050506040513d6000823e601f3d908101601f1916820160405261132f9190810190611a57565b9150505b9392505050565b600454600090611368906001600160a01b0316733380ae82e39e42ca34ebed69af67faa0683bb5c1876115fa565b60065460405163f305d71960e01b81526001600160a01b03888116600483015260248201889052604482018790526064820186905230608483015260a48201859052600092839283929091169063f305d719908c9060c4016060604051808303818588803b1580156113d957600080fd5b505af11580156113ed573d6000803e3d6000fd5b50505050506040513d601f19601f820116820180604052508101906114129190611b92565b9250925092506114258b8b8a858761171e565b9a9950505050505050505050565b6001600160a01b0384166000908152600360205260408120805483929061145b908490611f1f565b90915550506001600160a01b038416600090815260026020526040902080548391908590811061148d5761148d611f8e565b906000526020600020906005020160020160008282546114ad9190611f1f565b90915550506001600160a01b03841660009081526002602052604090208054829190859081106114df576114df611f8e565b906000526020600020906005020160030160008282546114ff9190611f1f565b92505081905550836001600160a01b03167fed7dbff500dc30ea10e708531d2884c45513387230d3516204441599c7bf404b8484600060405161154493929190611e22565b60405180910390a2600454610fb5906001600160a01b031685845b6040516001600160a01b0383166024820152604481018290526106f790849063a9059cbb60e01b906064015b60408051601f198184030181529190526020810180516001600160e01b03166001600160e01b03199093169290921790915261179e565b6040516001600160a01b0380851660248301528316604482015260648101829052610fb59085906323b872dd60e01b9060840161158b565b8015806116835750604051636eb1769f60e11b81523060048201526001600160a01b03838116602483015284169063dd62ed3e9060440160206040518083038186803b15801561164957600080fd5b505afa15801561165d573d6000803e3d6000fd5b505050506040513d601f19601f820116820180604052508101906116819190611b57565b155b6116ee5760405162461bcd60e51b815260206004820152603660248201527f5361666545524332303a20617070726f76652066726f6d206e6f6e2d7a65726f60448201527520746f206e6f6e2d7a65726f20616c6c6f77616e636560501b606482015260840161047f565b6040516001600160a01b0383166024820152604481018290526106f790849063095ea7b360e01b9060640161158b565b600061172a8386611f1f565b905060006117388386611f1f565b90508115611778576040516001600160a01b0388169083156108fc029084906000818181858888f19350505050158015611776573d6000803e3d6000fd5b505b801561179557600454611795906001600160a01b0316888361155f565b50505050505050565b60006117f3826040518060400160405280602081526020017f5361666545524332303a206c6f772d6c6576656c2063616c6c206661696c6564815250856001600160a01b03166118709092919063ffffffff16565b8051909150156106f757808060200190518101906118119190611b1c565b6106f75760405162461bcd60e51b815260206004820152602a60248201527f5361666545524332303a204552433230206f7065726174696f6e20646964206e6044820152691bdd081cdd58d8d9595960b21b606482015260840161047f565b606061187f8484600085611887565b949350505050565b6060824710156118e85760405162461bcd60e51b815260206004820152602660248201527f416464726573733a20696e73756666696369656e742062616c616e636520666f6044820152651c8818d85b1b60d21b606482015260840161047f565b6001600160a01b0385163b61193f5760405162461bcd60e51b815260206004820152601d60248201527f416464726573733a2063616c6c20746f206e6f6e2d636f6e7472616374000000604482015260640161047f565b600080866001600160a01b0316858760405161195b9190611c1d565b60006040518083038185875af1925050503d8060008114611998576040519150601f19603f3d011682016040523d82523d6000602084013e61199d565b606091505b50915091506119ad8282866119b8565b979650505050505050565b606083156119c7575081611333565b8251156119d75782518084602001fd5b8160405162461bcd60e51b815260040161047f9190611cb3565b600060208284031215611a0357600080fd5b813561133381611fba565b600060208284031215611a2057600080fd5b815161133381611fba565b60008060408385031215611a3e57600080fd5b8235611a4981611fba565b946020939093013593505050565b60006020808385031215611a6a57600080fd5b825167ffffffffffffffff80821115611a8257600080fd5b818501915085601f830112611a9657600080fd5b815181811115611aa857611aa8611fa4565b8060051b604051601f19603f83011681018181108582111715611acd57611acd611fa4565b604052828152858101935084860182860187018a1015611aec57600080fd5b600095505b83861015611b0f578051855260019590950194938601938601611af1565b5098975050505050505050565b600060208284031215611b2e57600080fd5b8151801515811461133357600080fd5b600060208284031215611b5057600080fd5b5035919050565b600060208284031215611b6957600080fd5b5051919050565b60008060408385031215611b8357600080fd5b50508035926020909101359150565b600080600060608486031215611ba757600080fd5b8351925060208401519150604084015190509250925092565b600080600080600060a08688031215611bd857600080fd5b505083359560208501359550604085013594606081013594506080013592509050565b60028110611c1957634e487b7160e01b600052602160045260246000fd5b9052565b60008251611c2f818460208701611f36565b9190910192915050565b602080825282518282018190526000919060409081850190868401855b82811015611ca657815180518552868101518786015285810151868601526060808201519086015260809081015190611c9181870183611bfb565b505060a0939093019290850190600101611c56565b5091979650505050505050565b6020815260008251806020840152611cd2816040850160208701611f36565b601f01601f19169190910160400192915050565b60208082526032908201527f5377656574706164467265657a696e673a204174206c656173742031302e30306040820152710c081e14d5d5081a5cc81c995c5d5a5c995960721b606082015260800190565b6020808252602b908201527f5377656574706164467265657a696e673a204c6f636b656420706572696f642060408201526a646f736e6074207061737360a81b606082015260800190565b6020808252818101527f4f776e61626c653a2063616c6c6572206973206e6f7420746865206f776e6572604082015260600190565b600060808201868352602060808185015281875180845260a086019150828901935060005b81811015611e025784516001600160a01b031683529383019391830191600101611ddd565b50506001600160a01b039690961660408501525050506060015292915050565b838152602081018390526060810161187f6040830184611bfb565b848152602081018490526040810183905260808101611e5f6060830184611bfb565b95945050505050565b600060a082019050868252856020830152846040830152836060830152611e926080830184611bfb565b9695505050505050565b60008219821115611eaf57611eaf611f62565b500190565b600082611ed157634e487b7160e01b600052601260045260246000fd5b500490565b600061ffff80831681851681830481118215151615611ef757611ef7611f62565b02949350505050565b6000816000190483118215151615611f1a57611f1a611f62565b500290565b600082821015611f3157611f31611f62565b500390565b60005b83811015611f51578181015183820152602001611f39565b83811115610fb55750506000910152565b634e487b7160e01b600052601160045260246000fd5b634e487b7160e01b600052602160045260246000fd5b634e487b7160e01b600052603260045260246000fd5b634e487b7160e01b600052604160045260246000fd5b6001600160a01b0381168114610e1a57600080fdfea26469706673582212206748899d120b669c7e71d0643ad7e5c5465fde160f13f1e82bebc7144909096964736f6c63430008070033",
  "devdoc": {
    "details": "Contract module which provides functionality to freeze assets on contract and get allocation.",
    "kind": "dev",
    "methods": {
      "freezeLP(uint256,uint256)": {
        "params": {
          "amount_": "Amount of tokens to freeze",
          "period_": "Period of freezing"
        }
      },
      "freezeSWT(uint256,uint256)": {
        "params": {
          "amount_": "Amount of tokens to freeze",
          "period_": "Period of freezing"
        }
      },
      "freezeWithBNB(uint256,uint256,uint256,uint256,uint256)": {
        "params": {
          "amountETHMin": "Min ETH amount desiered while adding liquidity",
          "amountOutMin": "The minimum amount of output tokens while swaping",
          "amountTokenMin": "Min token amount desiered while adding liquidity",
          "deadline_": "Timestamp after which the transaction will revert.",
          "period_": "Period of freezing"
        }
      },
      "owner()": {
        "details": "Returns the address of the current owner."
      },
      "renounceOwnership()": {
        "details": "Leaves the contract without owner. It will not be possible to call `onlyOwner` functions anymore. Can only be called by the current owner. NOTE: Renouncing ownership will leave the contract without an owner, thereby removing any functionality that is only available to the owner."
      },
      "setLPToken(address)": {
        "params": {
          "lpToken_": "Address of BNB/SWT LP"
        }
      },
      "setMultiplier(uint256)": {
        "params": {
          "multiplier_": "Shows how many times the power will be greater for  user while staking with LP"
        }
      },
      "transferOwnership(address)": {
        "details": "Transfers ownership of the contract to a new account (`newOwner`). Can only be called by the current owner."
      },
      "unfreezeLP(uint256)": {
        "params": {
          "id_": "Id of freezing"
        }
      },
      "unfreezeSWT(uint256,uint256)": {
        "params": {
          "amount_": "Amount of tokens to unfreeze",
          "id_": "Id of freezing"
        }
      }
    },
    "stateVariables": {
      "freezeInfo": {
        "details": "The data for each account"
      },
      "multiplier": {
        "details": "Multiplier to colculate power while freezing with LP"
      },
      "totalPower": {
        "details": "The data for each account, returns totalPower"
      }
    },
    "title": "SweetpadFreezing",
    "version": 1
  },
  "userdoc": {
    "events": {
      "Freeze(uint256,address,uint256,uint256,uint8)": {
        "notice": "Emitted when tokens are frozen"
      },
      "MultiplierReseted(uint256,uint256)": {
        "notice": "Emmited when multiplier reseted"
      },
      "UnFreeze(uint256,address,uint256,uint8)": {
        "notice": "Emitted when tokens are unFrozen"
      }
    },
    "kind": "user",
    "methods": {
      "constructor": {
        "notice": "Initialize contract"
      },
      "freezeLP(uint256,uint256)": {
        "notice": "Freeze LP tokens"
      },
      "freezeSWT(uint256,uint256)": {
        "notice": "Freeze SWT tokens"
      },
      "freezeWithBNB(uint256,uint256,uint256,uint256,uint256)": {
        "notice": "Transfer BNB to contract and Freeze LP "
      },
      "setLPToken(address)": {
        "notice": "Set LP token"
      },
      "setMultiplier(uint256)": {
        "notice": "Set multiplier to calculate power while freezing with LP"
      },
      "unfreezeLP(uint256)": {
        "notice": "Unfreeze LP tokens"
      },
      "unfreezeSWT(uint256,uint256)": {
        "notice": "Unfreeze SWT tokens"
      }
    },
    "version": 1
  },
  "storageLayout": {
    "storage": [
      {
        "astId": 7,
        "contract": "contracts/SweetpadFreezing.sol:SweetpadFreezing",
        "label": "_owner",
        "offset": 0,
        "slot": "0",
        "type": "t_address"
      },
      {
        "astId": 4537,
        "contract": "contracts/SweetpadFreezing.sol:SweetpadFreezing",
        "label": "multiplier",
        "offset": 0,
        "slot": "1",
        "type": "t_uint256"
      },
      {
        "astId": 4545,
        "contract": "contracts/SweetpadFreezing.sol:SweetpadFreezing",
        "label": "freezeInfo",
        "offset": 0,
        "slot": "2",
        "type": "t_mapping(t_address,t_array(t_struct(FreezeInfo)6887_storage)dyn_storage)"
      },
      {
        "astId": 4551,
        "contract": "contracts/SweetpadFreezing.sol:SweetpadFreezing",
        "label": "totalPower",
        "offset": 0,
        "slot": "3",
        "type": "t_mapping(t_address,t_uint256)"
      },
      {
        "astId": 4555,
        "contract": "contracts/SweetpadFreezing.sol:SweetpadFreezing",
        "label": "sweetToken",
        "offset": 0,
        "slot": "4",
        "type": "t_contract(IERC20)2169"
      },
      {
        "astId": 4559,
        "contract": "contracts/SweetpadFreezing.sol:SweetpadFreezing",
        "label": "lpToken",
        "offset": 0,
        "slot": "5",
        "type": "t_contract(IERC20)2169"
      },
      {
        "astId": 4565,
        "contract": "contracts/SweetpadFreezing.sol:SweetpadFreezing",
        "label": "router",
        "offset": 0,
        "slot": "6",
        "type": "t_contract(IApeRouter02)4498"
      }
    ],
    "types": {
      "t_address": {
        "encoding": "inplace",
        "label": "address",
        "numberOfBytes": "20"
      },
      "t_array(t_struct(FreezeInfo)6887_storage)dyn_storage": {
        "base": "t_struct(FreezeInfo)6887_storage",
        "encoding": "dynamic_array",
        "label": "struct ISweetpadFreezing.FreezeInfo[]",
        "numberOfBytes": "32"
      },
      "t_contract(IApeRouter02)4498": {
        "encoding": "inplace",
        "label": "contract IApeRouter02",
        "numberOfBytes": "20"
      },
      "t_contract(IERC20)2169": {
        "encoding": "inplace",
        "label": "contract IERC20",
        "numberOfBytes": "20"
      },
      "t_enum(Asset)6875": {
        "encoding": "inplace",
        "label": "enum ISweetpadFreezing.Asset",
        "numberOfBytes": "1"
      },
      "t_mapping(t_address,t_array(t_struct(FreezeInfo)6887_storage)dyn_storage)": {
        "encoding": "mapping",
        "key": "t_address",
        "label": "mapping(address => struct ISweetpadFreezing.FreezeInfo[])",
        "numberOfBytes": "32",
        "value": "t_array(t_struct(FreezeInfo)6887_storage)dyn_storage"
      },
      "t_mapping(t_address,t_uint256)": {
        "encoding": "mapping",
        "key": "t_address",
        "label": "mapping(address => uint256)",
        "numberOfBytes": "32",
        "value": "t_uint256"
      },
      "t_struct(FreezeInfo)6887_storage": {
        "encoding": "inplace",
        "label": "struct ISweetpadFreezing.FreezeInfo",
        "members": [
          {
            "astId": 6877,
            "contract": "contracts/SweetpadFreezing.sol:SweetpadFreezing",
            "label": "frozenUntil",
            "offset": 0,
            "slot": "0",
            "type": "t_uint256"
          },
          {
            "astId": 6879,
            "contract": "contracts/SweetpadFreezing.sol:SweetpadFreezing",
            "label": "period",
            "offset": 0,
            "slot": "1",
            "type": "t_uint256"
          },
          {
            "astId": 6881,
            "contract": "contracts/SweetpadFreezing.sol:SweetpadFreezing",
            "label": "frozenAmount",
            "offset": 0,
            "slot": "2",
            "type": "t_uint256"
          },
          {
            "astId": 6883,
            "contract": "contracts/SweetpadFreezing.sol:SweetpadFreezing",
            "label": "power",
            "offset": 0,
            "slot": "3",
            "type": "t_uint256"
          },
          {
            "astId": 6886,
            "contract": "contracts/SweetpadFreezing.sol:SweetpadFreezing",
            "label": "token",
            "offset": 0,
            "slot": "4",
            "type": "t_enum(Asset)6875"
          }
        ],
        "numberOfBytes": "160"
      },
      "t_uint256": {
        "encoding": "inplace",
        "label": "uint256",
        "numberOfBytes": "32"
      }
    }
  }
}