{
  "address": "0xC19E1a05c3dcfc34111F490507852dB2753Fd04c",
  "abi": [
    {
      "inputs": [],
      "stateMutability": "nonpayable",
      "type": "constructor"
    },
    {
      "anonymous": false,
      "inputs": [
        {
          "indexed": true,
          "internalType": "address",
          "name": "owner",
          "type": "address"
        },
        {
          "indexed": true,
          "internalType": "address",
          "name": "approved",
          "type": "address"
        },
        {
          "indexed": true,
          "internalType": "uint256",
          "name": "tokenId",
          "type": "uint256"
        }
      ],
      "name": "Approval",
      "type": "event"
    },
    {
      "anonymous": false,
      "inputs": [
        {
          "indexed": true,
          "internalType": "address",
          "name": "owner",
          "type": "address"
        },
        {
          "indexed": true,
          "internalType": "address",
          "name": "operator",
          "type": "address"
        },
        {
          "indexed": false,
          "internalType": "bool",
          "name": "approved",
          "type": "bool"
        }
      ],
      "name": "ApprovalForAll",
      "type": "event"
    },
    {
      "anonymous": false,
      "inputs": [
        {
          "indexed": true,
          "internalType": "uint256",
          "name": "",
          "type": "uint256"
        },
        {
          "indexed": true,
          "internalType": "enum ISweetpadNFT.Tier",
          "name": "",
          "type": "uint8"
        },
        {
          "indexed": true,
          "internalType": "address",
          "name": "",
          "type": "address"
        }
      ],
      "name": "Create",
      "type": "event"
    },
    {
      "anonymous": false,
      "inputs": [
        {
          "indexed": true,
          "internalType": "address",
          "name": "previousOwner",
          "type": "address"
        },
        {
          "indexed": true,
          "internalType": "address",
          "name": "newOwner",
          "type": "address"
        }
      ],
      "name": "OwnershipTransferred",
      "type": "event"
    },
    {
      "anonymous": false,
      "inputs": [
        {
          "indexed": true,
          "internalType": "address",
          "name": "from",
          "type": "address"
        },
        {
          "indexed": true,
          "internalType": "address",
          "name": "to",
          "type": "address"
        },
        {
          "indexed": true,
          "internalType": "uint256",
          "name": "tokenId",
          "type": "uint256"
        }
      ],
      "name": "Transfer",
      "type": "event"
    },
    {
      "inputs": [
        {
          "internalType": "address",
          "name": "to",
          "type": "address"
        },
        {
          "internalType": "uint256",
          "name": "tokenId",
          "type": "uint256"
        }
      ],
      "name": "approve",
      "outputs": [],
      "stateMutability": "nonpayable",
      "type": "function"
    },
    {
      "inputs": [
        {
          "internalType": "address",
          "name": "owner",
          "type": "address"
        }
      ],
      "name": "balanceOf",
      "outputs": [
        {
          "internalType": "uint256",
          "name": "",
          "type": "uint256"
        }
      ],
      "stateMutability": "view",
      "type": "function"
    },
    {
      "inputs": [],
      "name": "currentID",
      "outputs": [
        {
          "internalType": "uint256",
          "name": "",
          "type": "uint256"
        }
      ],
      "stateMutability": "view",
      "type": "function"
    },
    {
      "inputs": [
        {
          "internalType": "uint256",
          "name": "tokenId",
          "type": "uint256"
        }
      ],
      "name": "getApproved",
      "outputs": [
        {
          "internalType": "address",
          "name": "",
          "type": "address"
        }
      ],
      "stateMutability": "view",
      "type": "function"
    },
    {
      "inputs": [
        {
          "internalType": "uint256",
          "name": "id_",
          "type": "uint256"
        }
      ],
      "name": "getTicketsQuantityById",
      "outputs": [
        {
          "internalType": "uint256",
          "name": "",
          "type": "uint256"
        }
      ],
      "stateMutability": "view",
      "type": "function"
    },
    {
      "inputs": [
        {
          "internalType": "uint256[]",
          "name": "ids_",
          "type": "uint256[]"
        }
      ],
      "name": "getTicketsQuantityByIds",
      "outputs": [
        {
          "internalType": "uint256[]",
          "name": "",
          "type": "uint256[]"
        }
      ],
      "stateMutability": "view",
      "type": "function"
    },
    {
      "inputs": [
        {
          "internalType": "address",
          "name": "user",
          "type": "address"
        }
      ],
      "name": "getUserNfts",
      "outputs": [
        {
          "internalType": "uint256[]",
          "name": "",
          "type": "uint256[]"
        }
      ],
      "stateMutability": "view",
      "type": "function"
    },
    {
      "inputs": [
        {
          "internalType": "uint256",
          "name": "",
          "type": "uint256"
        }
      ],
      "name": "idToTier",
      "outputs": [
        {
          "internalType": "enum ISweetpadNFT.Tier",
          "name": "",
          "type": "uint8"
        }
      ],
      "stateMutability": "view",
      "type": "function"
    },
    {
      "inputs": [
        {
          "internalType": "address",
          "name": "owner",
          "type": "address"
        },
        {
          "internalType": "address",
          "name": "operator",
          "type": "address"
        }
      ],
      "name": "isApprovedForAll",
      "outputs": [
        {
          "internalType": "bool",
          "name": "",
          "type": "bool"
        }
      ],
      "stateMutability": "view",
      "type": "function"
    },
    {
      "inputs": [],
      "name": "name",
      "outputs": [
        {
          "internalType": "string",
          "name": "",
          "type": "string"
        }
      ],
      "stateMutability": "view",
      "type": "function"
    },
    {
      "inputs": [],
      "name": "owner",
      "outputs": [
        {
          "internalType": "address",
          "name": "",
          "type": "address"
        }
      ],
      "stateMutability": "view",
      "type": "function"
    },
    {
      "inputs": [
        {
          "internalType": "uint256",
          "name": "tokenId",
          "type": "uint256"
        }
      ],
      "name": "ownerOf",
      "outputs": [
        {
          "internalType": "address",
          "name": "",
          "type": "address"
        }
      ],
      "stateMutability": "view",
      "type": "function"
    },
    {
      "inputs": [],
      "name": "renounceOwnership",
      "outputs": [],
      "stateMutability": "nonpayable",
      "type": "function"
    },
    {
      "inputs": [
        {
          "internalType": "address",
          "name": "to_",
          "type": "address"
        },
        {
          "internalType": "uint256[]",
          "name": "ids_",
          "type": "uint256[]"
        },
        {
          "internalType": "bytes",
          "name": "data_",
          "type": "bytes"
        }
      ],
      "name": "safeBatchTransfer",
      "outputs": [],
      "stateMutability": "nonpayable",
      "type": "function"
    },
    {
      "inputs": [
        {
          "internalType": "address",
          "name": "from_",
          "type": "address"
        },
        {
          "internalType": "address",
          "name": "to_",
          "type": "address"
        },
        {
          "internalType": "uint256[]",
          "name": "ids_",
          "type": "uint256[]"
        },
        {
          "internalType": "bytes",
          "name": "data_",
          "type": "bytes"
        }
      ],
      "name": "safeBatchTransferFrom",
      "outputs": [],
      "stateMutability": "nonpayable",
      "type": "function"
    },
    {
      "inputs": [
        {
          "internalType": "address",
          "name": "account_",
          "type": "address"
        },
        {
          "internalType": "enum ISweetpadNFT.Tier",
          "name": "tier_",
          "type": "uint8"
        }
      ],
      "name": "safeMint",
      "outputs": [],
      "stateMutability": "nonpayable",
      "type": "function"
    },
    {
      "inputs": [
        {
          "internalType": "address",
          "name": "account_",
          "type": "address"
        },
        {
          "internalType": "enum ISweetpadNFT.Tier[]",
          "name": "tiers_",
          "type": "uint8[]"
        }
      ],
      "name": "safeMintBatch",
      "outputs": [],
      "stateMutability": "nonpayable",
      "type": "function"
    },
    {
      "inputs": [
        {
          "internalType": "address",
          "name": "to_",
          "type": "address"
        },
        {
          "internalType": "uint256",
          "name": "id_",
          "type": "uint256"
        },
        {
          "internalType": "bytes",
          "name": "data_",
          "type": "bytes"
        }
      ],
      "name": "safeTransfer",
      "outputs": [],
      "stateMutability": "nonpayable",
      "type": "function"
    },
    {
      "inputs": [
        {
          "internalType": "address",
          "name": "from",
          "type": "address"
        },
        {
          "internalType": "address",
          "name": "to",
          "type": "address"
        },
        {
          "internalType": "uint256",
          "name": "tokenId",
          "type": "uint256"
        }
      ],
      "name": "safeTransferFrom",
      "outputs": [],
      "stateMutability": "nonpayable",
      "type": "function"
    },
    {
      "inputs": [
        {
          "internalType": "address",
          "name": "from",
          "type": "address"
        },
        {
          "internalType": "address",
          "name": "to",
          "type": "address"
        },
        {
          "internalType": "uint256",
          "name": "tokenId",
          "type": "uint256"
        },
        {
          "internalType": "bytes",
          "name": "_data",
          "type": "bytes"
        }
      ],
      "name": "safeTransferFrom",
      "outputs": [],
      "stateMutability": "nonpayable",
      "type": "function"
    },
    {
      "inputs": [
        {
          "internalType": "address",
          "name": "operator",
          "type": "address"
        },
        {
          "internalType": "bool",
          "name": "approved",
          "type": "bool"
        }
      ],
      "name": "setApprovalForAll",
      "outputs": [],
      "stateMutability": "nonpayable",
      "type": "function"
    },
    {
      "inputs": [
        {
          "internalType": "string",
          "name": "baseURI_",
          "type": "string"
        }
      ],
      "name": "setBaseURI",
      "outputs": [],
      "stateMutability": "nonpayable",
      "type": "function"
    },
    {
      "inputs": [
        {
          "internalType": "bytes4",
          "name": "interfaceId",
          "type": "bytes4"
        }
      ],
      "name": "supportsInterface",
      "outputs": [
        {
          "internalType": "bool",
          "name": "",
          "type": "bool"
        }
      ],
      "stateMutability": "pure",
      "type": "function"
    },
    {
      "inputs": [],
      "name": "symbol",
      "outputs": [
        {
          "internalType": "string",
          "name": "",
          "type": "string"
        }
      ],
      "stateMutability": "view",
      "type": "function"
    },
    {
      "inputs": [
        {
          "internalType": "enum ISweetpadNFT.Tier",
          "name": "",
          "type": "uint8"
        }
      ],
      "name": "tierToBoost",
      "outputs": [
        {
          "internalType": "uint256",
          "name": "",
          "type": "uint256"
        }
      ],
      "stateMutability": "view",
      "type": "function"
    },
    {
      "inputs": [
        {
          "internalType": "uint256",
          "name": "tokenId_",
          "type": "uint256"
        }
      ],
      "name": "tokenURI",
      "outputs": [
        {
          "internalType": "string",
          "name": "",
          "type": "string"
        }
      ],
      "stateMutability": "view",
      "type": "function"
    },
    {
      "inputs": [
        {
          "internalType": "address",
          "name": "from",
          "type": "address"
        },
        {
          "internalType": "address",
          "name": "to",
          "type": "address"
        },
        {
          "internalType": "uint256",
          "name": "tokenId",
          "type": "uint256"
        }
      ],
      "name": "transferFrom",
      "outputs": [],
      "stateMutability": "nonpayable",
      "type": "function"
    },
    {
      "inputs": [
        {
          "internalType": "address",
          "name": "newOwner",
          "type": "address"
        }
      ],
      "name": "transferOwnership",
      "outputs": [],
      "stateMutability": "nonpayable",
      "type": "function"
    },
    {
      "inputs": [
        {
          "internalType": "address",
          "name": "",
          "type": "address"
        },
        {
          "internalType": "uint256",
          "name": "",
          "type": "uint256"
        }
      ],
      "name": "userNFTs",
      "outputs": [
        {
          "internalType": "uint256",
          "name": "",
          "type": "uint256"
        }
      ],
      "stateMutability": "view",
      "type": "function"
    }
  ],
  "transactionHash": "0xa61077589e110ea14006272ee58c5fdfdd6a8c30734842f3351b919b93957e42",
  "args": [],
  "numDeployments": 3,
  "solcInputHash": "964b5d185d394f6fec46a7da5c21033a",
  "bytecode": "0x60c06040526007608081905266697066733a2f2f60c81b60a09081526200002a91600891906200018e565b503480156200003857600080fd5b50604080518082018252600c81526b29bbb2b2ba10223930b3b7b760a11b60208083019182528351808501909452600484526314d5d51160e21b90840152815191929162000089916000916200018e565b5080516200009f9060019060208401906200018e565b505050620000bc620000b66200013860201b60201c565b6200013c565b600a60205260057f13da86008ba1c6922daee3e07db95305ef49ebced9f5467a0b8613fcc6b343e355600c7fbbc70db1b6c7afd11e79c0fb0051300458f1a3acb8ee9789d9b6b26c61ad9bc7556002600052601e7fbff4442b8ed600beeb8e26b1279a0f0d14c6edfaec26d968ee13c86f7d4c2ba85562000271565b3390565b600680546001600160a01b038381166001600160a01b0319831681179093556040519116919082907f8be0079c531659141344cd1fd0a4f28419497f9722a3daafe3b4186f6b6457e090600090a35050565b8280546200019c9062000234565b90600052602060002090601f016020900481019282620001c057600085556200020b565b82601f10620001db57805160ff19168380011785556200020b565b828001600101855582156200020b579182015b828111156200020b578251825591602001919060010190620001ee565b50620002199291506200021d565b5090565b5b808211156200021957600081556001016200021e565b600181811c908216806200024957607f821691505b602082108114156200026b57634e487b7160e01b600052602260045260246000fd5b50919050565b61222780620002816000396000f3fe608060405234801561001057600080fd5b50600436106101cf5760003560e01c80636bca809a11610104578063a22cb465116100a2578063e1aadc7f11610071578063e1aadc7f14610413578063e985e9c514610426578063eb79554914610462578063f2fde38b1461047557600080fd5b8063a22cb465146103ba578063b88d4fde146103cd578063c87b56dd146103e0578063d1ab4c02146103f357600080fd5b8063761c4c40116100de578063761c4c401461037b5780637908d0091461038e5780638da5cb5b146103a157806395d89b41146103b257600080fd5b80636bca809a1461033057806370a0823114610360578063715018a61461037357600080fd5b806328cfbd46116101715780634ef7fc711161014b5780634ef7fc71146102e457806355f804b3146102f75780636352211e1461030a57806369e391751461031d57600080fd5b806328cfbd46146102ab578063291c73c3146102be57806342842e0e146102d157600080fd5b8063095ea7b3116101ad578063095ea7b31461024d5780630bc526ca146102625780631c75cfb41461028257806323b872dd1461029857600080fd5b806301ffc9a7146101d457806306fdde031461020d578063081812fc14610222575b600080fd5b6101f86101e2366004611d73565b6001600160e01b0319166380ac58cd60e01b1490565b60405190151581526020015b60405180910390f35b610215610488565b6040516102049190611f3e565b610235610230366004611e11565b61051a565b6040516001600160a01b039091168152602001610204565b61026061025b366004611c87565b6105b4565b005b610275610270366004611cfe565b6106ca565b6040516102049190611ed2565b61028a6107bd565b604051908152602001610204565b6102606102a6366004611a63565b6107cd565b6102606102b93660046119de565b6107fe565b61028a6102cc366004611c87565b61088e565b6102606102df366004611a63565b6108bf565b6102606102f2366004611bad565b6108da565b610260610305366004611dc8565b61094f565b610235610318366004611e11565b610990565b61026061032b366004611afb565b610a0d565b61035361033e366004611e11565b60096020526000908152604090205460ff1681565b6040516102049190611f16565b61028a61036e366004611990565b610a78565b610260610aff565b610260610389366004611c5d565b610b35565b61027561039c366004611990565b610b69565b6006546001600160a01b0316610235565b610215610bd5565b6102606103c8366004611c21565b610be4565b6102606103db366004611a9f565b610bef565b6102156103ee366004611e11565b610c21565b61028a610401366004611dad565b600a6020526000908152604090205481565b61028a610421366004611e11565b610c84565b6101f86104343660046119ab565b6001600160a01b03918216600090815260056020908152604080832093909416825291909152205460ff1690565b610260610470366004611cb1565b610cd3565b610260610483366004611990565b610cf3565b606060008054610497906120ed565b80601f01602080910402602001604051908101604052809291908181526020018280546104c3906120ed565b80156105105780601f106104e557610100808354040283529160200191610510565b820191906000526020600020905b8154815290600101906020018083116104f357829003601f168201915b5050505050905090565b6000818152600260205260408120546001600160a01b03166105985760405162461bcd60e51b815260206004820152602c60248201527f4552433732313a20617070726f76656420717565727920666f72206e6f6e657860448201526b34b9ba32b73a103a37b5b2b760a11b60648201526084015b60405180910390fd5b506000908152600460205260409020546001600160a01b031690565b60006105bf82610990565b9050806001600160a01b0316836001600160a01b0316141561062d5760405162461bcd60e51b815260206004820152602160248201527f4552433732313a20617070726f76616c20746f2063757272656e74206f776e656044820152603960f91b606482015260840161058f565b336001600160a01b038216148061064957506106498133610434565b6106bb5760405162461bcd60e51b815260206004820152603860248201527f4552433732313a20617070726f76652063616c6c6572206973206e6f74206f7760448201527f6e6572206e6f7220617070726f76656420666f7220616c6c0000000000000000606482015260840161058f565b6106c58383610d8e565b505050565b606060008267ffffffffffffffff8111156106e7576106e76121c5565b604051908082528060200260200182016040528015610710578160200160208202803683370190505b50905060005b838110156107b557600a600060096000888886818110610738576107386121af565b602090810292909201358352508101919091526040016000205460ff16600281111561076657610766612183565b600281111561077757610777612183565b815260200190815260200160002054828281518110610798576107986121af565b6020908102919091010152806107ad81612128565b915050610716565b509392505050565b60006107c860075490565b905090565b6107d73382610dfc565b6107f35760405162461bcd60e51b815260040161058f90611fd8565b6106c5838383610ef3565b60005b82518110156108875761082f8585858481518110610821576108216121af565b602002602001015185610bef565b61085285848381518110610845576108456121af565b602002602001015161108f565b61087584848381518110610868576108686121af565b602002602001015161120c565b8061087f81612128565b915050610801565b5050505050565b600b60205281600052604060002081815481106108aa57600080fd5b90600052602060002001600091509150505481565b6106c583838360405180602001604052806000815250610bef565b60005b82518110156109495761090b33858584815181106108fd576108fd6121af565b602002602001015185611238565b61092133848381518110610845576108456121af565b61093784848381518110610868576108686121af565b8061094181612128565b9150506108dd565b50505050565b6006546001600160a01b031633146109795760405162461bcd60e51b815260040161058f90611fa3565b805161098c9060089060208401906117db565b5050565b6000818152600260205260408120546001600160a01b031680610a075760405162461bcd60e51b815260206004820152602960248201527f4552433732313a206f776e657220717565727920666f72206e6f6e657869737460448201526832b73a103a37b5b2b760b91b606482015260840161058f565b92915050565b6006546001600160a01b03163314610a375760405162461bcd60e51b815260040161058f90611fa3565b60005b81518110156106c557610a6683838381518110610a5957610a596121af565b602002602001015161126b565b80610a7081612128565b915050610a3a565b60006001600160a01b038216610ae35760405162461bcd60e51b815260206004820152602a60248201527f4552433732313a2062616c616e636520717565727920666f7220746865207a65604482015269726f206164647265737360b01b606482015260840161058f565b506001600160a01b031660009081526003602052604090205490565b6006546001600160a01b03163314610b295760405162461bcd60e51b815260040161058f90611fa3565b610b336000611316565b565b6006546001600160a01b03163314610b5f5760405162461bcd60e51b815260040161058f90611fa3565b61098c828261126b565b6001600160a01b0381166000908152600b6020908152604091829020805483518184028101840190945280845260609392830182828015610bc957602002820191906000526020600020905b815481526020019060010190808311610bb5575b50505050509050919050565b606060018054610497906120ed565b61098c338383611368565b610bf93383610dfc565b610c155760405162461bcd60e51b815260040161058f90611fd8565b61094984848484611238565b6000818152600260205260409020546060906001600160a01b0316610c4d57610c48611437565b610a07565b610c55611437565b610c5e83611446565b604051602001610c6f929190611e56565b60405160208183030381529060405292915050565b600081815260096020526040812054600a90829060ff166002811115610cac57610cac612183565b6002811115610cbd57610cbd612183565b8152602001908152602001600020549050919050565b610cdf33848484611238565b610ce9338361108f565b6106c5838361120c565b6006546001600160a01b03163314610d1d5760405162461bcd60e51b815260040161058f90611fa3565b6001600160a01b038116610d825760405162461bcd60e51b815260206004820152602660248201527f4f776e61626c653a206e6577206f776e657220697320746865207a65726f206160448201526564647265737360d01b606482015260840161058f565b610d8b81611316565b50565b600081815260046020526040902080546001600160a01b0319166001600160a01b0384169081179091558190610dc382610990565b6001600160a01b03167f8c5be1e5ebec7d5bd14f71427d1e84f3dd0314c0f7b2291e5b200ac8c7c3b92560405160405180910390a45050565b6000818152600260205260408120546001600160a01b0316610e755760405162461bcd60e51b815260206004820152602c60248201527f4552433732313a206f70657261746f7220717565727920666f72206e6f6e657860448201526b34b9ba32b73a103a37b5b2b760a11b606482015260840161058f565b6000610e8083610990565b9050806001600160a01b0316846001600160a01b03161480610ec757506001600160a01b0380821660009081526005602090815260408083209388168352929052205460ff165b80610eeb5750836001600160a01b0316610ee08461051a565b6001600160a01b0316145b949350505050565b826001600160a01b0316610f0682610990565b6001600160a01b031614610f6a5760405162461bcd60e51b815260206004820152602560248201527f4552433732313a207472616e736665722066726f6d20696e636f72726563742060448201526437bbb732b960d91b606482015260840161058f565b6001600160a01b038216610fcc5760405162461bcd60e51b8152602060048201526024808201527f4552433732313a207472616e7366657220746f20746865207a65726f206164646044820152637265737360e01b606482015260840161058f565b610fd7600082610d8e565b6001600160a01b03831660009081526003602052604081208054600192906110009084906120aa565b90915550506001600160a01b038216600090815260036020526040812080546001929061102e90849061207e565b909155505060008181526002602052604080822080546001600160a01b0319166001600160a01b0386811691821790925591518493918716917fddf252ad1be2c89b69c2b068fc378daa952ba7f163c4a11628f55a4df523b3ef91a4505050565b6001600160a01b0382166000908152600b60209081526040808320805482518185028101850190935280835291929091908301828280156110ef57602002820191906000526020600020905b8154815260200190600101908083116110db575b505083519394506000925050505b818110156108875783838281518110611118576111186121af565b602002602001015114156111fa576111316001836120aa565b81146111b8576001600160a01b0385166000908152600b6020526040902061115a6001846120aa565b8154811061116a5761116a6121af565b9060005260206000200154600b6000876001600160a01b03166001600160a01b0316815260200190815260200160002082815481106111ab576111ab6121af565b6000918252602090912001555b6001600160a01b0385166000908152600b602052604090208054806111df576111df612199565b60019003818190600052602060002001600090559055610887565b8061120481612128565b9150506110fd565b6001600160a01b039091166000908152600b602090815260408220805460018101825590835291200155565b611243848484610ef3565b61124f84848484611544565b6109495760405162461bcd60e51b815260040161058f90611f51565b611279600780546001019055565b600061128460075490565b90506112908382611651565b6000818152600960205260409020805483919060ff191660018360028111156112bb576112bb612183565b02179055506112ca838261120c565b826001600160a01b03168260028111156112e6576112e6612183565b60405183907f43e6fe5ab208b61e1738d308954c5088333e4739034eb0dd1ffc60ebc0b1726490600090a4505050565b600680546001600160a01b038381166001600160a01b0319831681179093556040519116919082907f8be0079c531659141344cd1fd0a4f28419497f9722a3daafe3b4186f6b6457e090600090a35050565b816001600160a01b0316836001600160a01b031614156113ca5760405162461bcd60e51b815260206004820152601960248201527f4552433732313a20617070726f766520746f2063616c6c657200000000000000604482015260640161058f565b6001600160a01b03838116600081815260056020908152604080832094871680845294825291829020805460ff191686151590811790915591519182527f17307eab39ab6107e8899845ad3d59bd9653f200f220920489ca2b5937696c31910160405180910390a3505050565b606060088054610497906120ed565b60608161146a5750506040805180820190915260018152600360fc1b602082015290565b8160005b8115611494578061147e81612128565b915061148d9050600a83612096565b915061146e565b60008167ffffffffffffffff8111156114af576114af6121c5565b6040519080825280601f01601f1916602001820160405280156114d9576020820181803683370190505b5090505b8415610eeb576114ee6001836120aa565b91506114fb600a86612143565b61150690603061207e565b60f81b81838151811061151b5761151b6121af565b60200101906001600160f81b031916908160001a90535061153d600a86612096565b94506114dd565b60006001600160a01b0384163b1561164657604051630a85bd0160e11b81526001600160a01b0385169063150b7a0290611588903390899088908890600401611e95565b602060405180830381600087803b1580156115a257600080fd5b505af19250505080156115d2575060408051601f3d908101601f191682019092526115cf91810190611d90565b60015b61162c573d808015611600576040519150601f19603f3d011682016040523d82523d6000602084013e611605565b606091505b5080516116245760405162461bcd60e51b815260040161058f90611f51565b805181602001fd5b6001600160e01b031916630a85bd0160e11b149050610eeb565b506001949350505050565b61098c8282604051806020016040528060008152506116708383611699565b61167d6000848484611544565b6106c55760405162461bcd60e51b815260040161058f90611f51565b6001600160a01b0382166116ef5760405162461bcd60e51b815260206004820181905260248201527f4552433732313a206d696e7420746f20746865207a65726f2061646472657373604482015260640161058f565b6000818152600260205260409020546001600160a01b0316156117545760405162461bcd60e51b815260206004820152601c60248201527f4552433732313a20746f6b656e20616c7265616479206d696e74656400000000604482015260640161058f565b6001600160a01b038216600090815260036020526040812080546001929061177d90849061207e565b909155505060008181526002602052604080822080546001600160a01b0319166001600160a01b03861690811790915590518392907fddf252ad1be2c89b69c2b068fc378daa952ba7f163c4a11628f55a4df523b3ef908290a45050565b8280546117e7906120ed565b90600052602060002090601f016020900481019282611809576000855561184f565b82601f1061182257805160ff191683800117855561184f565b8280016001018555821561184f579182015b8281111561184f578251825591602001919060010190611834565b5061185b92915061185f565b5090565b5b8082111561185b5760008155600101611860565b600067ffffffffffffffff83111561188e5761188e6121c5565b6118a1601f8401601f1916602001612029565b90508281528383830111156118b557600080fd5b828260208301376000602084830101529392505050565b80356001600160a01b03811681146118e357600080fd5b919050565b600082601f8301126118f957600080fd5b8135602061190e6119098361205a565b612029565b80838252828201915082860187848660051b890101111561192e57600080fd5b60005b8581101561194d57813584529284019290840190600101611931565b5090979650505050505050565b600082601f83011261196b57600080fd5b61197a83833560208501611874565b9392505050565b8035600381106118e357600080fd5b6000602082840312156119a257600080fd5b61197a826118cc565b600080604083850312156119be57600080fd5b6119c7836118cc565b91506119d5602084016118cc565b90509250929050565b600080600080608085870312156119f457600080fd5b6119fd856118cc565b9350611a0b602086016118cc565b9250604085013567ffffffffffffffff80821115611a2857600080fd5b611a34888389016118e8565b93506060870135915080821115611a4a57600080fd5b50611a578782880161195a565b91505092959194509250565b600080600060608486031215611a7857600080fd5b611a81846118cc565b9250611a8f602085016118cc565b9150604084013590509250925092565b60008060008060808587031215611ab557600080fd5b611abe856118cc565b9350611acc602086016118cc565b925060408501359150606085013567ffffffffffffffff811115611aef57600080fd5b611a578782880161195a565b60008060408385031215611b0e57600080fd5b611b17836118cc565b915060208084013567ffffffffffffffff811115611b3457600080fd5b8401601f81018613611b4557600080fd5b8035611b536119098261205a565b80828252848201915084840189868560051b8701011115611b7357600080fd5b600094505b83851015611b9d57611b8981611981565b835260019490940193918501918501611b78565b5080955050505050509250929050565b600080600060608486031215611bc257600080fd5b611bcb846118cc565b9250602084013567ffffffffffffffff80821115611be857600080fd5b611bf4878388016118e8565b93506040860135915080821115611c0a57600080fd5b50611c178682870161195a565b9150509250925092565b60008060408385031215611c3457600080fd5b611c3d836118cc565b915060208301358015158114611c5257600080fd5b809150509250929050565b60008060408385031215611c7057600080fd5b611c79836118cc565b91506119d560208401611981565b60008060408385031215611c9a57600080fd5b611ca3836118cc565b946020939093013593505050565b600080600060608486031215611cc657600080fd5b611ccf846118cc565b925060208401359150604084013567ffffffffffffffff811115611cf257600080fd5b611c178682870161195a565b60008060208385031215611d1157600080fd5b823567ffffffffffffffff80821115611d2957600080fd5b818501915085601f830112611d3d57600080fd5b813581811115611d4c57600080fd5b8660208260051b8501011115611d6157600080fd5b60209290920196919550909350505050565b600060208284031215611d8557600080fd5b813561197a816121db565b600060208284031215611da257600080fd5b815161197a816121db565b600060208284031215611dbf57600080fd5b61197a82611981565b600060208284031215611dda57600080fd5b813567ffffffffffffffff811115611df157600080fd5b8201601f81018413611e0257600080fd5b610eeb84823560208401611874565b600060208284031215611e2357600080fd5b5035919050565b60008151808452611e428160208601602086016120c1565b601f01601f19169290920160200192915050565b60008351611e688184602088016120c1565b835190830190611e7c8183602088016120c1565b64173539b7b760d91b9101908152600501949350505050565b6001600160a01b0385811682528416602082015260408101839052608060608201819052600090611ec890830184611e2a565b9695505050505050565b6020808252825182820181905260009190848201906040850190845b81811015611f0a57835183529284019291840191600101611eee565b50909695505050505050565b6020810160038310611f3857634e487b7160e01b600052602160045260246000fd5b91905290565b60208152600061197a6020830184611e2a565b60208082526032908201527f4552433732313a207472616e7366657220746f206e6f6e20455243373231526560408201527131b2b4bb32b91034b6b83632b6b2b73a32b960711b606082015260800190565b6020808252818101527f4f776e61626c653a2063616c6c6572206973206e6f7420746865206f776e6572604082015260600190565b60208082526031908201527f4552433732313a207472616e736665722063616c6c6572206973206e6f74206f6040820152701ddb995c881b9bdc88185c1c1c9bdd9959607a1b606082015260800190565b604051601f8201601f1916810167ffffffffffffffff81118282101715612052576120526121c5565b604052919050565b600067ffffffffffffffff821115612074576120746121c5565b5060051b60200190565b6000821982111561209157612091612157565b500190565b6000826120a5576120a561216d565b500490565b6000828210156120bc576120bc612157565b500390565b60005b838110156120dc5781810151838201526020016120c4565b838111156109495750506000910152565b600181811c9082168061210157607f821691505b6020821081141561212257634e487b7160e01b600052602260045260246000fd5b50919050565b600060001982141561213c5761213c612157565b5060010190565b6000826121525761215261216d565b500690565b634e487b7160e01b600052601160045260246000fd5b634e487b7160e01b600052601260045260246000fd5b634e487b7160e01b600052602160045260246000fd5b634e487b7160e01b600052603160045260246000fd5b634e487b7160e01b600052603260045260246000fd5b634e487b7160e01b600052604160045260246000fd5b6001600160e01b031981168114610d8b57600080fdfea2646970667358221220a71bf3a320ec5fa6b366678ac50578cdc1f0f0e26835b0c4643387d40376782b64736f6c63430008070033",
  "devdoc": {
    "details": "Contract module which provides functionality to mint new ERC721 tokens      Each token connected with image. The image saves on IPFS. Also each token belongs one of the Sweet tiers, and give      some tickets for lottery.",
    "kind": "dev",
    "methods": {
      "approve(address,uint256)": {
        "details": "See {IERC721-approve}."
      },
      "balanceOf(address)": {
        "details": "See {IERC721-balanceOf}."
      },
      "getApproved(uint256)": {
        "details": "See {IERC721-getApproved}."
      },
      "getTicketsQuantityById(uint256)": {
        "params": {
          "id_": "Token id"
        },
        "returns": {
          "_0": "ticketsQuantity Tickets quantity"
        }
      },
      "getTicketsQuantityByIds(uint256[])": {
        "params": {
          "ids_": "Array of token ids"
        },
        "returns": {
          "_0": "ticketsQuantity Array of tickets quantity"
        }
      },
      "isApprovedForAll(address,address)": {
        "details": "See {IERC721-isApprovedForAll}."
      },
      "name()": {
        "details": "See {IERC721Metadata-name}."
      },
      "owner()": {
        "details": "Returns the address of the current owner."
      },
      "ownerOf(uint256)": {
        "details": "See {IERC721-ownerOf}."
      },
      "renounceOwnership()": {
        "details": "Leaves the contract without owner. It will not be possible to call `onlyOwner` functions anymore. Can only be called by the current owner. NOTE: Renouncing ownership will leave the contract without an owner, thereby removing any functionality that is only available to the owner."
      },
      "safeBatchTransfer(address,uint256[],bytes)": {
        "params": {
          "data_": "The _data argument MAY be re-purposed for the new context.",
          "ids_": "Array of token ids",
          "to_": "The address of the tokens receiver"
        }
      },
      "safeBatchTransferFrom(address,address,uint256[],bytes)": {
        "params": {
          "data_": "The _data argument MAY be re-purposed for the new context.",
          "from_": "The address of the tokens owner",
          "ids_": "Array of token ids",
          "to_": "The address of the tokens receiver"
        }
      },
      "safeMint(address,uint8)": {
        "params": {
          "tier_": "tier"
        }
      },
      "safeMintBatch(address,uint8[])": {
        "params": {
          "account_": "The address of the owner of tokens",
          "tiers_": "Array of tiers"
        }
      },
      "safeTransfer(address,uint256,bytes)": {
        "params": {
          "data_": "The _data argument MAY be re-purposed for the new context.",
          "id_": "token id",
          "to_": "The address of the token receiver"
        }
      },
      "safeTransferFrom(address,address,uint256)": {
        "details": "See {IERC721-safeTransferFrom}."
      },
      "safeTransferFrom(address,address,uint256,bytes)": {
        "details": "See {IERC721-safeTransferFrom}."
      },
      "setApprovalForAll(address,bool)": {
        "details": "See {IERC721-setApprovalForAll}."
      },
      "symbol()": {
        "details": "See {IERC721Metadata-symbol}."
      },
      "transferFrom(address,address,uint256)": {
        "details": "See {IERC721-transferFrom}."
      },
      "transferOwnership(address)": {
        "details": "Transfers ownership of the contract to a new account (`newOwner`). Can only be called by the current owner."
      }
    },
    "stateVariables": {
      "idCounter": {
        "details": "ERC721 id, Indicates a specific token or token type"
      },
      "idToTier": {
        "details": "The data for each SweetpadNFT token"
      },
      "userNFTs": {
        "details": "Array of user NFTs"
      }
    },
    "title": "SweetpadNFT",
    "version": 1
  },
  "userdoc": {
    "events": {
      "Create(uint256,uint8,address)": {
        "notice": "Emitted when new NFT is minted"
      }
    },
    "kind": "user",
    "methods": {
      "constructor": {
        "notice": "Initialize contract"
      },
      "getTicketsQuantityById(uint256)": {
        "notice": "Function to get tickets quantity by tokens id."
      },
      "getTicketsQuantityByIds(uint256[])": {
        "notice": "Function to get tickets quantity by tokens ids."
      },
      "getUserNfts(address)": {
        "notice": "Returns user NFTs"
      },
      "safeBatchTransfer(address,uint256[],bytes)": {
        "notice": "Transfer tokens to another account"
      },
      "safeBatchTransferFrom(address,address,uint256[],bytes)": {
        "notice": "Transfer tokens from 'from' to 'to'"
      },
      "safeMint(address,uint8)": {
        "notice": "Mint new 721 standard token"
      },
      "safeMintBatch(address,uint8[])": {
        "notice": "Mint new ERC721 standard tokens in one transaction"
      },
      "safeTransfer(address,uint256,bytes)": {
        "notice": "Transfer token to another account"
      }
    },
    "version": 1
  },
  "storageLayout": {
    "storage": [
      {
        "astId": 1436,
        "contract": "contracts/SweetpadNFT.sol:SweetpadNFT",
        "label": "_name",
        "offset": 0,
        "slot": "0",
        "type": "t_string_storage"
      },
      {
        "astId": 1438,
        "contract": "contracts/SweetpadNFT.sol:SweetpadNFT",
        "label": "_symbol",
        "offset": 0,
        "slot": "1",
        "type": "t_string_storage"
      },
      {
        "astId": 1442,
        "contract": "contracts/SweetpadNFT.sol:SweetpadNFT",
        "label": "_owners",
        "offset": 0,
        "slot": "2",
        "type": "t_mapping(t_uint256,t_address)"
      },
      {
        "astId": 1446,
        "contract": "contracts/SweetpadNFT.sol:SweetpadNFT",
        "label": "_balances",
        "offset": 0,
        "slot": "3",
        "type": "t_mapping(t_address,t_uint256)"
      },
      {
        "astId": 1450,
        "contract": "contracts/SweetpadNFT.sol:SweetpadNFT",
        "label": "_tokenApprovals",
        "offset": 0,
        "slot": "4",
        "type": "t_mapping(t_uint256,t_address)"
      },
      {
        "astId": 1456,
        "contract": "contracts/SweetpadNFT.sol:SweetpadNFT",
        "label": "_operatorApprovals",
        "offset": 0,
        "slot": "5",
        "type": "t_mapping(t_address,t_mapping(t_address,t_bool))"
      },
      {
        "astId": 400,
        "contract": "contracts/SweetpadNFT.sol:SweetpadNFT",
        "label": "_owner",
        "offset": 0,
        "slot": "6",
        "type": "t_address"
      },
      {
        "astId": 6759,
        "contract": "contracts/SweetpadNFT.sol:SweetpadNFT",
        "label": "idCounter",
        "offset": 0,
        "slot": "7",
        "type": "t_struct(Counter)2787_storage"
      },
      {
        "astId": 6762,
        "contract": "contracts/SweetpadNFT.sol:SweetpadNFT",
        "label": "baseURI",
        "offset": 0,
        "slot": "8",
        "type": "t_string_storage"
      },
      {
        "astId": 6769,
        "contract": "contracts/SweetpadNFT.sol:SweetpadNFT",
        "label": "idToTier",
        "offset": 0,
        "slot": "9",
        "type": "t_mapping(t_uint256,t_enum(Tier)8427)"
      },
      {
        "astId": 6775,
        "contract": "contracts/SweetpadNFT.sol:SweetpadNFT",
        "label": "tierToBoost",
        "offset": 0,
        "slot": "10",
        "type": "t_mapping(t_enum(Tier)8427,t_uint256)"
      },
      {
        "astId": 6781,
        "contract": "contracts/SweetpadNFT.sol:SweetpadNFT",
        "label": "userNFTs",
        "offset": 0,
        "slot": "11",
        "type": "t_mapping(t_address,t_array(t_uint256)dyn_storage)"
      }
    ],
    "types": {
      "t_address": {
        "encoding": "inplace",
        "label": "address",
        "numberOfBytes": "20"
      },
      "t_array(t_uint256)dyn_storage": {
        "base": "t_uint256",
        "encoding": "dynamic_array",
        "label": "uint256[]",
        "numberOfBytes": "32"
      },
      "t_bool": {
        "encoding": "inplace",
        "label": "bool",
        "numberOfBytes": "1"
      },
      "t_enum(Tier)8427": {
        "encoding": "inplace",
        "label": "enum ISweetpadNFT.Tier",
        "numberOfBytes": "1"
      },
      "t_mapping(t_address,t_array(t_uint256)dyn_storage)": {
        "encoding": "mapping",
        "key": "t_address",
        "label": "mapping(address => uint256[])",
        "numberOfBytes": "32",
        "value": "t_array(t_uint256)dyn_storage"
      },
      "t_mapping(t_address,t_bool)": {
        "encoding": "mapping",
        "key": "t_address",
        "label": "mapping(address => bool)",
        "numberOfBytes": "32",
        "value": "t_bool"
      },
      "t_mapping(t_address,t_mapping(t_address,t_bool))": {
        "encoding": "mapping",
        "key": "t_address",
        "label": "mapping(address => mapping(address => bool))",
        "numberOfBytes": "32",
        "value": "t_mapping(t_address,t_bool)"
      },
      "t_mapping(t_address,t_uint256)": {
        "encoding": "mapping",
        "key": "t_address",
        "label": "mapping(address => uint256)",
        "numberOfBytes": "32",
        "value": "t_uint256"
      },
      "t_mapping(t_enum(Tier)8427,t_uint256)": {
        "encoding": "mapping",
        "key": "t_enum(Tier)8427",
        "label": "mapping(enum ISweetpadNFT.Tier => uint256)",
        "numberOfBytes": "32",
        "value": "t_uint256"
      },
      "t_mapping(t_uint256,t_address)": {
        "encoding": "mapping",
        "key": "t_uint256",
        "label": "mapping(uint256 => address)",
        "numberOfBytes": "32",
        "value": "t_address"
      },
      "t_mapping(t_uint256,t_enum(Tier)8427)": {
        "encoding": "mapping",
        "key": "t_uint256",
        "label": "mapping(uint256 => enum ISweetpadNFT.Tier)",
        "numberOfBytes": "32",
        "value": "t_enum(Tier)8427"
      },
      "t_string_storage": {
        "encoding": "bytes",
        "label": "string",
        "numberOfBytes": "32"
      },
      "t_struct(Counter)2787_storage": {
        "encoding": "inplace",
        "label": "struct Counters.Counter",
        "members": [
          {
            "astId": 2786,
            "contract": "contracts/SweetpadNFT.sol:SweetpadNFT",
            "label": "_value",
            "offset": 0,
            "slot": "0",
            "type": "t_uint256"
          }
        ],
        "numberOfBytes": "32"
      },
      "t_uint256": {
        "encoding": "inplace",
        "label": "uint256",
        "numberOfBytes": "32"
      }
    }
  }
}