{
  "address": "0x6DF14cC3626A7069425609A33125e5CA51b6c833",
  "abi": [
    {
      "inputs": [
        {
          "internalType": "contract ISweetpadTicket",
          "name": "sweetpadTicket_",
          "type": "address"
        },
        {
          "internalType": "contract ISweetpadFreezing",
          "name": "sweetpadFreezing_",
          "type": "address"
        },
        {
          "internalType": "contract ISweetpadNFTFreezing",
          "name": "sweetpadNFTFreezing_",
          "type": "address"
        },
        {
          "internalType": "contract SweetpadLottery",
          "name": "sweetpadLottery_",
          "type": "address"
        },
        {
          "internalType": "contract IERC20",
          "name": "asset_",
          "type": "address"
        },
        {
          "internalType": "address",
          "name": "client_",
          "type": "address"
        },
        {
          "internalType": "address",
          "name": "admin_",
          "type": "address"
        }
      ],
      "stateMutability": "nonpayable",
      "type": "constructor"
    },
    {
      "anonymous": false,
      "inputs": [
        {
          "indexed": true,
          "internalType": "bytes32",
          "name": "role",
          "type": "bytes32"
        },
        {
          "indexed": true,
          "internalType": "bytes32",
          "name": "previousAdminRole",
          "type": "bytes32"
        },
        {
          "indexed": true,
          "internalType": "bytes32",
          "name": "newAdminRole",
          "type": "bytes32"
        }
      ],
      "name": "RoleAdminChanged",
      "type": "event"
    },
    {
      "anonymous": false,
      "inputs": [
        {
          "indexed": true,
          "internalType": "bytes32",
          "name": "role",
          "type": "bytes32"
        },
        {
          "indexed": true,
          "internalType": "address",
          "name": "account",
          "type": "address"
        },
        {
          "indexed": true,
          "internalType": "address",
          "name": "sender",
          "type": "address"
        }
      ],
      "name": "RoleGranted",
      "type": "event"
    },
    {
      "anonymous": false,
      "inputs": [
        {
          "indexed": true,
          "internalType": "bytes32",
          "name": "role",
          "type": "bytes32"
        },
        {
          "indexed": true,
          "internalType": "address",
          "name": "account",
          "type": "address"
        },
        {
          "indexed": true,
          "internalType": "address",
          "name": "sender",
          "type": "address"
        }
      ],
      "name": "RoleRevoked",
      "type": "event"
    },
    {
      "inputs": [],
      "name": "BUSD",
      "outputs": [
        {
          "internalType": "contract IERC20",
          "name": "",
          "type": "address"
        }
      ],
      "stateMutability": "view",
      "type": "function"
    },
    {
      "inputs": [],
      "name": "CLIENT_ROLE",
      "outputs": [
        {
          "internalType": "bytes32",
          "name": "",
          "type": "bytes32"
        }
      ],
      "stateMutability": "view",
      "type": "function"
    },
    {
      "inputs": [],
      "name": "DEFAULT_ADMIN_ROLE",
      "outputs": [
        {
          "internalType": "bytes32",
          "name": "",
          "type": "bytes32"
        }
      ],
      "stateMutability": "view",
      "type": "function"
    },
    {
      "inputs": [],
      "name": "allocationPerTicket",
      "outputs": [
        {
          "internalType": "uint256",
          "name": "",
          "type": "uint256"
        }
      ],
      "stateMutability": "view",
      "type": "function"
    },
    {
      "inputs": [],
      "name": "asset",
      "outputs": [
        {
          "internalType": "contract IERC20",
          "name": "",
          "type": "address"
        }
      ],
      "stateMutability": "view",
      "type": "function"
    },
    {
      "inputs": [],
      "name": "availableTokensToSell",
      "outputs": [
        {
          "internalType": "uint256",
          "name": "",
          "type": "uint256"
        }
      ],
      "stateMutability": "view",
      "type": "function"
    },
    {
      "inputs": [
        {
          "internalType": "uint256",
          "name": "amount_",
          "type": "uint256"
        }
      ],
      "name": "buyFirstStage",
      "outputs": [],
      "stateMutability": "nonpayable",
      "type": "function"
    },
    {
      "inputs": [
        {
          "internalType": "uint256",
          "name": "amount_",
          "type": "uint256"
        }
      ],
      "name": "buyFromWonTickets",
      "outputs": [],
      "stateMutability": "nonpayable",
      "type": "function"
    },
    {
      "inputs": [
        {
          "internalType": "uint256",
          "name": "amount_",
          "type": "uint256"
        }
      ],
      "name": "buySecondStage",
      "outputs": [],
      "stateMutability": "nonpayable",
      "type": "function"
    },
    {
      "inputs": [],
      "name": "commission",
      "outputs": [
        {
          "internalType": "uint256",
          "name": "",
          "type": "uint256"
        }
      ],
      "stateMutability": "view",
      "type": "function"
    },
    {
      "inputs": [
        {
          "internalType": "address",
          "name": "user_",
          "type": "address"
        }
      ],
      "name": "getAllocationFromLottery",
      "outputs": [
        {
          "internalType": "uint256",
          "name": "allocation",
          "type": "uint256"
        }
      ],
      "stateMutability": "view",
      "type": "function"
    },
    {
      "inputs": [
        {
          "internalType": "address",
          "name": "user_",
          "type": "address"
        }
      ],
      "name": "getNumberOfWinningTickets",
      "outputs": [
        {
          "internalType": "uint256",
          "name": "numberOfWinningTickets",
          "type": "uint256"
        }
      ],
      "stateMutability": "view",
      "type": "function"
    },
    {
      "inputs": [
        {
          "internalType": "bytes32",
          "name": "role",
          "type": "bytes32"
        }
      ],
      "name": "getRoleAdmin",
      "outputs": [
        {
          "internalType": "bytes32",
          "name": "",
          "type": "bytes32"
        }
      ],
      "stateMutability": "view",
      "type": "function"
    },
    {
      "inputs": [],
      "name": "getWinningTicketsNumber",
      "outputs": [
        {
          "internalType": "uint256",
          "name": "",
          "type": "uint256"
        }
      ],
      "stateMutability": "view",
      "type": "function"
    },
    {
      "inputs": [
        {
          "internalType": "bytes32",
          "name": "role",
          "type": "bytes32"
        },
        {
          "internalType": "address",
          "name": "account",
          "type": "address"
        }
      ],
      "name": "grantRole",
      "outputs": [],
      "stateMutability": "nonpayable",
      "type": "function"
    },
    {
      "inputs": [
        {
          "internalType": "bytes32",
          "name": "role",
          "type": "bytes32"
        },
        {
          "internalType": "address",
          "name": "account",
          "type": "address"
        }
      ],
      "name": "hasRole",
      "outputs": [
        {
          "internalType": "bool",
          "name": "",
          "type": "bool"
        }
      ],
      "stateMutability": "view",
      "type": "function"
    },
    {
      "inputs": [],
      "name": "idoSaleEnd",
      "outputs": [
        {
          "internalType": "uint256",
          "name": "",
          "type": "uint256"
        }
      ],
      "stateMutability": "view",
      "type": "function"
    },
    {
      "inputs": [],
      "name": "idoSaleStart",
      "outputs": [
        {
          "internalType": "uint256",
          "name": "",
          "type": "uint256"
        }
      ],
      "stateMutability": "view",
      "type": "function"
    },
    {
      "inputs": [],
      "name": "idoSecondSaleEnd",
      "outputs": [
        {
          "internalType": "uint256",
          "name": "",
          "type": "uint256"
        }
      ],
      "stateMutability": "view",
      "type": "function"
    },
    {
      "inputs": [],
      "name": "idoSecondSaleStart",
      "outputs": [
        {
          "internalType": "uint256",
          "name": "",
          "type": "uint256"
        }
      ],
      "stateMutability": "view",
      "type": "function"
    },
    {
      "inputs": [],
      "name": "percentForGuaranteedAllocation",
      "outputs": [
        {
          "internalType": "uint256",
          "name": "",
          "type": "uint256"
        }
      ],
      "stateMutability": "view",
      "type": "function"
    },
    {
      "inputs": [],
      "name": "percentForLottery",
      "outputs": [
        {
          "internalType": "uint256",
          "name": "",
          "type": "uint256"
        }
      ],
      "stateMutability": "view",
      "type": "function"
    },
    {
      "inputs": [
        {
          "internalType": "bytes32",
          "name": "role",
          "type": "bytes32"
        },
        {
          "internalType": "address",
          "name": "account",
          "type": "address"
        }
      ],
      "name": "renounceRole",
      "outputs": [],
      "stateMutability": "nonpayable",
      "type": "function"
    },
    {
      "inputs": [
        {
          "internalType": "bytes32",
          "name": "role",
          "type": "bytes32"
        },
        {
          "internalType": "address",
          "name": "account",
          "type": "address"
        }
      ],
      "name": "revokeRole",
      "outputs": [],
      "stateMutability": "nonpayable",
      "type": "function"
    },
    {
      "inputs": [
        {
          "internalType": "uint256",
          "name": "lotteryPercent_",
          "type": "uint256"
        },
        {
          "internalType": "uint256",
          "name": "guarantedPercent_",
          "type": "uint256"
        },
        {
          "internalType": "uint256",
          "name": "totalPower_",
          "type": "uint256"
        },
        {
          "internalType": "uint256",
          "name": "commission_",
          "type": "uint256"
        },
        {
          "internalType": "uint256",
          "name": "tokensToSell_",
          "type": "uint256"
        },
        {
          "internalType": "uint256",
          "name": "tokenPrice_",
          "type": "uint256"
        },
        {
          "internalType": "uint256",
          "name": "allocationPerTicket_",
          "type": "uint256"
        },
        {
          "internalType": "uint256",
          "name": "idoSaleStart_",
          "type": "uint256"
        },
        {
          "internalType": "uint256",
          "name": "idoSaleEnd_",
          "type": "uint256"
        },
        {
          "internalType": "uint256",
          "name": "idoSecondSaleStart_",
          "type": "uint256"
        },
        {
          "internalType": "uint256",
          "name": "idoSecondSaleEnd_",
          "type": "uint256"
        }
      ],
      "name": "setup",
      "outputs": [],
      "stateMutability": "nonpayable",
      "type": "function"
    },
    {
      "inputs": [
        {
          "internalType": "bytes4",
          "name": "interfaceId",
          "type": "bytes4"
        }
      ],
      "name": "supportsInterface",
      "outputs": [
        {
          "internalType": "bool",
          "name": "",
          "type": "bool"
        }
      ],
      "stateMutability": "view",
      "type": "function"
    },
    {
      "inputs": [],
      "name": "sweetpadFreezing",
      "outputs": [
        {
          "internalType": "contract ISweetpadFreezing",
          "name": "",
          "type": "address"
        }
      ],
      "stateMutability": "view",
      "type": "function"
    },
    {
      "inputs": [],
      "name": "sweetpadLottery",
      "outputs": [
        {
          "internalType": "contract SweetpadLottery",
          "name": "",
          "type": "address"
        }
      ],
      "stateMutability": "view",
      "type": "function"
    },
    {
      "inputs": [],
      "name": "sweetpadNFTFreezing",
      "outputs": [
        {
          "internalType": "contract ISweetpadNFTFreezing",
          "name": "",
          "type": "address"
        }
      ],
      "stateMutability": "view",
      "type": "function"
    },
    {
      "inputs": [],
      "name": "sweetpadTicket",
      "outputs": [
        {
          "internalType": "contract ISweetpadTicket",
          "name": "",
          "type": "address"
        }
      ],
      "stateMutability": "view",
      "type": "function"
    },
    {
      "inputs": [],
      "name": "tokenPrice",
      "outputs": [
        {
          "internalType": "uint256",
          "name": "",
          "type": "uint256"
        }
      ],
      "stateMutability": "view",
      "type": "function"
    },
    {
      "inputs": [
        {
          "internalType": "address",
          "name": "",
          "type": "address"
        }
      ],
      "name": "tokensBoughtFirstStage",
      "outputs": [
        {
          "internalType": "uint256",
          "name": "",
          "type": "uint256"
        }
      ],
      "stateMutability": "view",
      "type": "function"
    },
    {
      "inputs": [
        {
          "internalType": "address",
          "name": "",
          "type": "address"
        }
      ],
      "name": "tokensBoughtSecondStage",
      "outputs": [
        {
          "internalType": "uint256",
          "name": "",
          "type": "uint256"
        }
      ],
      "stateMutability": "view",
      "type": "function"
    },
    {
      "inputs": [],
      "name": "tokensToSell",
      "outputs": [
        {
          "internalType": "uint256",
          "name": "",
          "type": "uint256"
        }
      ],
      "stateMutability": "view",
      "type": "function"
    },
    {
      "inputs": [],
      "name": "totalPower",
      "outputs": [
        {
          "internalType": "uint256",
          "name": "",
          "type": "uint256"
        }
      ],
      "stateMutability": "view",
      "type": "function"
    },
    {
      "inputs": [
        {
          "internalType": "address",
          "name": "",
          "type": "address"
        }
      ],
      "name": "unlockedToSecondStage",
      "outputs": [
        {
          "internalType": "bool",
          "name": "",
          "type": "bool"
        }
      ],
      "stateMutability": "view",
      "type": "function"
    }
  ],
  "transactionHash": "0xcd371cbb52a1c11361138e37ad0fcbd956271b31f5c4877f1a3598b15669e08f",
  "args": [
    "0xe394eEA0F626c7Bf2BDf3a3f25300083913748E0",
    "0x5196615624ea4A19E275Be4186fccdf330FC0A8D",
    "0x5c0c823260A08531c0fc5EE3bbbc016498959C01",
    "0x1d01f32AdEE0b1d260160272a853b8B3E307E717",
    "0xd7c3228aff21C6Ed1Ffb2D64468092d8249fC508",
    "0xb2444FE0E53378E094736834067c1E2653ec3CAB",
    "0xb2444FE0E53378E094736834067c1E2653ec3CAB"
  ],
  "numDeployments": 6,
  "solcInputHash": "484c5bcf6d65ed59e705ce15efc26ca3",
  "bytecode": "0x6080604052601180546001600160a01b031916736147bc9c226748b47bfea290f58cd0e5dc2e5d721790553480156200003757600080fd5b50604051620023bf380380620023bf8339810160408190526200005a9162000197565b600180546001600160a01b03199081166001600160a01b038a81169190911790925560028054821689841617905560038054821688841617905560048054821687841617905560128054909116918516919091179055620000bd600082620000f6565b620000e97fa5ff3ec7a96cdbba4d2d5172d66bbc73c6db3885f29b21be5da9fa7a7c02523283620000f6565b505050505050506200025b565b6000828152602081815260408083206001600160a01b038516845290915290205460ff1662000193576000828152602081815260408083206001600160a01b03851684529091529020805460ff19166001179055620001523390565b6001600160a01b0316816001600160a01b0316837f2f8788117e7eff1d82e926ec794901d17c78024a50270940304540a733656f0d60405160405180910390a45b5050565b600080600080600080600060e0888a031215620001b357600080fd5b8751620001c08162000242565b6020890151909750620001d38162000242565b6040890151909650620001e68162000242565b6060890151909550620001f98162000242565b60808901519094506200020c8162000242565b60a08901519093506200021f8162000242565b60c0890151909250620002328162000242565b8091505092959891949750929550565b6001600160a01b03811681146200025857600080fd5b50565b612154806200026b6000396000f3fe608060405234801561001057600080fd5b506004361061021c5760003560e01c806391d1485411610125578063d3f903b5116100ad578063dc8ba8e61161007c578063dc8ba8e614610480578063e148919114610489578063eae6f65214610492578063f0d21645146104b9578063fe942862146104c157600080fd5b8063d3f903b51461043e578063d547741f14610451578063d5faa64e14610464578063db3ad22c1461047757600080fd5b8063c340db71116100f4578063c340db71146103e6578063c4cf97e8146103f9578063ccea648f14610402578063d0672e141461040b578063d28817b71461041e57600080fd5b806391d14854146103af5780639af637a4146103c2578063a217fddf146103d5578063acde2d88146103dd57600080fd5b80633b7eda5a116101a8578063586fe3af11610177578063586fe3af1461034a57806360e3a42f1461035d5780637ff9b59614610370578063894ad666146103795780639176fd181461039c57600080fd5b80633b7eda5a1461031c5780633d95669114610325578063484f4ea91461032e5780634d14ba341461034157600080fd5b8063248a9ca3116101ef578063248a9ca3146102955780632f2ff15d146102b857806333bdd436146102cb57806336568abe146102de57806338d52e0f146102f157600080fd5b806301ffc9a714610221578063059c9149146102495780630e7148691461026057806313e4197114610280575b600080fd5b61023461022f366004611c6d565b6104ca565b60405190151581526020015b60405180910390f35b610252600e5481565b604051908152602001610240565b61025261026e366004611b4d565b60156020526000908152604090205481565b61029361028e366004611d63565b610501565b005b6102526102a3366004611c24565b60009081526020819052604090206001015490565b6102936102c6366004611c3d565b610a2e565b6102526102d9366004611b4d565b610a58565b6102936102ec366004611c3d565b610d24565b601254610304906001600160a01b031681565b6040516001600160a01b039091168152602001610240565b61025260065481565b61025260095481565b601154610304906001600160a01b031681565b610252600c5481565b610293610358366004611c24565b610da2565b61029361036b366004611c24565b611093565b610252600b5481565b610234610387366004611b4d565b60136020526000908152604090205460ff1681565b600354610304906001600160a01b031681565b6102346103bd366004611c3d565b61112f565b600154610304906001600160a01b031681565b610252600081565b610252600d5481565b6102936103f4366004611c24565b611158565b610252600a5481565b610252600f5481565b600254610304906001600160a01b031681565b61025261042c366004611b4d565b60146020526000908152604090205481565b600454610304906001600160a01b031681565b61029361045f366004611c3d565b61147e565b610252610472366004611b4d565b6114a3565b61025260075481565b61025260055481565b61025260085481565b6102527fa5ff3ec7a96cdbba4d2d5172d66bbc73c6db3885f29b21be5da9fa7a7c02523281565b6102526114c6565b61025260105481565b60006001600160e01b03198216637965db0b60e01b14806104fb57506301ffc9a760e01b6001600160e01b03198316145b92915050565b600061050c816114d6565b60648c11801561051e57506105dc8c11155b6105a15760405162461bcd60e51b815260206004820152604360248201527f537765657470616449444f3a20547279696e6720746f2073657420696e636f7260448201527f726563742070657263656e7420666f72206c6f747465727920616c6c6f63617460648201526234b7b760e91b608482015260a4015b60405180910390fd5b6121348b101580156105b557506126ac8b11155b6106355760405162461bcd60e51b815260206004820152604560248201527f537765657470616449444f3a20547279696e6720746f2073657420696e636f7260448201527f726563742070657263656e7420666f722067756172616e74656420616c6c6f6360648201526430ba34b7b760d91b608482015260a401610598565b61063f8c8c611ff9565b6127101461068f5760405162461bcd60e51b815260206004820152601f60248201527f537765657470616449444f3a20496e636f72726563742070657263656e7473006044820152606401610598565b60008a116106ed5760405162461bcd60e51b815260206004820152602560248201527f537765657470616449444f3a20546f74616c506f7765722063616e2774206265604482015264207a65726f60d81b6064820152608401610598565b6000881161074d5760405162461bcd60e51b815260206004820152602760248201527f537765657470616449444f3a20546f6b656e73546f53656c6c2063616e2774206044820152666265207a65726f60c81b6064820152608401610598565b600087116107ab5760405162461bcd60e51b815260206004820152602560248201527f537765657470616449444f3a20546f6b656e50726963652063616e2774206265604482015264207a65726f60d81b6064820152608401610598565b600086116108145760405162461bcd60e51b815260206004820152603060248201527f537765657470616449444f3a20416c6c6f636174696f6e20706572207469636b60448201526f65742063616e2774206265207a65726f60801b6064820152608401610598565b4385101561086e5760405162461bcd60e51b815260206004820152602160248201527f537765657470616449444f3a20496e76616c696420626c6f636b206e756d62656044820152603960f91b6064820152608401610598565b8484116108e5576040805162461bcd60e51b81526020600482015260248101919091527f537765657470616449444f3a2049444f2073616c6520656e6420626c6f636b2060448201527f6d7573742062652067726561746572207468656e20737461727420626c6f636b6064820152608401610598565b8383116109705760405162461bcd60e51b815260206004820152604d60248201527f537765657470616449444f3a2049444f207365636f6e642073616c652073746160448201527f727420626c6f636b206d7573742062652067726561746572207468656e20666960648201526c72737420656e6420626c6f636b60981b608482015260a401610598565b818311156109f65760405162461bcd60e51b815260206004820152604760248201527f537765657470616449444f3a2049444f207365636f6e642073616c6520656e6460448201527f20626c6f636b206d7573742062652067726561746572207468656e20737461726064820152667420626c6f636b60c81b608482015260a401610598565b5060059a909a556006989098556007969096556008949094556009839055600a92909255600b55600c55600d55600f55600e55601055565b600082815260208190526040902060010154610a49816114d6565b610a5383836114e3565b505050565b6004805460405163371ece3d60e21b8152309281019290925260009182916001600160a01b03169063da47675590829063dc7b38f49060240160206040518083038186803b158015610aa957600080fd5b505afa158015610abd573d6000803e3d6000fd5b505050506040513d601f19601f82011682018060405250810190610ae19190611d4a565b6040518263ffffffff1660e01b8152600401610aff91815260200190565b60006040518083038186803b158015610b1757600080fd5b505afa158015610b2b573d6000803e3d6000fd5b505050506040513d6000823e601f3d908101601f19168201604052610b539190810190611c97565b60a0015160035460405163231d54c160e21b81526001600160a01b03868116600483015230602483015292935060009290911690638c7553049060440160006040518083038186803b158015610ba857600080fd5b505afa158015610bbc573d6000803e3d6000fd5b505050506040513d6000823e601f3d908101601f19168201604052610be49190810190611b6a565b905060005b8251811015610d1c5760005b8251811015610d0957828181518110610c1057610c106120dd565b602002602001015160001415610c2557610cf7565b828181518110610c3757610c376120dd565b6020026020010151848381518110610c5157610c516120dd565b602002602001015161ffff161415610cf75760018351610c719190612052565b8114610cbd578260018451610c869190612052565b81518110610c9657610c966120dd565b6020026020010151838281518110610cb057610cb06120dd565b6020026020010181815250505b60008360018551610cce9190612052565b81518110610cde57610cde6120dd565b6020908102919091010152610cf4600186611ff9565b94505b80610d01816120ac565b915050610bf5565b5080610d14816120ac565b915050610be9565b505050919050565b6001600160a01b0381163314610d945760405162461bcd60e51b815260206004820152602f60248201527f416363657373436f6e74726f6c3a2063616e206f6e6c792072656e6f756e636560448201526e103937b632b9903337b91039b2b63360891b6064820152608401610598565b610d9e8282611567565b5050565b43600d5411158015610db5575043600f54115b610e015760405162461bcd60e51b815260206004820181905260248201527f537765657470616449444f3a2057726f6e6720706572696f6420746f206275796044820152606401610598565b60008111610e215760405162461bcd60e51b815260040161059890611f2e565b6002546040516307c844e360e21b81523360048201526000916001600160a01b031690631f21138c9060240160206040518083038186803b158015610e6557600080fd5b505afa158015610e79573d6000803e3d6000fd5b505050506040513d601f19601f82011682018060405250810190610e9d9190611d4a565b905060008111610ebf5760405162461bcd60e51b815260040161059890611e99565b600060075461271083600654600954670de0b6b3a7640000610ee19190612033565b610eeb9190612033565b610ef59190612033565b610eff9190612011565b610f099190612011565b33600090815260146020526040812054600754600b54939450919290919061271090610f359086612033565b610f3f9190612011565b610f499190612011565b610f539190612052565b905083811015610f755760405162461bcd60e51b815260040161059890611ee0565b601154610f8d906001600160a01b03163330876115cc565b600b54610fa285670de0b6b3a7640000612033565b610fac9190612011565b3360009081526014602052604081208054909190610fcb908490611ff9565b9091555050600b54611008903390610feb87670de0b6b3a7640000612033565b610ff59190612011565b6012546001600160a01b03169190611637565b600b5461101d85670de0b6b3a7640000612033565b6110279190612011565b600a60008282546110389190612052565b9091555050336000908152601460205260409020546110579083612052565b61108d57336000908152601360205260408120805460ff1916600117905560168054859290611087908490611ff9565b90915550505b50505050565b600061109e336114a3565b9050818110156110fc5760405162461bcd60e51b8152602060048201526024808201527f537765657470616449444f3a20496e73756666696369656e7420616c6c6f63616044820152633a34b7b760e11b6064820152608401610598565b601154611114906001600160a01b03163330856115cc565b610d9e33600b5484670de0b6b3a7640000610feb9190612033565b6000918252602082815260408084206001600160a01b0393909316845291905290205460ff1690565b43600e541115801561116b575043601054115b6111b75760405162461bcd60e51b815260206004820181905260248201527f537765657470616449444f3a2057726f6e6720706572696f6420746f206275796044820152606401610598565b600081116111d75760405162461bcd60e51b815260040161059890611f2e565b6002546040516307c844e360e21b81523360048201526000916001600160a01b031690631f21138c9060240160206040518083038186803b15801561121b57600080fd5b505afa15801561122f573d6000803e3d6000fd5b505050506040513d601f19601f820116820180604052508101906112539190611d4a565b9050600081116112755760405162461bcd60e51b815260040161059890611e99565b3360009081526013602052604090205460ff166112f15760405162461bcd60e51b815260206004820152603460248201527f537765657470616449444f3a20557365722063616e27742062757920746f6b656044820152736e732066726f6d207365636f6e6420737461676560601b6064820152608401610598565b33600090815260156020526040812054601654600a54611312908590612033565b61131c9190612011565b6113269190612052565b336000908152601560205260409020549091508110156113a65760405162461bcd60e51b815260206004820152603560248201527f537765657470616449444f3a205573657220616c726561647920626f75676874604482015274206d617820616d6f756e74206f6620746f6b656e7360581b6064820152608401610598565b6000600b54826113b69190612033565b9050838110156113d85760405162461bcd60e51b815260040161059890611ee0565b6011546113f0906001600160a01b03163330876115cc565b61140b33600b5486670de0b6b3a7640000610feb9190612033565b600b5461142085670de0b6b3a7640000612033565b61142a9190612011565b3360009081526015602052604081208054909190611449908490611ff9565b9091555050600b5461146385670de0b6b3a7640000612033565b61146d9190612011565b600a60008282546110879190612052565b600082815260208190526040902060010154611499816114d6565b610a538383611567565b6000806114af83610a58565b9050600c54816114bf9190612033565b9392505050565b60006114d133610a58565b905090565b6114e08133611667565b50565b6114ed828261112f565b610d9e576000828152602081815260408083206001600160a01b03851684529091529020805460ff191660011790556115233390565b6001600160a01b0316816001600160a01b0316837f2f8788117e7eff1d82e926ec794901d17c78024a50270940304540a733656f0d60405160405180910390a45050565b611571828261112f565b15610d9e576000828152602081815260408083206001600160a01b0385168085529252808320805460ff1916905551339285917ff6391f5c32d9c69d2a47ea670b442974b53935d1edc7fd64eb21e047a839171b9190a45050565b6040516001600160a01b038085166024830152831660448201526064810182905261108d9085906323b872dd60e01b906084015b60408051601f198184030181529190526020810180516001600160e01b03166001600160e01b0319909316929092179091526116cb565b6040516001600160a01b038316602482015260448101829052610a5390849063a9059cbb60e01b90606401611600565b611671828261112f565b610d9e57611689816001600160a01b0316601461179d565b61169483602061179d565b6040516020016116a5929190611df1565b60408051601f198184030181529082905262461bcd60e51b825261059891600401611e66565b6000611720826040518060400160405280602081526020017f5361666545524332303a206c6f772d6c6576656c2063616c6c206661696c6564815250856001600160a01b03166119399092919063ffffffff16565b805190915015610a53578080602001905181019061173e9190611c02565b610a535760405162461bcd60e51b815260206004820152602a60248201527f5361666545524332303a204552433230206f7065726174696f6e20646964206e6044820152691bdd081cdd58d8d9595960b21b6064820152608401610598565b606060006117ac836002612033565b6117b7906002611ff9565b67ffffffffffffffff8111156117cf576117cf6120f3565b6040519080825280601f01601f1916602001820160405280156117f9576020820181803683370190505b509050600360fc1b81600081518110611814576118146120dd565b60200101906001600160f81b031916908160001a905350600f60fb1b81600181518110611843576118436120dd565b60200101906001600160f81b031916908160001a9053506000611867846002612033565b611872906001611ff9565b90505b60018111156118ea576f181899199a1a9b1b9c1cb0b131b232b360811b85600f16601081106118a6576118a66120dd565b1a60f81b8282815181106118bc576118bc6120dd565b60200101906001600160f81b031916908160001a90535060049490941c936118e381612095565b9050611875565b5083156114bf5760405162461bcd60e51b815260206004820181905260248201527f537472696e67733a20686578206c656e67746820696e73756666696369656e746044820152606401610598565b60606119488484600085611950565b949350505050565b6060824710156119b15760405162461bcd60e51b815260206004820152602660248201527f416464726573733a20696e73756666696369656e742062616c616e636520666f6044820152651c8818d85b1b60d21b6064820152608401610598565b6001600160a01b0385163b611a085760405162461bcd60e51b815260206004820152601d60248201527f416464726573733a2063616c6c20746f206e6f6e2d636f6e74726163740000006044820152606401610598565b600080866001600160a01b03168587604051611a249190611dd5565b60006040518083038185875af1925050503d8060008114611a61576040519150601f19603f3d011682016040523d82523d6000602084013e611a66565b606091505b5091509150611a76828286611a81565b979650505050505050565b60608315611a905750816114bf565b825115611aa05782518084602001fd5b8160405162461bcd60e51b81526004016105989190611e66565b8051611ac581612109565b919050565b600082601f830112611adb57600080fd5b81516020611af0611aeb83611fd5565b611fa4565b80838252828201915082860187848660051b8901011115611b1057600080fd5b6000805b86811015611b3f57825161ffff81168114611b2d578283fd5b85529385019391850191600101611b14565b509198975050505050505050565b600060208284031215611b5f57600080fd5b81356114bf81612109565b60006020808385031215611b7d57600080fd5b825167ffffffffffffffff811115611b9457600080fd5b8301601f81018513611ba557600080fd5b8051611bb3611aeb82611fd5565b80828252848201915084840188868560051b8701011115611bd357600080fd5b600094505b83851015611bf6578051835260019490940193918501918501611bd8565b50979650505050505050565b600060208284031215611c1457600080fd5b815180151581146114bf57600080fd5b600060208284031215611c3657600080fd5b5035919050565b60008060408385031215611c5057600080fd5b823591506020830135611c6281612109565b809150509250929050565b600060208284031215611c7f57600080fd5b81356001600160e01b0319811681146114bf57600080fd5b600060208284031215611ca957600080fd5b815167ffffffffffffffff80821115611cc157600080fd5b9083019060c08286031215611cd557600080fd5b611cdd611f7b565b82518152602083015160048110611cf357600080fd5b6020820152611d0460408401611aba565b6040820152606083015160608201526080830151608082015260a083015182811115611d2f57600080fd5b611d3b87828601611aca565b60a08301525095945050505050565b600060208284031215611d5c57600080fd5b5051919050565b60008060008060008060008060008060006101608c8e031215611d8557600080fd5b505089359b60208b01359b5060408b01359a60608101359a506080810135995060a0810135985060c0810135975060e0810135965061010081013595506101208101359450610140013592509050565b60008251611de7818460208701612069565b9190910192915050565b7f416363657373436f6e74726f6c3a206163636f756e7420000000000000000000815260008351611e29816017850160208801612069565b7001034b99036b4b9b9b4b733903937b6329607d1b6017918401918201528351611e5a816028840160208801612069565b01602801949350505050565b6020815260008251806020840152611e85816040850160208701612069565b601f01601f19169190910160400192915050565b60208082526027908201527f537765657470616449444f3a2055736572277320706f7765722063616e2774206040820152666265207a65726f60c81b606082015260800190565b6020808252602e908201527f537765657470616449444f3a20547279696e6720746f20627579206d6f72652060408201526d7468656e20617661696c61626c6560901b606082015260800190565b6020808252602d908201527f537765657470616449444f3a20416d6f756e74206d757374206265206772656160408201526c746572207468656e207a65726f60981b606082015260800190565b60405160c0810167ffffffffffffffff81118282101715611f9e57611f9e6120f3565b60405290565b604051601f8201601f1916810167ffffffffffffffff81118282101715611fcd57611fcd6120f3565b604052919050565b600067ffffffffffffffff821115611fef57611fef6120f3565b5060051b60200190565b6000821982111561200c5761200c6120c7565b500190565b60008261202e57634e487b7160e01b600052601260045260246000fd5b500490565b600081600019048311821515161561204d5761204d6120c7565b500290565b600082821015612064576120646120c7565b500390565b60005b8381101561208457818101518382015260200161206c565b8381111561108d5750506000910152565b6000816120a4576120a46120c7565b506000190190565b60006000198214156120c0576120c06120c7565b5060010190565b634e487b7160e01b600052601160045260246000fd5b634e487b7160e01b600052603260045260246000fd5b634e487b7160e01b600052604160045260246000fd5b6001600160a01b03811681146114e057600080fdfea26469706673582212205bc74aa2741fb8f4f701b6737992c0b39ad182eadef22c6b0cb56cb40b39899b64736f6c63430008070033",
  "devdoc": {
    "kind": "dev",
    "methods": {
      "getRoleAdmin(bytes32)": {
        "details": "Returns the admin role that controls `role`. See {grantRole} and {revokeRole}. To change a role's admin, use {_setRoleAdmin}."
      },
      "grantRole(bytes32,address)": {
        "details": "Grants `role` to `account`. If `account` had not been already granted `role`, emits a {RoleGranted} event. Requirements: - the caller must have ``role``'s admin role."
      },
      "hasRole(bytes32,address)": {
        "details": "Returns `true` if `account` has been granted `role`."
      },
      "renounceRole(bytes32,address)": {
        "details": "Revokes `role` from the calling account. Roles are often managed via {grantRole} and {revokeRole}: this function's purpose is to provide a mechanism for accounts to lose their privileges if they are compromised (such as when a trusted device is misplaced). If the calling account had been revoked `role`, emits a {RoleRevoked} event. Requirements: - the caller must be `account`."
      },
      "revokeRole(bytes32,address)": {
        "details": "Revokes `role` from `account`. If `account` had been granted `role`, emits a {RoleRevoked} event. Requirements: - the caller must have ``role``'s admin role."
      },
      "supportsInterface(bytes4)": {
        "details": "See {IERC165-supportsInterface}."
      }
    },
    "version": 1
  },
  "userdoc": {
    "kind": "user",
    "methods": {},
    "version": 1
  },
  "storageLayout": {
    "storage": [
      {
        "astId": 24,
        "contract": "contracts/SweetpadIDO.sol:SweetpadIDO",
        "label": "_roles",
        "offset": 0,
        "slot": "0",
        "type": "t_mapping(t_bytes32,t_struct(RoleData)19_storage)"
      },
      {
        "astId": 5343,
        "contract": "contracts/SweetpadIDO.sol:SweetpadIDO",
        "label": "sweetpadTicket",
        "offset": 0,
        "slot": "1",
        "type": "t_contract(ISweetpadTicket)8698"
      },
      {
        "astId": 5346,
        "contract": "contracts/SweetpadIDO.sol:SweetpadIDO",
        "label": "sweetpadFreezing",
        "offset": 0,
        "slot": "2",
        "type": "t_contract(ISweetpadFreezing)8415"
      },
      {
        "astId": 5349,
        "contract": "contracts/SweetpadIDO.sol:SweetpadIDO",
        "label": "sweetpadNFTFreezing",
        "offset": 0,
        "slot": "3",
        "type": "t_contract(ISweetpadNFTFreezing)8675"
      },
      {
        "astId": 5352,
        "contract": "contracts/SweetpadIDO.sol:SweetpadIDO",
        "label": "sweetpadLottery",
        "offset": 0,
        "slot": "4",
        "type": "t_contract(SweetpadLottery)6737"
      },
      {
        "astId": 5354,
        "contract": "contracts/SweetpadIDO.sol:SweetpadIDO",
        "label": "percentForLottery",
        "offset": 0,
        "slot": "5",
        "type": "t_uint256"
      },
      {
        "astId": 5356,
        "contract": "contracts/SweetpadIDO.sol:SweetpadIDO",
        "label": "percentForGuaranteedAllocation",
        "offset": 0,
        "slot": "6",
        "type": "t_uint256"
      },
      {
        "astId": 5358,
        "contract": "contracts/SweetpadIDO.sol:SweetpadIDO",
        "label": "totalPower",
        "offset": 0,
        "slot": "7",
        "type": "t_uint256"
      },
      {
        "astId": 5360,
        "contract": "contracts/SweetpadIDO.sol:SweetpadIDO",
        "label": "commission",
        "offset": 0,
        "slot": "8",
        "type": "t_uint256"
      },
      {
        "astId": 5362,
        "contract": "contracts/SweetpadIDO.sol:SweetpadIDO",
        "label": "tokensToSell",
        "offset": 0,
        "slot": "9",
        "type": "t_uint256"
      },
      {
        "astId": 5364,
        "contract": "contracts/SweetpadIDO.sol:SweetpadIDO",
        "label": "availableTokensToSell",
        "offset": 0,
        "slot": "10",
        "type": "t_uint256"
      },
      {
        "astId": 5366,
        "contract": "contracts/SweetpadIDO.sol:SweetpadIDO",
        "label": "tokenPrice",
        "offset": 0,
        "slot": "11",
        "type": "t_uint256"
      },
      {
        "astId": 5368,
        "contract": "contracts/SweetpadIDO.sol:SweetpadIDO",
        "label": "allocationPerTicket",
        "offset": 0,
        "slot": "12",
        "type": "t_uint256"
      },
      {
        "astId": 5370,
        "contract": "contracts/SweetpadIDO.sol:SweetpadIDO",
        "label": "idoSaleStart",
        "offset": 0,
        "slot": "13",
        "type": "t_uint256"
      },
      {
        "astId": 5372,
        "contract": "contracts/SweetpadIDO.sol:SweetpadIDO",
        "label": "idoSecondSaleStart",
        "offset": 0,
        "slot": "14",
        "type": "t_uint256"
      },
      {
        "astId": 5374,
        "contract": "contracts/SweetpadIDO.sol:SweetpadIDO",
        "label": "idoSaleEnd",
        "offset": 0,
        "slot": "15",
        "type": "t_uint256"
      },
      {
        "astId": 5376,
        "contract": "contracts/SweetpadIDO.sol:SweetpadIDO",
        "label": "idoSecondSaleEnd",
        "offset": 0,
        "slot": "16",
        "type": "t_uint256"
      },
      {
        "astId": 5382,
        "contract": "contracts/SweetpadIDO.sol:SweetpadIDO",
        "label": "BUSD",
        "offset": 0,
        "slot": "17",
        "type": "t_contract(IERC20)1161"
      },
      {
        "astId": 5385,
        "contract": "contracts/SweetpadIDO.sol:SweetpadIDO",
        "label": "asset",
        "offset": 0,
        "slot": "18",
        "type": "t_contract(IERC20)1161"
      },
      {
        "astId": 5392,
        "contract": "contracts/SweetpadIDO.sol:SweetpadIDO",
        "label": "unlockedToSecondStage",
        "offset": 0,
        "slot": "19",
        "type": "t_mapping(t_address,t_bool)"
      },
      {
        "astId": 5396,
        "contract": "contracts/SweetpadIDO.sol:SweetpadIDO",
        "label": "tokensBoughtFirstStage",
        "offset": 0,
        "slot": "20",
        "type": "t_mapping(t_address,t_uint256)"
      },
      {
        "astId": 5400,
        "contract": "contracts/SweetpadIDO.sol:SweetpadIDO",
        "label": "tokensBoughtSecondStage",
        "offset": 0,
        "slot": "21",
        "type": "t_mapping(t_address,t_uint256)"
      },
      {
        "astId": 5402,
        "contract": "contracts/SweetpadIDO.sol:SweetpadIDO",
        "label": "powerForSecondStage",
        "offset": 0,
        "slot": "22",
        "type": "t_uint256"
      }
    ],
    "types": {
      "t_address": {
        "encoding": "inplace",
        "label": "address",
        "numberOfBytes": "20"
      },
      "t_bool": {
        "encoding": "inplace",
        "label": "bool",
        "numberOfBytes": "1"
      },
      "t_bytes32": {
        "encoding": "inplace",
        "label": "bytes32",
        "numberOfBytes": "32"
      },
      "t_contract(IERC20)1161": {
        "encoding": "inplace",
        "label": "contract IERC20",
        "numberOfBytes": "20"
      },
      "t_contract(ISweetpadFreezing)8415": {
        "encoding": "inplace",
        "label": "contract ISweetpadFreezing",
        "numberOfBytes": "20"
      },
      "t_contract(ISweetpadNFTFreezing)8675": {
        "encoding": "inplace",
        "label": "contract ISweetpadNFTFreezing",
        "numberOfBytes": "20"
      },
      "t_contract(ISweetpadTicket)8698": {
        "encoding": "inplace",
        "label": "contract ISweetpadTicket",
        "numberOfBytes": "20"
      },
      "t_contract(SweetpadLottery)6737": {
        "encoding": "inplace",
        "label": "contract SweetpadLottery",
        "numberOfBytes": "20"
      },
      "t_mapping(t_address,t_bool)": {
        "encoding": "mapping",
        "key": "t_address",
        "label": "mapping(address => bool)",
        "numberOfBytes": "32",
        "value": "t_bool"
      },
      "t_mapping(t_address,t_uint256)": {
        "encoding": "mapping",
        "key": "t_address",
        "label": "mapping(address => uint256)",
        "numberOfBytes": "32",
        "value": "t_uint256"
      },
      "t_mapping(t_bytes32,t_struct(RoleData)19_storage)": {
        "encoding": "mapping",
        "key": "t_bytes32",
        "label": "mapping(bytes32 => struct AccessControl.RoleData)",
        "numberOfBytes": "32",
        "value": "t_struct(RoleData)19_storage"
      },
      "t_struct(RoleData)19_storage": {
        "encoding": "inplace",
        "label": "struct AccessControl.RoleData",
        "members": [
          {
            "astId": 16,
            "contract": "contracts/SweetpadIDO.sol:SweetpadIDO",
            "label": "members",
            "offset": 0,
            "slot": "0",
            "type": "t_mapping(t_address,t_bool)"
          },
          {
            "astId": 18,
            "contract": "contracts/SweetpadIDO.sol:SweetpadIDO",
            "label": "adminRole",
            "offset": 0,
            "slot": "1",
            "type": "t_bytes32"
          }
        ],
        "numberOfBytes": "64"
      },
      "t_uint256": {
        "encoding": "inplace",
        "label": "uint256",
        "numberOfBytes": "32"
      }
    }
  }
}