{
  "address": "0x5c0c823260A08531c0fc5EE3bbbc016498959C01",
  "abi": [
    {
      "inputs": [
        {
          "internalType": "address",
          "name": "_nft",
          "type": "address"
        },
        {
          "internalType": "address",
          "name": "_ticket",
          "type": "address"
        }
      ],
      "stateMutability": "nonpayable",
      "type": "constructor"
    },
    {
      "anonymous": false,
      "inputs": [
        {
          "indexed": true,
          "internalType": "address",
          "name": "user",
          "type": "address"
        },
        {
          "indexed": false,
          "internalType": "uint256",
          "name": "nftId",
          "type": "uint256"
        },
        {
          "indexed": false,
          "internalType": "uint256",
          "name": "freezeEndBlock",
          "type": "uint256"
        },
        {
          "indexed": false,
          "internalType": "uint256",
          "name": "ticketsMinted",
          "type": "uint256"
        }
      ],
      "name": "Froze",
      "type": "event"
    },
    {
      "anonymous": false,
      "inputs": [
        {
          "indexed": true,
          "internalType": "address",
          "name": "user",
          "type": "address"
        },
        {
          "indexed": false,
          "internalType": "uint256[]",
          "name": "nftIds",
          "type": "uint256[]"
        },
        {
          "indexed": false,
          "internalType": "uint256[]",
          "name": "freezeEndBlocks",
          "type": "uint256[]"
        },
        {
          "indexed": false,
          "internalType": "uint256[]",
          "name": "ticketsMinted",
          "type": "uint256[]"
        }
      ],
      "name": "FrozeBatch",
      "type": "event"
    },
    {
      "anonymous": false,
      "inputs": [
        {
          "indexed": true,
          "internalType": "address",
          "name": "previousOwner",
          "type": "address"
        },
        {
          "indexed": true,
          "internalType": "address",
          "name": "newOwner",
          "type": "address"
        }
      ],
      "name": "OwnershipTransferred",
      "type": "event"
    },
    {
      "anonymous": false,
      "inputs": [
        {
          "indexed": true,
          "internalType": "address",
          "name": "user",
          "type": "address"
        },
        {
          "indexed": false,
          "internalType": "uint256",
          "name": "nftId",
          "type": "uint256"
        }
      ],
      "name": "Unfroze",
      "type": "event"
    },
    {
      "anonymous": false,
      "inputs": [
        {
          "indexed": true,
          "internalType": "address",
          "name": "user",
          "type": "address"
        },
        {
          "indexed": false,
          "internalType": "uint256[]",
          "name": "nftId",
          "type": "uint256[]"
        }
      ],
      "name": "UnfrozeBatch",
      "type": "event"
    },
    {
      "inputs": [
        {
          "internalType": "address",
          "name": "to_",
          "type": "address"
        },
        {
          "internalType": "address",
          "name": "ido_",
          "type": "address"
        },
        {
          "internalType": "uint256",
          "name": "ticketId_",
          "type": "uint256"
        }
      ],
      "name": "addTickets",
      "outputs": [],
      "stateMutability": "nonpayable",
      "type": "function"
    },
    {
      "inputs": [],
      "name": "blocksPerDay",
      "outputs": [
        {
          "internalType": "uint256",
          "name": "",
          "type": "uint256"
        }
      ],
      "stateMutability": "pure",
      "type": "function"
    },
    {
      "inputs": [
        {
          "internalType": "uint256",
          "name": "nftId",
          "type": "uint256"
        },
        {
          "internalType": "uint256",
          "name": "freezePeriod",
          "type": "uint256"
        }
      ],
      "name": "freeze",
      "outputs": [],
      "stateMutability": "nonpayable",
      "type": "function"
    },
    {
      "inputs": [
        {
          "internalType": "uint256[]",
          "name": "nftIds",
          "type": "uint256[]"
        },
        {
          "internalType": "uint256[]",
          "name": "freezePeriods",
          "type": "uint256[]"
        }
      ],
      "name": "freezeBatch",
      "outputs": [],
      "stateMutability": "nonpayable",
      "type": "function"
    },
    {
      "inputs": [
        {
          "internalType": "address",
          "name": "user",
          "type": "address"
        }
      ],
      "name": "getNftsFrozeByUser",
      "outputs": [
        {
          "internalType": "uint256[]",
          "name": "",
          "type": "uint256[]"
        }
      ],
      "stateMutability": "view",
      "type": "function"
    },
    {
      "inputs": [
        {
          "internalType": "address",
          "name": "user_",
          "type": "address"
        },
        {
          "internalType": "address",
          "name": "ido_",
          "type": "address"
        }
      ],
      "name": "getTicketsForIdo",
      "outputs": [
        {
          "internalType": "uint256[]",
          "name": "",
          "type": "uint256[]"
        }
      ],
      "stateMutability": "view",
      "type": "function"
    },
    {
      "inputs": [],
      "name": "lottery",
      "outputs": [
        {
          "internalType": "contract SweetpadLottery",
          "name": "",
          "type": "address"
        }
      ],
      "stateMutability": "view",
      "type": "function"
    },
    {
      "inputs": [],
      "name": "maxFreezePeriod",
      "outputs": [
        {
          "internalType": "uint256",
          "name": "",
          "type": "uint256"
        }
      ],
      "stateMutability": "pure",
      "type": "function"
    },
    {
      "inputs": [],
      "name": "minFreezePeriod",
      "outputs": [
        {
          "internalType": "uint256",
          "name": "",
          "type": "uint256"
        }
      ],
      "stateMutability": "pure",
      "type": "function"
    },
    {
      "inputs": [],
      "name": "nft",
      "outputs": [
        {
          "internalType": "contract ISweetpadNFT",
          "name": "",
          "type": "address"
        }
      ],
      "stateMutability": "view",
      "type": "function"
    },
    {
      "inputs": [
        {
          "internalType": "uint256",
          "name": "",
          "type": "uint256"
        }
      ],
      "name": "nftData",
      "outputs": [
        {
          "internalType": "address",
          "name": "freezer",
          "type": "address"
        },
        {
          "internalType": "uint256",
          "name": "freezeEndBlock",
          "type": "uint256"
        }
      ],
      "stateMutability": "view",
      "type": "function"
    },
    {
      "inputs": [
        {
          "internalType": "address",
          "name": "",
          "type": "address"
        },
        {
          "internalType": "address",
          "name": "",
          "type": "address"
        },
        {
          "internalType": "uint256",
          "name": "",
          "type": "uint256"
        },
        {
          "internalType": "bytes",
          "name": "",
          "type": "bytes"
        }
      ],
      "name": "onERC721Received",
      "outputs": [
        {
          "internalType": "bytes4",
          "name": "",
          "type": "bytes4"
        }
      ],
      "stateMutability": "nonpayable",
      "type": "function"
    },
    {
      "inputs": [],
      "name": "owner",
      "outputs": [
        {
          "internalType": "address",
          "name": "",
          "type": "address"
        }
      ],
      "stateMutability": "view",
      "type": "function"
    },
    {
      "inputs": [
        {
          "internalType": "address",
          "name": "sweetpadIdo_",
          "type": "address"
        }
      ],
      "name": "participate",
      "outputs": [],
      "stateMutability": "nonpayable",
      "type": "function"
    },
    {
      "inputs": [],
      "name": "renounceOwnership",
      "outputs": [],
      "stateMutability": "nonpayable",
      "type": "function"
    },
    {
      "inputs": [
        {
          "internalType": "address",
          "name": "lottery_",
          "type": "address"
        }
      ],
      "name": "setSweetpadLottery",
      "outputs": [],
      "stateMutability": "nonpayable",
      "type": "function"
    },
    {
      "inputs": [
        {
          "internalType": "address",
          "name": "newNft",
          "type": "address"
        }
      ],
      "name": "setSweetpadNFT",
      "outputs": [],
      "stateMutability": "nonpayable",
      "type": "function"
    },
    {
      "inputs": [
        {
          "internalType": "address",
          "name": "newTicket",
          "type": "address"
        }
      ],
      "name": "setSweetpadTicket",
      "outputs": [],
      "stateMutability": "nonpayable",
      "type": "function"
    },
    {
      "inputs": [],
      "name": "ticket",
      "outputs": [
        {
          "internalType": "contract ISweetpadTicket",
          "name": "",
          "type": "address"
        }
      ],
      "stateMutability": "view",
      "type": "function"
    },
    {
      "inputs": [
        {
          "internalType": "address",
          "name": "",
          "type": "address"
        },
        {
          "internalType": "address",
          "name": "",
          "type": "address"
        },
        {
          "internalType": "uint256",
          "name": "",
          "type": "uint256"
        }
      ],
      "name": "ticketsForIdo",
      "outputs": [
        {
          "internalType": "uint256",
          "name": "",
          "type": "uint256"
        }
      ],
      "stateMutability": "view",
      "type": "function"
    },
    {
      "inputs": [
        {
          "internalType": "uint256",
          "name": "",
          "type": "uint256"
        }
      ],
      "name": "ticketsPerNFT",
      "outputs": [
        {
          "internalType": "uint256",
          "name": "",
          "type": "uint256"
        }
      ],
      "stateMutability": "view",
      "type": "function"
    },
    {
      "inputs": [
        {
          "internalType": "address",
          "name": "newOwner",
          "type": "address"
        }
      ],
      "name": "transferOwnership",
      "outputs": [],
      "stateMutability": "nonpayable",
      "type": "function"
    },
    {
      "inputs": [
        {
          "internalType": "uint256",
          "name": "nftId",
          "type": "uint256"
        }
      ],
      "name": "unfreeze",
      "outputs": [],
      "stateMutability": "nonpayable",
      "type": "function"
    },
    {
      "inputs": [
        {
          "internalType": "uint256[]",
          "name": "nftIds",
          "type": "uint256[]"
        }
      ],
      "name": "unfreezeBatch",
      "outputs": [],
      "stateMutability": "nonpayable",
      "type": "function"
    },
    {
      "inputs": [
        {
          "internalType": "address",
          "name": "",
          "type": "address"
        },
        {
          "internalType": "uint256",
          "name": "",
          "type": "uint256"
        }
      ],
      "name": "userNFTs",
      "outputs": [
        {
          "internalType": "uint256",
          "name": "",
          "type": "uint256"
        }
      ],
      "stateMutability": "view",
      "type": "function"
    }
  ],
  "transactionHash": "0x8aafd38d4c01bccc031befd75c458c2d6d5e8e42cdc1f071889a75a14defa6a2",
  "args": [
    "0xC19E1a05c3dcfc34111F490507852dB2753Fd04c",
    "0xe394eEA0F626c7Bf2BDf3a3f25300083913748E0"
  ],
  "numDeployments": 5,
  "solcInputHash": "964b5d185d394f6fec46a7da5c21033a",
  "bytecode": "0x60806040523480156200001157600080fd5b506040516200225f3803806200225f8339810160408190526200003491620002a4565b6200003f336200005d565b6200004a82620000ad565b62000055816200019c565b5050620002dc565b600080546001600160a01b038381166001600160a01b0319831681178455604051919092169283917f8be0079c531659141344cd1fd0a4f28419497f9722a3daafe3b4186f6b6457e09190a35050565b6000546001600160a01b03163314620000fc5760405162461bcd60e51b815260206004820181905260248201526000805160206200223f83398151915260448201526064015b60405180910390fd5b6001600160a01b0381166200017a5760405162461bcd60e51b815260206004820152603460248201527f53776565747061644e4654467265657a696e673a204e465420636f6e7472616360448201527f7420616464726573732063616e277420626520300000000000000000000000006064820152608401620000f3565b600180546001600160a01b0319166001600160a01b0392909216919091179055565b6000546001600160a01b03163314620001e75760405162461bcd60e51b815260206004820181905260248201526000805160206200223f8339815191526044820152606401620000f3565b6001600160a01b038116620002655760405162461bcd60e51b815260206004820152603760248201527f53776565747061644e4654467265657a696e673a205469636b657420636f6e7460448201527f7261637420616464726573732063616e277420626520300000000000000000006064820152608401620000f3565b600280546001600160a01b0319166001600160a01b0392909216919091179055565b80516001600160a01b03811681146200029f57600080fd5b919050565b60008060408385031215620002b857600080fd5b620002c38362000287565b9150620002d36020840162000287565b90509250929050565b611f5380620002ec6000396000f3fe608060405234801561001057600080fd5b50600436106101735760003560e01c80636cc25db7116100de5780639bd59a8211610097578063b91038c711610071578063b91038c7146103b8578063ba13a572146103cb578063c4df6d0e146103de578063f2fde38b146103f157600080fd5b80639bd59a82146103495780639cb677d11461035c578063b5264e391461036f57600080fd5b80636cc25db7146102a5578063715018a6146102b85780638725aa44146102c05780638c210975146102d35780638c755304146103255780638da5cb5b1461033857600080fd5b80633e4332e8116101305780633e4332e81461023257806347ccca02146102455780634cfea68a146102705780634f9549dc14610277578063661d489d1461028a5780636623fc461461029257600080fd5b8063150b7a0214610178578063291c73c3146101b45780633483f19d146101d557806335d7a052146101f55780633a6883f01461020a5780633c3d982914610212575b600080fd5b610196610186366004611876565b630a85bd0160e11b949350505050565b6040516001600160e01b031990911681526020015b60405180910390f35b6101c76101c236600461193a565b610404565b6040519081526020016101ab565b6101e86101e33660046117d8565b610435565b6040516101ab9190611d24565b610208610203366004611b91565b6104a1565b005b6101c7610683565b6101c7610220366004611b5f565b60066020526000908152604090205481565b6102086102403660046117d8565b610696565b600154610258906001600160a01b031681565b6040516001600160a01b0390911681526020016101ab565b600a6101c7565b6102086102853660046117d8565b61075e565b6101c76107d0565b6102086102a0366004611b5f565b6107df565b600254610258906001600160a01b031681565b61020861088a565b6102086102ce366004611966565b6108c0565b6103066102e1366004611b5f565b600460205260009081526040902080546001909101546001600160a01b039091169082565b604080516001600160a01b0390931683526020830191909152016101ab565b6101e86103333660046117fc565b6109ae565b6000546001600160a01b0316610258565b6102086103573660046117d8565b610a27565b6101c761036a366004611835565b610a99565b61020861037d366004611835565b6001600160a01b0392831660009081526007602090815260408083209490951682529283529283208054600181018255908452919092200155565b6102086103c63660046117d8565b610ad7565b600354610258906001600160a01b031681565b6102086103ec3660046119a8565b610c3c565b6102086103ff3660046117d8565b610f71565b6005602052816000526040600020818154811061042057600080fd5b90600052602060002001600091509150505481565b6001600160a01b03811660009081526005602090815260409182902080548351818402810184019094528084526060939283018282801561049557602002820191906000526020600020905b815481526020019060010190808311610481575b50505050509050919050565b60006104b0600a610447611e5f565b82146105375760015460405163e1aadc7f60e01b8152600481018590526001600160a01b039091169063e1aadc7f9060240160206040518083038186803b1580156104fa57600080fd5b505afa15801561050e573d6000803e3d6000fd5b505050506040513d601f19601f820116820180604052508101906105329190611b78565b6105be565b60015460405163e1aadc7f60e01b8152600481018590526001600160a01b039091169063e1aadc7f9060240160206040518083038186803b15801561057b57600080fd5b505afa15801561058f573d6000803e3d6000fd5b505050506040513d601f19601f820116820180604052508101906105b39190611b78565b6105be906002611e5f565b905060006105cd84848461100c565b604080518681526020810183905290810184905290915033907f63a12ed3726ca03aef5efbf3b0b3f3275846ccaa693e8ebbaed404180b8f6dd59060600160405180910390a2600154604051632142170760e11b8152336004820152306024820152604481018690526001600160a01b03909116906342842e0e90606401600060405180830381600087803b15801561066557600080fd5b505af1158015610679573d6000803e3d6000fd5b5050505050505050565b6000610691600a60b6611e5f565b905090565b6000546001600160a01b031633146106c95760405162461bcd60e51b81526004016106c090611d94565b60405180910390fd5b6001600160a01b03811661073c5760405162461bcd60e51b815260206004820152603460248201527f53776565747061644e4654467265657a696e673a204e465420636f6e7472616360448201527307420616464726573732063616e277420626520360641b60648201526084016106c0565b600180546001600160a01b0319166001600160a01b0392909216919091179055565b6000546001600160a01b031633146107885760405162461bcd60e51b81526004016106c090611d94565b6001600160a01b0381166107ae5760405162461bcd60e51b81526004016106c090611d37565b600380546001600160a01b0319166001600160a01b0392909216919091179055565b6000610691600a610447611e5f565b6107e881611112565b60405181815233907f3c05fbf9d410481e99636173d6932b01bb4e9a22d38f1a5257475ac9bacf35189060200160405180910390a2600154604051632142170760e11b8152306004820152336024820152604481018390526001600160a01b03909116906342842e0e90606401600060405180830381600087803b15801561086f57600080fd5b505af1158015610883573d6000803e3d6000fd5b5050505050565b6000546001600160a01b031633146108b45760405162461bcd60e51b81526004016106c090611d94565b6108be600061141f565b565b60005b818110156108fe576108ec8383838181106108e0576108e0611edc565b90506020020135611112565b806108f681611e95565b9150506108c3565b50336001600160a01b03167f4ad5f5782eb0f021b983e659fbdc7e64db4a85ec4e93e3537e974740f1b88e53838360405161093a929190611cc3565b60405180910390a2600154604051631467dea360e11b81526001600160a01b03909116906328cfbd4690610978903090339087908790600401611c7a565b600060405180830381600087803b15801561099257600080fd5b505af11580156109a6573d6000803e3d6000fd5b505050505050565b6001600160a01b038083166000908152600760209081526040808320938516835292815290829020805483518184028101840190945280845260609392830182828015610a1a57602002820191906000526020600020905b815481526020019060010190808311610a06575b5050505050905092915050565b6000546001600160a01b03163314610a515760405162461bcd60e51b81526004016106c090611d94565b6001600160a01b038116610a775760405162461bcd60e51b81526004016106c090611d37565b600280546001600160a01b0319166001600160a01b0392909216919091179055565b60076020528260005260406000206020528160005260406000208181548110610ac157600080fd5b9060005260206000200160009250925050505481565b33600090815260056020526040902054610b465760405162461bcd60e51b815260206004820152602a60248201527f537765657470616449444f3a205573657220646f65736e27742068617665204e60448201526911951cc81cdd185ad95960b21b60648201526084016106c0565b60005b33600090815260056020526040902054811015610c385760025433600081815260056020526040812080546001600160a01b0390941693630d4d15139392600692909187908110610b9c57610b9c611edc565b9060005260206000200154815260200190815260200160002054856040518463ffffffff1660e01b8152600401610bf3939291906001600160a01b0393841681526020810192909252909116604082015260600190565b600060405180830381600087803b158015610c0d57600080fd5b505af1158015610c21573d6000803e3d6000fd5b505050508080610c3090611e95565b915050610b49565b5050565b828114610ca35760405162461bcd60e51b815260206004820152602f60248201527f53776565747061644e4654467265657a696e673a204172726179206c656e677460448201526e1a1cc81a5cc81b9bdd08195c5d585b608a1b60648201526084016106c0565b8260008167ffffffffffffffff811115610cbf57610cbf611ef2565b604051908082528060200260200182016040528015610ce8578160200160208202803683370190505b50905060008267ffffffffffffffff811115610d0657610d06611ef2565b604051908082528060200260200182016040528015610d2f578160200160208202803683370190505b506001546040516305e2936560e11b81529192506001600160a01b031690630bc526ca90610d63908a908a90600401611cc3565b60006040518083038186803b158015610d7b57600080fd5b505afa158015610d8f573d6000803e3d6000fd5b505050506040513d6000823e601f3d908101601f19168201604052610db79190810190611a14565b915060005b83811015610eb857610dd1600a610447611e5f565b868683818110610de357610de3611edc565b905060200201351415610e3557828181518110610e0257610e02611edc565b60200260200101516002610e169190611e5f565b838281518110610e2857610e28611edc565b6020026020010181815250505b610e89888883818110610e4a57610e4a611edc565b90506020020135878784818110610e6357610e63611edc565b90506020020135858481518110610e7c57610e7c611edc565b602002602001015161100c565b828281518110610e9b57610e9b611edc565b602090810291909101015280610eb081611e95565b915050610dbc565b50336001600160a01b03167f9ebbff316f63a98ea1330837f98f32d3c63e80d2939b3ac7958f800db76fd83688888486604051610ef89493929190611cdf565b60405180910390a2600154604051631467dea360e11b81526001600160a01b03909116906328cfbd4690610f3690339030908c908c90600401611c24565b600060405180830381600087803b158015610f5057600080fd5b505af1158015610f64573d6000803e3d6000fd5b5050505050505050505050565b6000546001600160a01b03163314610f9b5760405162461bcd60e51b81526004016106c090611d94565b6001600160a01b0381166110005760405162461bcd60e51b815260206004820152602660248201527f4f776e61626c653a206e6577206f776e657220697320746865207a65726f206160448201526564647265737360d01b60648201526084016106c0565b6110098161141f565b50565b600061101a600a60b6611e5f565b83101580156110355750611031600a610447611e5f565b8311155b6110925760405162461bcd60e51b815260206004820152602860248201527f53776565747061644e4654467265657a696e673a2057726f6e6720667265657a60448201526719481c195c9a5bd960c21b60648201526084016106c0565b61109c4384611e47565b60408051808201825233808252602080830185815260008a815260048352858120945185546001600160a01b0319166001600160a01b0390911617855590516001948501559182526005815283822080549384018155825280822090920188905596875260069052909420919091555090919050565b600081815260046020908152604091829020825180840190935280546001600160a01b03168352600101549082015261114a3361146f565b6111ce5760405162461bcd60e51b815260206004820152604960248201527f53776565747061644e4654467265657a696e673a20596f75206172652070617260448201527f74696369706174696e6720696e2049444f207468617420646f65736e277420636064820152681b1bdcd959081e595d60ba1b608482015260a4016106c0565b80516001600160a01b031633146112335760405162461bcd60e51b8152602060048201526024808201527f53776565747061644e4654467265657a696e673a2057726f6e6720756e66726560448201526332bd32b960e11b60648201526084016106c0565b438160200151111561129f5760405162461bcd60e51b815260206004820152602f60248201527f53776565747061644e4654467265657a696e673a20467265657a65207065726960448201526e1bd908191bdb89dd081c185cdcd959608a1b60648201526084016106c0565b600082815260046020908152604080832080546001600160a01b0319168155600101839055338352600582528083208054825181850281018501909352808352919290919083018282801561131357602002820191906000526020600020905b8154815260200190600101908083116112ff575b505083519394506000925050505b8181101561140a578483828151811061133c5761133c611edc565b602002602001015114156113f857611355600183611e7e565b81146113bf57336000908152600560205260409020611375600184611e7e565b8154811061138557611385611edc565b6000918252602080832090910154338352600590915260409091208054839081106113b2576113b2611edc565b6000918252602090912001555b3360009081526005602052604090208054806113dd576113dd611ec6565b6001900381819060005260206000200160009055905561140a565b8061140281611e95565b915050611321565b50505060009182525060066020526040812055565b600080546001600160a01b038381166001600160a01b0319831681178455604051919092169283917f8be0079c531659141344cd1fd0a4f28419497f9722a3daafe3b4186f6b6457e09190a35050565b600080600360009054906101000a90046001600160a01b03166001600160a01b031663646046ad6040518163ffffffff1660e01b815260040160006040518083038186803b1580156114c057600080fd5b505afa1580156114d4573d6000803e3d6000fd5b505050506040513d6000823e601f3d908101601f191682016040526114fc9190810190611a14565b5111156116f1576003546040805163646046ad60e01b815290516000926001600160a01b03169163646046ad9160048083019286929190829003018186803b15801561154757600080fd5b505afa15801561155b573d6000803e3d6000fd5b505050506040513d6000823e601f3d908101601f191682016040526115839190810190611a14565b518110156116eb576001600160a01b03808416600090815260076020526040808220600354825163646046ad60e01b81529251939491938593919092169163da47675591839163646046ad916004808201928892909190829003018186803b1580156115ee57600080fd5b505afa158015611602573d6000803e3d6000fd5b505050506040513d6000823e601f3d908101601f1916820160405261162a9190810190611a14565b868151811061163b5761163b611edc565b60200260200101516040518263ffffffff1660e01b815260040161166191815260200190565b60006040518083038186803b15801561167957600080fd5b505afa15801561168d573d6000803e3d6000fd5b505050506040513d6000823e601f3d908101601f191682016040526116b59190810190611aac565b6040908101516001600160a01b031682526020820192909252016000205411156116e25750600092915050565b50600192915050565b50919050565b506001919050565b919050565b80516116f981611f08565b600082601f83011261171a57600080fd5b8151602061172f61172a83611e23565b611df2565b80838252828201915082860187848660051b890101111561174f57600080fd5b6000805b8681101561177e57825161ffff8116811461176c578283fd5b85529385019391850191600101611753565b509198975050505050505050565b60008083601f84011261179e57600080fd5b50813567ffffffffffffffff8111156117b657600080fd5b6020830191508360208260051b85010111156117d157600080fd5b9250929050565b6000602082840312156117ea57600080fd5b81356117f581611f08565b9392505050565b6000806040838503121561180f57600080fd5b823561181a81611f08565b9150602083013561182a81611f08565b809150509250929050565b60008060006060848603121561184a57600080fd5b833561185581611f08565b9250602084013561186581611f08565b929592945050506040919091013590565b6000806000806080858703121561188c57600080fd5b843561189781611f08565b93506020858101356118a881611f08565b935060408601359250606086013567ffffffffffffffff808211156118cc57600080fd5b818801915088601f8301126118e057600080fd5b8135818111156118f2576118f2611ef2565b611904601f8201601f19168501611df2565b9150808252898482850101111561191a57600080fd5b808484018584013760008482840101525080935050505092959194509250565b6000806040838503121561194d57600080fd5b823561195881611f08565b946020939093013593505050565b6000806020838503121561197957600080fd5b823567ffffffffffffffff81111561199057600080fd5b61199c8582860161178c565b90969095509350505050565b600080600080604085870312156119be57600080fd5b843567ffffffffffffffff808211156119d657600080fd5b6119e28883890161178c565b909650945060208701359150808211156119fb57600080fd5b50611a088782880161178c565b95989497509550505050565b60006020808385031215611a2757600080fd5b825167ffffffffffffffff811115611a3e57600080fd5b8301601f81018513611a4f57600080fd5b8051611a5d61172a82611e23565b80828252848201915084840188868560051b8701011115611a7d57600080fd5b600094505b83851015611aa0578051835260019490940193918501918501611a82565b50979650505050505050565b600060208284031215611abe57600080fd5b815167ffffffffffffffff80821115611ad657600080fd5b9083019060c08286031215611aea57600080fd5b611af2611dc9565b82518152602083015160048110611b0857600080fd5b6020820152611b19604084016116fe565b6040820152606083015160608201526080830151608082015260a083015182811115611b4457600080fd5b611b5087828601611709565b60a08301525095945050505050565b600060208284031215611b7157600080fd5b5035919050565b600060208284031215611b8a57600080fd5b5051919050565b60008060408385031215611ba457600080fd5b50508035926020909101359150565b81835260006001600160fb1b03831115611bcc57600080fd5b8260051b8083602087013760009401602001938452509192915050565b600081518084526020808501945080840160005b83811015611c1957815187529582019590820190600101611bfd565b509495945050505050565b6001600160a01b03858116825284166020820152608060408201819052600090611c519083018486611bb3565b828103606084015260048152630307830360e41b60208201526040810191505095945050505050565b6001600160a01b03858116825284166020820152608060408201819052600090611ca79083018486611bb3565b8281036060840152600081526020810191505095945050505050565b602081526000611cd7602083018486611bb3565b949350505050565b606081526000611cf3606083018688611bb3565b8281036020840152611d058186611be9565b90508281036040840152611d198185611be9565b979650505050505050565b6020815260006117f56020830184611be9565b60208082526037908201527f53776565747061644e4654467265657a696e673a205469636b657420636f6e7460408201527f7261637420616464726573732063616e27742062652030000000000000000000606082015260800190565b6020808252818101527f4f776e61626c653a2063616c6c6572206973206e6f7420746865206f776e6572604082015260600190565b60405160c0810167ffffffffffffffff81118282101715611dec57611dec611ef2565b60405290565b604051601f8201601f1916810167ffffffffffffffff81118282101715611e1b57611e1b611ef2565b604052919050565b600067ffffffffffffffff821115611e3d57611e3d611ef2565b5060051b60200190565b60008219821115611e5a57611e5a611eb0565b500190565b6000816000190483118215151615611e7957611e79611eb0565b500290565b600082821015611e9057611e90611eb0565b500390565b6000600019821415611ea957611ea9611eb0565b5060010190565b634e487b7160e01b600052601160045260246000fd5b634e487b7160e01b600052603160045260246000fd5b634e487b7160e01b600052603260045260246000fd5b634e487b7160e01b600052604160045260246000fd5b6001600160a01b038116811461100957600080fdfea2646970667358221220639901955a5b4de69d2018a6edf3bf25ee945e9a877841e6bcf7c0d26517ff2264736f6c634300080700334f776e61626c653a2063616c6c6572206973206e6f7420746865206f776e6572",
  "devdoc": {
    "kind": "dev",
    "methods": {
      "freeze(uint256,uint256)": {
        "params": {
          "freezePeriod": ": freezing period in blocks",
          "nftId": ": the id of the NFT"
        }
      },
      "freezeBatch(uint256[],uint256[])": {
        "params": {
          "freezePeriods": ": freezing periods in blocks",
          "nftIds": ": the ids of the NFT"
        }
      },
      "onERC721Received(address,address,uint256,bytes)": {
        "details": "See {IERC721Receiver-onERC721Received}. Always returns `IERC721Receiver.onERC721Received.selector`."
      },
      "owner()": {
        "details": "Returns the address of the current owner."
      },
      "renounceOwnership()": {
        "details": "Leaves the contract without owner. It will not be possible to call `onlyOwner` functions anymore. Can only be called by the current owner. NOTE: Renouncing ownership will leave the contract without an owner, thereby removing any functionality that is only available to the owner."
      },
      "transferOwnership(address)": {
        "details": "Transfers ownership of the contract to a new account (`newOwner`). Can only be called by the current owner."
      }
    },
    "version": 1
  },
  "userdoc": {
    "kind": "user",
    "methods": {
      "freeze(uint256,uint256)": {
        "notice": "Freeze Sweetpad NFT"
      },
      "freezeBatch(uint256[],uint256[])": {
        "notice": "Freeze Sweetpad NFTs"
      },
      "getNftsFrozeByUser(address)": {
        "notice": "Returns NFTs frozen by the user"
      },
      "nftData(uint256)": {
        "notice": "NFT id -> frozen NFT data"
      },
      "userNFTs(address,uint256)": {
        "notice": "user address -> NFT id's freezed by user"
      }
    },
    "version": 1
  },
  "storageLayout": {
    "storage": [
      {
        "astId": 400,
        "contract": "contracts/SweetpadNFTFreezing.sol:SweetpadNFTFreezing",
        "label": "_owner",
        "offset": 0,
        "slot": "0",
        "type": "t_address"
      },
      {
        "astId": 7318,
        "contract": "contracts/SweetpadNFTFreezing.sol:SweetpadNFTFreezing",
        "label": "nft",
        "offset": 0,
        "slot": "1",
        "type": "t_contract(ISweetpadNFT)8517"
      },
      {
        "astId": 7322,
        "contract": "contracts/SweetpadNFTFreezing.sol:SweetpadNFTFreezing",
        "label": "ticket",
        "offset": 0,
        "slot": "2",
        "type": "t_contract(ISweetpadTicket)8698"
      },
      {
        "astId": 7326,
        "contract": "contracts/SweetpadNFTFreezing.sol:SweetpadNFTFreezing",
        "label": "lottery",
        "offset": 0,
        "slot": "3",
        "type": "t_contract(SweetpadLottery)6737"
      },
      {
        "astId": 7333,
        "contract": "contracts/SweetpadNFTFreezing.sol:SweetpadNFTFreezing",
        "label": "nftData",
        "offset": 0,
        "slot": "4",
        "type": "t_mapping(t_uint256,t_struct(NFTData)8527_storage)"
      },
      {
        "astId": 7339,
        "contract": "contracts/SweetpadNFTFreezing.sol:SweetpadNFTFreezing",
        "label": "userNFTs",
        "offset": 0,
        "slot": "5",
        "type": "t_mapping(t_address,t_array(t_uint256)dyn_storage)"
      },
      {
        "astId": 7343,
        "contract": "contracts/SweetpadNFTFreezing.sol:SweetpadNFTFreezing",
        "label": "ticketsPerNFT",
        "offset": 0,
        "slot": "6",
        "type": "t_mapping(t_uint256,t_uint256)"
      },
      {
        "astId": 7350,
        "contract": "contracts/SweetpadNFTFreezing.sol:SweetpadNFTFreezing",
        "label": "ticketsForIdo",
        "offset": 0,
        "slot": "7",
        "type": "t_mapping(t_address,t_mapping(t_address,t_array(t_uint256)dyn_storage))"
      }
    ],
    "types": {
      "t_address": {
        "encoding": "inplace",
        "label": "address",
        "numberOfBytes": "20"
      },
      "t_array(t_uint256)dyn_storage": {
        "base": "t_uint256",
        "encoding": "dynamic_array",
        "label": "uint256[]",
        "numberOfBytes": "32"
      },
      "t_contract(ISweetpadNFT)8517": {
        "encoding": "inplace",
        "label": "contract ISweetpadNFT",
        "numberOfBytes": "20"
      },
      "t_contract(ISweetpadTicket)8698": {
        "encoding": "inplace",
        "label": "contract ISweetpadTicket",
        "numberOfBytes": "20"
      },
      "t_contract(SweetpadLottery)6737": {
        "encoding": "inplace",
        "label": "contract SweetpadLottery",
        "numberOfBytes": "20"
      },
      "t_mapping(t_address,t_array(t_uint256)dyn_storage)": {
        "encoding": "mapping",
        "key": "t_address",
        "label": "mapping(address => uint256[])",
        "numberOfBytes": "32",
        "value": "t_array(t_uint256)dyn_storage"
      },
      "t_mapping(t_address,t_mapping(t_address,t_array(t_uint256)dyn_storage))": {
        "encoding": "mapping",
        "key": "t_address",
        "label": "mapping(address => mapping(address => uint256[]))",
        "numberOfBytes": "32",
        "value": "t_mapping(t_address,t_array(t_uint256)dyn_storage)"
      },
      "t_mapping(t_uint256,t_struct(NFTData)8527_storage)": {
        "encoding": "mapping",
        "key": "t_uint256",
        "label": "mapping(uint256 => struct ISweetpadNFTFreezing.NFTData)",
        "numberOfBytes": "32",
        "value": "t_struct(NFTData)8527_storage"
      },
      "t_mapping(t_uint256,t_uint256)": {
        "encoding": "mapping",
        "key": "t_uint256",
        "label": "mapping(uint256 => uint256)",
        "numberOfBytes": "32",
        "value": "t_uint256"
      },
      "t_struct(NFTData)8527_storage": {
        "encoding": "inplace",
        "label": "struct ISweetpadNFTFreezing.NFTData",
        "members": [
          {
            "astId": 8524,
            "contract": "contracts/SweetpadNFTFreezing.sol:SweetpadNFTFreezing",
            "label": "freezer",
            "offset": 0,
            "slot": "0",
            "type": "t_address"
          },
          {
            "astId": 8526,
            "contract": "contracts/SweetpadNFTFreezing.sol:SweetpadNFTFreezing",
            "label": "freezeEndBlock",
            "offset": 0,
            "slot": "1",
            "type": "t_uint256"
          }
        ],
        "numberOfBytes": "64"
      },
      "t_uint256": {
        "encoding": "inplace",
        "label": "uint256",
        "numberOfBytes": "32"
      }
    }
  }
}